:020000040800F2
:10000000B0520020290200087926000821220008A9
:10001000C9250008AD050008CD3200080000000029
:10002000000000000000000000000000B12F0008E8
:10003000E10500080000000081260008ED2F0008FF
:10004000430200084302000843020008430200087C
:10005000430200084302000843020008430200086C
:10006000430200084302000843020008430200085C
:10007000430200084302000843020008430200084C
:10008000430200084302000843020008430200083C
:10009000430200084302000843020008430200082C
:1000A000430200084302000843020008430200081C
:1000B000430200084302000843020008430200080C
:1000C00043020008430200084302000843020008FC
:1000D00043020008C132000843020008430200083E
:1000E00043020008430200084302000843020008DC
:1000F00043020008430200084302000843020008CC
:1001000043020008430200084302000843020008BB
:1001100043020008430200084302000843020008AB
:100120004302000843020008B1050008BD050008AD
:10013000C905000843020008430200084302000802
:10014000430200084302000843020008430200087B
:100150004302000843020008D505000843020008D6
:10016000430200084302000843020008430200085B
:100170004302000843020008430200080000000098
:10018000430200084302000800F002F800F03CF8C7
:100190000AA090E8000C82448344AAF10107DA45E2
:1001A00001D100F031F8AFF2090EBAE80F0013F0F8
:1001B000010F18BFFB1A43F00103184780500000DD
:1001C000A0500000103A24BF78C878C1FAD852076E
:1001D00024BF30C830C144BF04680C6070470000C1
:1001E0000023002400250026103A28BF78C1FBD840
:1001F000520728BF30C148BF0B6070471FB504F0DD
:10020000CDFF1FBD10B510BD00F04FF91146FFF72F
:10021000F5FF03F05DF800F06DF903B4FFF7F2FFAE
:1002200003BC00F075F90000094880470948004701
:10023000FEE7FEE7FEE7FEE7FEE7FEE7FEE7FEE796
:10024000FEE7FEE704480549054A064B70470000F3
:10025000BD30000889010008B04C0020B0520020D9
:10026000B04E0020B04E002053EA020C00F069802E
:100270002DE9F04B4FF00006002B1FBFB3FA83F5BA
:1002800003FA05F424FA05F65E4012BF1643B2FAEB
:1002900082F502FA05F4C5F120051EBF22FA05FC1D
:1002A00044EA0C04203556EA044C4FEA144418BFC3
:1002B000641C4FF000084FF00009904271EB030CF2
:1002C00039D3002919BFB1FA81F701FA07F6B0FA5C
:1002D00080F700FA07F6C7F120071EBF20FA07FCD7
:1002E00046EA0C062037B6FBF4FCA7EB0507103FE7
:1002F00007F01F0BCBF120062CFA06F60CFA0BFBCD
:1003000044BFB3460026202FA4BF5E464FF0000B2B
:100310005BEA060C08BF4FF0010B19EB0B0948EB29
:100320000608ABFB027C06FB02CC0BFB03CCC01B1C
:1003300071EB0C01C1E70B46024641464846BDE859
:10034000F08B13B5084318BF4FF0FF300146AFF3F1
:100350000080BDE81C407047032A40F2308010F056
:10036000030C00F0158011F8013BBCF1020F624450
:1003700098BF11F801CB00F8013B38BF11F8013BE1
:10038000A2F1040298BF00F801CB38BF00F8013B8E
:1003900011F0030300F05780083AC0F0088051F8CC
:1003A000043B083A51F804CBA0E80810F5E7121D09
:1003B0005CBF51F8043B40F8043BAFF30080D20728
:1003C00024BF11F8013B11F801CB48BF11F8012BF4
:1003D00024BF00F8013B00F801CB48BF00F8012B17
:1003E000704702F0FF0343EA032242EA024200F0B0
:1003F00002B84FF0000200B51346944696462039E5
:1004000022BFA0E80C50A0E80C50B1F12001BFF4CD
:10041000F7AF090728BFA0E80C5048BF0CC05DF833
:1004200004EB890028BF40F8042B08BF704748BF81
:1004300020F8022B11F0804F18BF00F8012B7047F5
:1004400070477047704710B5203AC0F00B80B1E894
:100450001850A0E81850B1E81850A0E81850203AF9
:10046000BFF4F5AF5FEA027C24BFB1E81850A0E802
:10047000185044BF18C918C0BDE810405FEA827C1C
:1004800024BF51F8043B40F8043B08BF7047D20733
:1004900028BF31F8023B48BF11F8012B28BF20F8D4
:1004A000023B48BF00F8012B7047754600F02CF85E
:1004B000AE4605006946534620F00700854618B051
:1004C00020B5FFF7BFFEBDE820404FF000064FF01B
:1004D00000074FF000084FF0000BAC46ACE8C00935
:1004E000ACE8C009ACE8C009ACE8C00921F00701DC
:1004F0008D46704710B50446AFF300802046BDE836
:100500001040FFF78ABE000000487047100000202E
:1005100001491820ABBEFEE726000200704700002C
:100520000146806B036C026C13F0500F08D0D206AA
:1005300048BF00F0FFB8806BC26C0846104700BF90
:1005400042F40071016401688A6812F0405F01D0D2
:1005500000F0ECB8027E002AFAD1CA6A12F4700FD9
:1005600002D08A685205F3D44A6822F020024A6019
:10057000016C21F480710164016CC90448BF00F072
:10058000D5B8016C41F00101016400F0CFB8000062
:10059000806B40210164416C41F00401416400F032
:1005A000C9B80000806B00F0C3B80000FEE700008F
:1005B00040F2F420C2F2000000F052BB40F294205E
:1005C000C2F2000000F04CBB40F23420C2F2000046
:1005D00000F046BB40F25430C2F2000000F040BBD5
:1005E0007047000072B600BFFEE7000070B581B032
:1005F0000022009290F83C20012A03D102210846F3
:1006000001B070BDD1F800E00122BEF10A0F80F800
:100610003C200BD31FFA8EF25200066812FA8EF2BB
:10062000A2F11E0306F10C0205E000BF06680EEB06
:100630004E0306F110024FF0070C15680CFA03F494
:10064000A54315608D68146805FA03F3234313600E
:100650004968062906D801EB8101053906F1340203
:100660000AE000BF0C2901EB810187BF413906F187
:100670002C02233906F130021F2314688B4024EA30
:10068000030342F2043C1360C4F2010C1FFA8EF320
:10069000146803FA01F1ACF5417321439E421160E5
:1006A0003ED1BEF1120F07D1DCF8001041F48001F9
:1006B000CCF8001034E000BF2EF0010110292FD13A
:1006C000DCF80010BEF1100F41F40001CCF800106E
:1006D00026D140F20801C2F2000109684DF683629A
:1006E000C4F21B32A1FB0212910C01EB8101490003
:1006F00000910099A1B1009901390091009979B157
:10070000009901390091009951B100990139009186
:10071000009929B100990139009100990029EAD185
:10072000002180F83C10084601B070BD7047000001
:100730007047000070470000002804BF0120704788
:1007400010B50446006C00283ED0206CC00645D48D
:10075000206C41F202118843023042F204312064DD
:10076000C4F20101086820F4403008600A6894E887
:1007700009101A43D4F810E00A604168012321F4FB
:10078000807141604168C0F6007341EA0E2141600A
:10079000416821F040714160416841EA0C014160CB
:1007A000816821F400618160E168826811438160A1
:1007B000A16A8268994222F070628260826813D1D5
:1007C00022F0405119E000BF204600F065F80020FB
:1007D000606484F83C00206CC006B9D5012000217B
:1007E00084F83C1010BD00BF11438160816821F086
:1007F00040518160E16A826811438160816821F023
:10080000020181608168227E94F8203041EA420131
:100810008160416883B141F40061416041684EF2FA
:10082000000221F460414160616ACFF6FF724368C3
:1008300002EB4131194301E021F400614160C16ADA
:1008400040F2000C21F47001C162E2696169CFF6E7
:10085000F07CC36A0CEB02521A43C262826822F433
:100860000072826094F83020836843EA42228260FA
:10087000826822F480628260826842EA812181601B
:1008800000206064216C012262F3010121640021D7
:1008900084F83C1010BD00002DE9F04186B00446FC
:1008A000006842F20011C4F2010100268842CDE93D
:1008B0000466CDE90266019644D042F20001C4F21A
:1008C0000101884240F09E80002643F630000096E9
:1008D000C4F20200416941F480714161416901F44F
:1008E0008071009100990096016841F0010101605A
:1008F000006801A900F0010000900098C02001905C
:100900000320CDE902060020C4F2020000F09EFBA5
:1009100046F25840C4F2020040F234251830C2F2C8
:1009200000054FF48061C5E9000605F110004FF4A1
:1009300000624FF400534FF4807CC5E902660EC09C
:1009400051E000BF43F630000096C4F20200416956
:1009500040F2000841F4007141614169C4F20208AB
:1009600001F40071009100990096016801AD41F019
:10097000040101600168032701F00401009100995E
:100980000096016841F0020101600068294600F00C
:100990000200009000980C20019008F50060CDE95D
:1009A000027600F053FB08F580602946CDE9017717
:1009B000039600F04BFB40F2942546F25840C2F2F9
:1009C0000005C4F202004FF480624FF400634FF45C
:1009D00000574FF4807C4FF0007185E84300C5E973
:1009E0000362C5E905374FF4003028622846C5F890
:1009F0001CC06E6200F014FA002818BFFFF7F2FD69
:100A0000A563AC6306B0BDE8F0810000B0B582B06C
:100A100004460020019094F83C00012802D10220F5
:100A200002B0B0BD94460A460120216884F83C001B
:100A30008868C00729D188684DF6836540F00100B9
:100A4000886040F20800C2F200000068C4F21B3562
:100A5000A0FB0505A80C00EB400001900198A0B197
:100A6000019801380190019878B1019801380190FE
:100A7000019850B1019801380190019828B101986E
:100A80000138019001980028EAD18868C00503D593
:100A9000886820F4807088608D68206CED0709D12B
:100AA00040F010002064606C40F0010060640020A1
:100AB00072E000BF40F20175A84300F58070206429
:100AC0004868400504D5206C012565F30D3020648D
:100AD000256C0020ED044FF0000544BF656C25F047
:100AE0000605656484F83C00A06B40F2215540F295
:100AF000A553C0F60005C0F60003C0E90F5340F24D
:100B00009153C0F60003C3646FF022030B604B687F
:100B100042F2080543F080634B608B68C4F2010524
:100B200043F480738B604C31634600F02BFAD5F8A8
:100B3000FC222168D2060DD0A5F1080291422BD1EA
:100B4000296811F0405F27D1296841F08041296070
:100B500002B0B0BD42F20002C4F20102914217D0CD
:100B600042F20022C4F2010291420DD042F2001280
:100B7000C4F2010291420FD1D5F8FC22D20607D06F
:100B800005F5FC72914207D1D5F8FC22D20603D4B8
:100B90008A6812F0405F01D002B0B0BD8A6842F0AE
:100BA00080428A6002B0B0BD70B5866D044600F028
:100BB00037FB94F8351002292ED105462068216CA8
:100BC000026822F016020260426922F0800242614D
:100BD00009B9A16C19B1016821F00801016001682F
:100BE00021F0010101600068C00708D000F018FB87
:100BF000401B052818D820680068C007F6D1E06DB2
:100C00003F2101FA00F0B060012084F83500002097
:100C1000002184F8341070BD80206065012000211F
:100C200084F8341070BD00BF20206065032084F874
:100C30003500002184F8341070BD000090F83510A4
:100C4000022909D1052180F835100068016821F0DA
:100C5000010101600020704780214165012070473B
:100C6000F0B581B004460020009040F20800C2F2C6
:100C700000000268D4E9166048F2B513376808210D
:100C8000C1F64E3381403942A2FB03250CD02268C5
:100C900013685B0708D5136823F004031360B16081
:100CA000616D41F00101616501218140394208D047
:100CB00022685269120604D5B160616D41F00201EB
:100CC000616504218140394208D022681268920788
:100CD00004D5B160616D41F004016165102181406E
:100CE000394217D020680268120713D5B160026834
:100CF0000168520308D4C90508D4016821F008012D
:100D00000160216C21B905E008033FD4216C09B1D1
:100D100020468847E16D202000FA01F23A4241D096
:100D200020680368DB063DD5B26094F83530026870
:100D3000052B1BD122F016020260426922F08002CC
:100D40004261226C0AB9A26C1AB1026822F0080250
:100D500002603F208840B060012084F83500216D9A
:100D60000020002984F8340052D157E00168520372
:100D700010D4C90512D4016821F0100101600120CE
:100D800084F83500002084F8340007E0A16C0029C5
:100D9000BED1BFE7080301D4616C00E0E16B09B18B
:100DA00020468847606DC8B3606DC0072ED005200F
:100DB00084F835002068A90A026822F00102026066
:100DC000009A01328A4200921AD80268D20717D0DC
:100DD000009A01328A42009212D80268D2070FD0DC
:100DE000009A01328A4200920AD80268D20707D0DC
:100DF000009A01328A42009202D80268D207DFD1FB
:100E0000012084F83500002084F83400E16C29B119
:100E1000204601B0BDE8F040084700BF01B0F0BD7A
:100E20002DE9F041044600F0FBF9002C4ED00546B8
:100E3000022084F835000020216884F83400086816
:100E400020F0010008600868C00708D000F0E8F949
:100E5000401B05286CD821680868C007F6D10868CF
:100E600048F23F02CFF21002D4E90135024004F10A
:100E70000C0E9EE8C1511A432A43104330433843B5
:100E800040EA0800626A40EA0C00042A40EA0E03C5
:100E900020D1D4E90A5E206B4EEA030210430860B9
:100EA0004869BEF1000F20F0030040EA050040F061
:100EB000040C15D0B8F5005F42D0B8F1000F51D145
:100EC000022D52D0012D47D055B94EE00120BDE88A
:100ED000F08100BF0B60486920F0070040EA020C77
:100EE0006FF00F004AF6AB2250FA81F0CAF6AA2240
:100EF000A0FB02231A0945F2CE13C0F600039A5C48
:100F000040F2FF335F284FF03F00C1F814C021EAE0
:100F1000030100FA02F088BF0431C4E916128860A8
:100F2000002301220020636584F83520BDE8F081AC
:100F3000032220230320636584F83520BDE8F08177
:100F4000032DCDD8012240230120DFE805F0030E58
:100F5000030500BFE7E700BFAEF1C070B0FA80F054
:100F6000400904E0032D04D3BAD1CEF30060002879
:100F7000B6D0012240230120636584F83520BDE806
:100F8000F081000070B590F834C0BCF1010F46D07C
:100F90004FF0010C80F834C0D0F858E090F835C01C
:100FA000BCF1010F38D14FF0020C80F835C04FF082
:100FB000000CC0F854C0D0F800C08468056CC06D47
:100FC000DCF80060402C26F48026CCF80060CCF8D9
:100FD00004300B4604BF13460A463F2101FA00F0D5
:100FE000CCF80830CCF80C20CEF80800DCF8000073
:100FF00040F01600CCF800002DB1DCF8000040F005
:101000000800CCF80000DCF8000040F00100CCF84B
:101010000000002070BD00BF002180F834100220C5
:1010200070BD0000B0B5044600F0FAF8054640F285
:101030000000C2F200000078611C18BF044400BF29
:1010400000F0EEF8401BA042FAD3B0BD2DE9F04FFE
:1010500082B000F13E4241F6004502F1FF77C4F252
:10106000020508224FEAB726A84208BF0722072E2A
:1010700038BF4FEAB7224FF0010A002400274FF093
:101080000008009208E000BF023708F10108202F95
:1010900004F1040400F0B4800E680AFA08F916EAB4
:1010A000090FF1D0D1F804A00AF0030BABF101064F
:1010B000012E17D80322866802FA07FECA6826EABC
:1010C0000E06BA40324382604268CAF3001522EA33
:1010D000090205FA08F54FEA480C6FEA0E062A43A2
:1010E00042600BE00322BA40D643BBF1030FBC467B
:1010F00004D1BC464FF0030B22E000BFC2688D68EC
:10110000324005FA0CF52A43BBF1020FC26017D139
:101110006FF0030202EA5802024404F01C030F2598
:10112000D2F820E005FA03FA0D692EEA0A0E05FA54
:1011300003F343EA0E031362D1F804A00AF0030B91
:1011400002680BFA0CF332401A431AF4403F4FF096
:10115000010A026098D0002243F644030192C4F2CF
:1011600002031A6843F6004E42F480421A601A687D
:10117000C4F2010E02F480420192019A28F00302A7
:101180004FF6084C7244CFF6FF7C52F80C3004F056
:101190000C060F25B540AB43009D05FA06F6334318
:1011A00042F80C30DEF808204B6842EA090643F6A4
:1011B0000C4CDD0258BF22EA0906CEF80860C4F2E2
:1011C000010CDCF800209D0242EA090658BF22EA21
:1011D0000906CCF80060DEF804209D0342EA090607
:1011E00058BF22EA0906CEF80460DEF80020DB03CF
:1011F00042EA090658BF22EA0906CEF8006043E732
:1012000002B0BDE8F08F00000069084018BF01205F
:1012100070470000002A08BF090481617047000080
:1012200044F2B050C2F200000068704740F2000083
:1012300044F2B051C2F20000C2F2000100780A6824
:10124000104408607047000080B543F60040C4F2C7
:101250000200016841F400710160016841F480619D
:101260000160016841F480710160032000F08AF898
:101270000F2000F005F800F027F8002080BD0000E6
:1012800070B540F20006C2F2000640F20801327862
:10129000C2F200014FF47A730968B3FBF2F204461C
:1012A000B1FBF2F1084600F047FB0F2C4FF00105AF
:1012B00008D838B94FF0FF3021460022002500F051
:1012C00035F87460284670BD82B0002043F64001B6
:1012D0000190C4F202014A6842F480424A604A68BE
:1012E00002F480420192019A00900868002240F0C6
:1012F0008050086008680F2100F08050009000982E
:101300006FF0010002B000F011B80000002848BFE3
:10131000704700F01F01012202FA01F14EF20012A3
:101320004009CEF2000242F82010704710B54EF688
:101330000C5CCEF2000CDCF80030C3F3022E8EF011
:101340000704042C28BF0424BEF103034FF0FF3E22
:101350000EFA04F438BF0023A14399400EFA03F3B8
:101360009A43114300F00F02043A624409010C321F
:1013700000F16043B0F1FF3FC8BF03F56442117054
:1013800010BD00004EF60C51CEF200010A684FF677
:10139000FF031A4060F30A2242F0806040F0FD70C3
:1013A000086070472DE9F041002800F08B8043F67B
:1013B0000808C4F202080446D8F8F8030D4600F005
:1013C0000700884207D288F8F853D8F8F80300F0ED
:1013D0000700A84276D12068810717D5410705D5B7
:1013E000D8F8001041F4E051C8F80010010705D505
:1013F000D8F8001041F46041C8F80010D8F8001087
:10140000A26821F0F0011143C8F80010C0073FD1D5
:10141000D8F8F80300F00700A84207D988F8F85375
:10142000D8F8F80300F00700A8424BD12068410724
:1014300007D5D8F80010E26821F4E0511143C8F84C
:101440000010000708D5D8F80000216920F460409A
:1014500040EAC100C8F8000000F07CF8D8F800109D
:1014600045F2B612C1F30311C0F60002515C40F21E
:10147000080220FA01F140F20400C2F20000006804
:10148000C2F200021160FFF7FBFE0020BDE8F08110
:101490006068811E022907D258F8081C89015CBFC8
:1014A0000120BDE8F08111E0012807D158F8081C9F
:1014B00089035CBF0120BDE8F08107E058F8081CF3
:1014C000890703D40120BDE8F08100BFD8F80010DF
:1014D00021F003010843C8F80000FFF7A1FE06460B
:1014E00041F28837D8F80000616800F00C00B0EBDA
:1014F000810F8DD0FFF794FE801BB842F2D90320F4
:10150000BDE8F08140F2080043F60801C2F2000095
:10151000C4F202010068096845F2C612C1F38221D3
:10152000C0F60002515CC8407047000040F208005D
:1015300043F60801C2F20000C4F202010068096823
:1015400045F2C612C1F34231C0F60002515CC840F8
:101550007047000010B543F60404C4F2020460684A
:1015600000F00C0008280BD0042819BF42F20040FC
:10157000C0F2F40047F64000C0F27D1010BD00BF7D
:10158000206821682368490247F64001C0F27D11B6
:1015900000F03F02C3F388105CBF42F20041C0F28A
:1015A000F401A1FB00010023FEF75EFE2168022288
:1015B000C1F3014102EB4101B0FBF1F010BD0000AD
:1015C0002DE9F04182B000286AD00446007843F645
:1015D0000006C007C4F202060BD0B06800F00C0091
:1015E000042840F0A1803068800302D5606800289C
:1015F00056D0207880071AD5B06810F00C0F09D0AB
:10160000B06800F00C00082840F0A8807068400224
:1016100000F1A4803068800702D5E06801283FD13E
:101620003068216920F0F80040EAC100306020787D
:10163000000739D4207840074ED4A5695DB3B0685F
:1016400000F00C00082840F0BD80012D28D0706803
:10165000E16900F480028A4222D1216A00F03F024F
:101660008A421DD147F6C071626A0140B1EB821F08
:1016700016D1A26A0023CFF6FF7303EBC23200F447
:1016800040316FF30F0291420AD1E16A00F07060BD
:10169000B0EB016F04D1002002B0BDE8F08100BFC3
:1016A000012002B0BDE8F0816069002840F200002E
:1016B000C4F2472076D00121C0F8801EFFF7B0FDAC
:1016C000054600BF706F8007B4D4FFF7A9FD401B2B
:1016D0000228F7D9DDE000BF306C10F080580AD145
:1016E00000200190306C40F080503064306C00F08D
:1016F00080500190019847F20007C4F20007386853
:10170000C00541D4386840F480703860FFF788FD28
:10171000054600BF3868C00536D4FFF781FD401B81
:101720000228F7D9B5E000BFB06800F00C00082827
:1017300003D1706840023FF556AF6068B0F5803F56
:1017400007D0B0F5A02F40F08D80306840F48020A5
:101750003060306840F4803030608DE0E068002810
:1017600052D00020C4F2472001210160FFF758FD4C
:10177000054600BF306880073FF552AFFFF750FDC8
:10178000401B0228F6D984E0A068012805D005286E
:101790004ED1306F40F004003067306F40F00100F0
:1017A00030674FE00021C0F8801EFFF739FD054685
:1017B000706F80077FF53EAFFFF732FD401B0228B8
:1017C000F6D966E00027C4F2472700203866FFF705
:1017D00027FD022D05460BD1306880015ED5FFF74D
:1017E0001FFD401B02284FF00300F5D954E700BF4E
:1017F000306880017FF54FAFFFF712FD401B0228D4
:101800004FF00300F4D947E70020C4F2472000213D
:101810000160FFF705FD0546306880077FF507AFDB
:10182000FFF7FEFC401B02284FF00300F4D933E71A
:10183000316F002821F001013167316F21F004017F
:1018400031674DD0FFF7ECFC054641F2883700BF09
:10185000306F800756D4FFF7E3FC401BB842F7D93E
:1018600017E000BF3168002821F480313160316811
:1018700021F4802131604FD0FFF7D2FC054600BF34
:10188000306880033FF5B5AEFFF7CAFC401B642803
:10189000F6D9032002B0BDE8F08100BF04F11C05B9
:1018A0002FCD08430021CFF6FF7140EA821001EBF3
:1018B000C3316FF30F0140EA0560084370600120F7
:1018C0003866FFF7ADFC0446306880013FF5E3AEB3
:1018D000FFF7A6FC001B02284FF00300F4D9DBE65B
:1018E000FFF79EFC054641F2883700BF306F800746
:1018F00008D5FFF795FC401BB8424FF00300F5D91F
:10190000CAE600BFB8F1000F7FF497AE306C20F04C
:101910008050306491E600BFFFF782FC054600BFAF
:10192000306880037FF565AEFFF77AFC401B6428C2
:101930004FF00300F4D9AFE6411E0020B0EB116F69
:101940001CBF012070474EF21002CEF2000251601F
:101950004EF62351CEF20001F0230B700721906068
:10196000116070477047000070470000B0B582B04A
:10197000044600680168C368426901F02F05202D04
:1019800003F0200506D12DB1204602B0BDE8B040DD
:1019900001F0A4BB5FEA017C1EBF02F0010E03F45C
:1019A000907212EB0E0255D1226B012A05D111F073
:1019B000100218BF13F0100236D10A0622D513F018
:1019C00080021FD094F84110212941D1A168B1F5BE
:1019D000805F03D12169002900F08082216A4A1CBE
:1019E000226209784160E18C01390A04E1842FD137
:1019F000C16821F08001C160C16841F04001C1604F
:101A000002B0B0BD490623D513F0400120D0C16813
:101A100021F04001C1602021204684F8411002B02D
:101A2000BDE8B04000F0FABB0021019101680191CE
:101A30004168019101994169490600F18D80A18DAC
:101A4000E28DE38D002B1CBF891A5FEA01420CD1A5
:101A500002B0B0BDCA0718BF13F4807240F03681DF
:101A60004A0700F139813EE1206850E8030F2268FF
:101A700020F4907042E80303DBB1206850E8030FC4
:101A8000226820F4907042E8030393B1206850E884
:101A9000030F226820F4907042E803034BB12068E2
:101AA00050E8030F226820F4907042E80303002BF3
:101AB000DAD1206850E8050F226820F0010042E8E2
:101AC0000503DBB1206850E8050F226820F0010013
:101AD00042E8050393B1206850E8050F226820F022
:101AE000010042E805034BB1206850E8050F226869
:101AF00020F0010042E80503002BDAD1202084F811
:101B0000420000202063206850E8030F226820F084
:101B1000100042E80303DBB1206850E8030F22689D
:101B200020F0100042E8030393B1206850E8030F4F
:101B3000226820F0100042E803034BB1206850E80F
:101B4000030F226820F0100042E80303002BDAD1D3
:101B5000022289B2A3E100BFE26B11684B68A58D38
:101B600099B2002900F09281A94280F08F81E3852B
:101B7000D169B1F5807F00F09D8050E8030F2168A6
:101B800020F4807041E80302E2B1206850E8030FBE
:101B9000216820F4807041E803029AB1206850E87F
:101BA000030F216820F4807041E8030252B12068DD
:101BB00050E8030F216820F4807041E803020AB165
:101BC0002068DAE7206850E8050F216820F001005E
:101BD00041E80502BAB3206850E8050F216820F0FB
:101BE000010041E8050272B3206850E8050F216842
:101BF00020F0010041E805022AB3206850E8050FF3
:101C0000216820F0010041E80502002ADAD11AE03B
:101C1000206850E8050F216820F0400041E80502E7
:101C2000DAB1206850E8050F216820F0400041E853
:101C3000050292B1206850E8050F216820F04000AD
:101C400041E805024AB1206850E8050F216820F0FC
:101C5000400041E80502002ADAD1202084F8420041
:101C600000202063206850E8030F216820F0100056
:101C700041E80302DAB1206850E8030F216820F040
:101C8000100041E8030292B1206850E8030F216878
:101C900020F0100041E803024AB1206850E8030F29
:101CA000216820F0100041E80302002ADAD1E06B3D
:101CB000FEF77AFF02206063A08DE18D401A81B2A9
:101CC000204602B0BDE8B040FFF74CBE626C42F067
:101CD000010262644A0706D5BEF1000F03D0626CB0
:101CE00042F0020262648A0706D5BEF1000F03D0FB
:101CF000626C42F004026264BCF1000F06D555EA42
:101D00000E0203D0626C42F008026264626C002A28
:101D10003FF49EAE11F0200118BF002D03D02046E5
:101D200001F0DCF920684169626C01F0400102F0C9
:101D30000802891800F0A28050E8030F216820F4FF
:101D4000907041E80302C2B3206850E8030F216895
:101D500020F4907041E803027AB3206850E8030F42
:101D6000216820F4907041E8030232B3206850E803
:101D7000030F216820F4907041E80302EAB1206863
:101D8000DAE700BF206850E8050F216820F0010065
:101D900041E80502DAB1206850E8050F216820F01B
:101DA000010041E8050292B1206850E8050F216862
:101DB00020F0010041E805024AB1206850E8050F13
:101DC000216820F0010041E80502002ADAD1206BE9
:101DD000012824D1206850E8030F216820F010006A
:101DE00041E80302DAB1206850E8030F216820F0CF
:101DF000100041E8030292B1206850E8030F216807
:101E000020F0100041E803024AB1206850E8030FB7
:101E1000216820F0100041E80302002ADAD12020D6
:101E200084F84200002020632068416949064FD5AC
:101E300050E8050F216820F0400041E80502AAB3F0
:101E4000206850E8050F216820F0400041E80502B5
:101E500062B3206850E8050F216820F0400041E897
:101E600005021AB3206850E8050F216820F04000F1
:101E700041E80502D2B12068DAE700BF2046FFF74B
:101E800073FD0020606402B0B0BD00BF8D427FF4DE
:101E9000DFADD069B0F5807F7FF4DAAD0222204655
:101EA000626302B0BDE8B040FFF75CBDE06B78B1A3
:101EB00043F2D101C0F600010165FEF7BFFE002824
:101EC0003FF4C6ADE06B016D02B0BDE8B04008471D
:101ED000204602B0BDE8B040FFF746BD216A31F8A8
:101EE000022B6FF35F22426021627CE5002804BF71
:101EF0000120704710B5044690F8410028B9002031
:101F000084F84000204600F021F8242084F84100A5
:101F10002068C16821F40051C160204601F05EF9DB
:101F20002068016921F490410161416921F02A0191
:101F30004161C16841F40051C1600020202160640A
:101F400084F8411084F84210606310BD2DE9F0431D
:101F500087B00446216841F20042C4F20102002029
:101F60009142CDE90500CDE90300029074D041F221
:101F70000000C4F20100814240F09780002643F641
:101F800030000196C4F20200416946F2404841F037
:101F9000100141614169C4F2020801F01001019190
:101FA00001990196016841F001010160006802A9F0
:101FB00000F00100019001984FF4C06002900220EF
:101FC000CDE9030603200590072006900020C4F207
:101FD0000200FFF73BF840F2543508F17800C2F2F6
:101FE00000054FF000674021C5E9000705F1080032
:101FF0004FF4806980E842022846C5E90566C5E9D4
:1020000007666E62FEF70CFF002818BFFEF7EAFABB
:10201000A563AC6340F2F425C2F200052846C5E989
:102020000087C5E90266C5E90496C5E90666C5E903
:102030000866FEF7F5FE002818BFFEF7D3FA252044
:1020400005210022E563AC63FFF770F92520FFF757
:102050005DF907B0BDE8F08343F630010190C4F2AA
:1020600002014A6942F020024A614A6902F02002F4
:102070000192019A01900A6842F004020A6009681C
:1020800001F0040101910199C02102910221CDE9E1
:10209000031003200590082006900020C4F20200DF
:1020A00000F5006002A9FEF7D1FF07B0BDE8F0839C
:1020B000704700002DE9F041044690F841002028C7
:1020C0001CBF0220BDE8F0810F4600294FF001003F
:1020D00000F082801646002A08BFBDE8F0814FF06C
:1020E000000821201D46C4F8448084F84100FFF711
:1020F00097F8A684E684A1680646B1F5805F05D10D
:102100002069002814BF3846B8460746E08CC8B19D
:10211000681C19D0002D61D1216807E017F8010B68
:102120004860E08C0138E084E08C68B30868000601
:102130004CD5002FF2D138F8020B00276FF35F2047
:10214000EEE700BF21681FE0216802E00868000692
:1021500009D40868000606D4086800065CBF086851
:102160005FEA0060F2D51FB117F8010B05E000BF70
:1021700038F8020B00276FF35F204860E08C0138CD
:10218000E084E08C0028E4D1086840061CD4EDB15E
:10219000681C0FD10868400616D40868400613D49E
:1021A0000868400610D4086840064FF00000F1D5DA
:1021B0000FE000BFFFF734F8801BA84208D8206862
:1021C000C16800684006F5D5002002E0FFF728F856
:1021D0000320202184F84110BDE8F081216800BF70
:1021E0000868000608D4FFF71BF8801BA842EFD848
:1021F0002168C868F4E700BF17B117F8010B04E0C5
:1022000038F8020B00276FF35F204860E08C01383C
:10221000E084E08C0028E3D1B6E7000070470000BE
:10222000FEE7000010B584B040F2A41001220021A6
:10223000C2F2000042F2000CC0F60072C4F2010CBF
:102240004FF480330124C0E90A210222039104766D
:1022500080F82010C26180F83040C0E900C3C0E9B6
:102260000211C0E90441FEF767FA002818BFFEF723
:10227000B9F90620CDE900040420029040F2A41030
:10228000C2F200006946FEF7B1F9002818BFFEF758
:10229000A9F9072000900220019040F2A410C2F298
:1022A00000006946FEF7A2F9002818BFFEF79AF968
:1022B00004B010BDB0B584B040F2EC10012500218F
:1022C000C2F2000042F20012C0F60075C4F2010230
:1022D0004FF480330124C0E90A51042503910476A8
:1022E00080F82010C56180F83040C0E90023C0E9C3
:1022F0000211C0E90441FEF71FFA002818BFFEF7DB
:1023000071F90C208DE8310040F2EC10C2F20000AF
:102310006946FEF76BF9002818BFFEF763F90D2038
:1023200000900220019040F2EC10C2F200006946D9
:10233000FEF75CF9002818BFFEF754F9082000905A
:102340000320019040F2EC10C2F200006946FEF753
:102350004DF9002818BFFEF745F909200090042028
:10236000019040F2EC10C2F200006946FEF73EF91F
:10237000002818BFFEF736F904B0B0BD80B582B0B2
:102380000020019043F63000C4F2020001680022F0
:1023900041F4800101600068052100F48000019093
:1023A00001983A20FEF7C2FF3A20FEF7AFFF3B202C
:1023B00005210022FEF7BAFF3B20FEF7A7FF3C20D5
:1023C00005210022FEF7B2FF3C20FEF79FFF4620CA
:1023D00005210022FEF7AAFF462002B0BDE880409A
:1023E000FEF794BF10B542F6E17045F2FC12C0F65C
:1023F0000000C0F60002002100F0C6FF40F27004A9
:10240000C2F20004206042F6D57045F2D812C0F640
:102410000000C0F60002002100F0B6FF606010BDB1
:102420002DE9F04387B0002743F63000CDE905776A
:102430000197C4F20200016840F6004441F0100127
:1024400001600168C4F2020401F0100101910199D8
:1024500001970168A4F5006541F080010160016801
:10246000002201F0800101910199019701684FF06C
:10247000040941F004010160016801F004010191C7
:1024800001990197016841F001010160016801F0C3
:102490000101019101990197016841F00201016078
:1024A000016801F00201019101990197016841F071
:1024B000080101600068042100F008000190019803
:1024C0002846FEF7A7FE20464FF4404100224FF475
:1024D0004048FEF79FFE1B2002AECDE9020704F53F
:1024E000806031460497FEF7B1FD40F22310CDE93C
:1024F0000207A4F5806031460497FEF7A7FD172078
:10250000CDE90207A4F5406031460497FEF79EFD31
:10251000CDF808904FF0010928463146CDE90397E0
:102520000597FEF793FD43F66070CDE9020720465C
:1025300031460497FEF78AFD20463146CDE90289EF
:10254000CDE90477FEF782FD07B0BDE8F083000017
:1025500080B540F2B43041F20001C2F20000C4F292
:10256000010100234FF00C0C4FF4E13280E80E0023
:10257000C0E90333C0E905C3C361FFF7B7FC002816
:1025800008BF80BDBDE88040FEF72CB880B540F2A2
:10259000FC3041F20041C2F20000C4F2010100230C
:1025A0004FF00C0C4FF4E13280E80E00C0E9033329
:1025B000C0E905C3C361FFF799FC002808BF80BDCF
:1025C000BDE88040FEF70EB8FEE7000080B58AB097
:1025D00040F29000C2F200000188242200EE101A9E
:1025E000B8EE400A8DED010A4088642300EE100A1F
:1025F000B8EE400A40F294008DED020AC2F20000EB
:10260000818800EE101AB8EE400A8DED030AC188E9
:1026100000EE101AB8EE400A8DED040A018800EEB3
:10262000101AB8EE400A8DED050A408800EE100A37
:10263000B8EE400A40F694108DED060AC2F2000092
:10264000017A00EE101AB8EE400A8DED070A807B81
:1026500001A900EE100A4FF0FF40099040F2B4309B
:10266000B8EE400AC2F200008DED080AFFF722FD25
:102670000AB080BD00F036B8FEE7000000000000A0
:10268000EFF30980BFF36F8F154B1A681EF0100F20
:1026900008BF20ED108A20E9F04F10602DE90900F5
:1026A0004FF0500080F31188BFF34F8FBFF36F8F4F
:1026B00001F038FF4FF0000080F31188BDE80900F9
:1026C00019680868B0E8F04F1EF0100F08BFB0ECB2
:1026D000108A80F30988BFF36F8F704700BF00BF77
:1026E0009C0000202DE9F04381B040F60048C4F280
:1026F000020808F5806528461021FEF785FDB0FA2E
:1027000080F040F2780740F694144009C2F20007C6
:10271000C2F200043870207228460821FEF774FDCA
:10272000B0FA80F040097870607228460221FEF706
:102730006BFDB0FA80F04009B870A0722846012104
:102740004FF00109FEF760FDB0FA80F04009F87023
:10275000E07240464021FEF757FDB0FA80F0400994
:102760003871207340462021FEF74EFDB0FA80F00C
:102770004009A8F540657871607328460121FEF78D
:1027800043FDB0FA80F04009A8F58066B871A073E7
:1027900030460221FEF738FDB0FA80F04009F871AA
:1027A000E07330460121FEF72FFDB0FA80F04009BA
:1027B0003872207428460221FEF726FDB0FA80F018
:1027C00040097872607428460421FEF71DFDB0FAB6
:1027D00080F04009B872A07428461021FEF714FD5D
:1027E000B0FA80F04009F872E07440464FF40051AE
:1027F000FEF70AFDB0FA80F04009387320754046B4
:102800004FF48051FEF700FDB0FA80F04009787374
:10281000607540464FF40061FEF7F6FCB0FA80F0B8
:102820004009B873A07540464FF48071FEF7ECFC88
:10283000B0FA80F04009F873E07540464FF400713B
:10284000FEF7E2FCB0FA80F040093874207640468A
:102850004FF48061FEF7D8FCB0FA80F0400940F2F6
:10286000A415787460760020C2F20005B87407F1F0
:10287000180128460222FEF7C9F828B187F81290FD
:1028800001B0BDE8F08300BFA86B40F2EC15006812
:10289000C2F200050168042221F01801016007F16D
:1028A0001C012846FEF7B2F820B10220B87401B02E
:1028B000BDE8F083A86BA8F50064006801220168F8
:1028C00021F01801016020460421FEF7A3FC1E2020
:1028D000FEF7A8FB204604210022FEF79BFC6420A3
:1028E000FEF7A0FB204604210122FEF793FC1E20E8
:1028F000FEF798FB204604210022FEF78BFC6420A3
:10290000FEF790FB204604210122FEF783FC1E20E7
:10291000FEF788FB204604210022FEF77BFC6420A2
:1029200001B0BDE8F043FEF77DBB00002DE9F043A8
:1029300081B040F27809C2F2000999F8120040F61D
:1029400094140028C2F2000440F06A8199F8131030
:10295000B9F81800C1B1B9F814100A1A98BF421A90
:1029600092B20B2A38BF0846A9F81400B9F81A1019
:10297000B9F81620531A98BF8B1A9BB20B2B38BF8D
:102980001146A9F8161008E0A9F81400B9F81A10B1
:102990000122A9F8161089F8132020806180B9F867
:1029A0001C00B0F5D37F49D940F68661884217D81C
:1029B00040F2EA71884215D9C0EBC010A0F57B3017
:1029C00040F63131A0F58B70C3F2AE51A0FB01127D
:1029D000801A02EB5000802101EB9020F42815D9D9
:1029E000FF202CE016D042F60051CFF6FF7101EB2C
:1029F000C01047F2A311CAF26E3144F2EC42904289
:102A0000A0FB01101AD3800AF428E9D8A0F17601BE
:102A1000152901D2802012E0752800F273820C285B
:102A20000CD3742800F2BA82C0EBC010A0F275502B
:102A300080B249F691214843800D00E00020A0714A
:102A4000B9F81E00B0F5D77F4AD340F62861884216
:102A500015D840F62901884214D94FF2A931C0EBAC
:102A6000C010CFF6FB7108444AF6AB21CAF6AA2182
:102A7000A0FB0101802000EB9120F42817D9FF2052
:102A80002FE000BF17D042F68011CFF6FF7101EBA7
:102A9000C01048F265328108C4F6F56244F25473FE
:102AA0009842A1FB02101BD3C009F428E7D8A0F17B
:102AB0007601152902D2802013E000BF752800F2AC
:102AC00037820C280CD3742800F26A82C0EBC01045
:102AD000A0F2755080B249F691214843800D00E084
:102AE0000020E071B9F820005F284BD340F6FD715B
:102AF000884218D840F6AD01884217D94BF22D21F3
:102B0000C0EBC010CFF6FB71084443F68B11C1F245
:102B1000EB71A0FB0112801A02EB5000802101EB47
:102B20009020F42816D9FF202DE000BF16D04DF2DA
:102B30000011CFF6FF7101EBC0104EF2CD41CFF284
:102B40007D6145F665329042A0FB01101AD3C00AA0
:102B5000F428E8D8A0F17601152901D2802012E0EE
:102B6000752800F2FB810C280CD3742800F21A821D
:102B7000C0EBC010A0F2755080B249F691214843D5
:102B8000800D00E000202071B9F82200002845D017
:102B900040F6F371884215D840F25571884213D936
:102BA00045F6D541C0EBC010CFF6FC71084448F69D
:102BB000AD61CEF68E51A0FB0101802000EBD1204B
:102BC000F42812D9FF202AE013D048F2C132C10103
:102BD000C1F25272A228A1FB02211FD3C1EBC01087
:102BE00001EB5000800AF428ECD8A0F176011529F9
:102BF00002D2802013E000BF752800F26D810C28FE
:102C00000CD3742800F2C881C0EBC010A0F275503C
:102C100080B249F691214843800D00E000206071A8
:102C200040F60048C4F2020808F5806528461021E5
:102C3000FEF7EAFAB0FA80F040092072207A99F89B
:102C40000010884202D1002704E000BF207A01274B
:102C500089F8000028460821FEF7D6FAB0FA80F07D
:102C600040096072607A99F80110884203D0607A56
:102C7000012789F8010028460221FEF7C5FAB0FABB
:102C800080F04009A072A07A99F80210884203D01F
:102C9000A07A012789F8020028460121FEF7B4FA3C
:102CA000B0FA80F04009E072E07A99F803108842A7
:102CB00003D0E07A012789F8030040464021FEF75F
:102CC000A3FAB0FA80F040092073207B99F8041031
:102CD000884203D0207B012789F804004046202148
:102CE000FEF792FAB0FA80F040096073607B99F8C1
:102CF0000510884203D0607B012789F80500A8F5FC
:102D0000406528460121FEF77FFAB0FA80F04009BD
:102D1000A073A07B99F80610884203D0A07B0127FE
:102D200089F80600A8F5806630460221FEF76CFAA5
:102D3000B0FA80F04009E073E07B99F80710884210
:102D400003D0E07B012789F8070030460121FEF718
:102D50005BFAB0FA80F040092074207C99F80810E2
:102D6000884203D0207C012789F8080028460221E8
:102D7000FEF74AFAB0FA80F040096074607C99F876
:102D80000910884203D0607C012789F80900284691
:102D90000421FEF739FAB0FA80F04009A074A07C53
:102DA00099F80A10884203D0A07C012789F80A000C
:102DB00028461021FEF728FAB0FA80F04009E074A6
:102DC000E07C99F80B10884203D0E07C012789F859
:102DD0000B0040464FF40051FEF716FAB0FA80F0AF
:102DE00040092075207D99F80C10884203D0207D81
:102DF000012789F80C0040464FF48051FEF704FA91
:102E0000B0FA80F040096075607D99F80D10884235
:102E100003D0607D012789F80D0040464FF4006122
:102E2000FEF7F2F9B0FA80F04009A075A07D99F89C
:102E30000E10884203D0A07D012789F80E0040467D
:102E40004FF48071FEF7E0F9B0FA80F04009E075C8
:102E5000E07D99F80F10884203D0E07D012789F8C2
:102E60000F0040464FF40071FEF7CEF9B0FA80F043
:102E700040092076207E99F81010884203D0207EE9
:102E8000012789F8100040464FF48061FEF7BCF935
:102E9000B0FA80F040096076607E99F8111088429F
:102EA00004D137B901B0BDE8F08300BF607E89F876
:102EB0001100A8F50064204604210122FEF7AAF9BA
:102EC0001E20FEF7AFF820460421002201B0BDE825
:102ED000F043FEF79FB900BF8C2855D3F3283FF687
:102EE00071AE4BF69631C0EB8010CFF6FF7101EB5F
:102EF000400080B244F6056148436FF07E0101EB6B
:102F000050508CE68C2841D3F3283FF669AD4BF640
:102F10009631C0EB8010CFF6FF7101EB400080B21C
:102F200044F6056148436FF07E0101EB505086E5A1
:102F30008C282DD3F3283FF6A2AD4BF69631C0EB8B
:102F40008010CFF6FF7101EB400080B244F60561BE
:102F500048436FF07E0101EB5050C2E58C2819D335
:102F6000F3283FF6E0AD4BF69631C0EB8010CFF67C
:102F7000FF7101EB400080B244F6056148436FF0F9
:102F80007E0101EB5050FEE5812048E6812056E5A8
:102F90008120A6E58120F6E57F2040E67F204EE5F2
:102FA0007F209EE57F20EEE500000000000000008D
:102FB000074B19680868B0E8F04F80F30988BFF341
:102FC0006F8F4FF0000080F31188704700BF00BF83
:102FD0009C000020FFF7FAFA012000F093F9F9E7CE
:102FE000FFF7A4FC012000F08DF9F9E780B54EF25F
:102FF0001000CEF200000068FEF718F901F0E4FEC0
:10300000012808BF80BDBDE8804001F0ABBB0000D7
:10301000B0B592B0002443F64000CDE90A44CDE9B2
:1030200008440594CDE90344CDE901440094C4F279
:1030300002000168022541F080510160006800F043
:1030400080500090009847F200000094C4F2000005
:10305000016841F480410160006800F48040009004
:103060000098012006904FF4803007904FF48000C4
:103070000D9019200E904FF4A870CDE90F05042093
:10308000119006A80C95FEF79BFA18B172B600BF16
:10309000FEE700BF0F20CDE901054FF4A0500490DA
:1030A0004FF48050059001A805210394FEF77AF9AA
:1030B00010B172B6FEE700BF12B0B0BD4EF6885038
:1030C000CEF20000016841F4700101607047000019
:1030D000806B0021C185FEF747BC000081B090F8ED
:1030E0004210222920D18368B3F5805F08D101699D
:1030F000002965D000F128010A6803685B680AE0CE
:10310000014651F8282F13B90369002BF5D0036845
:103110005B6803F07F0313700A6801320A60C18D97
:1031200001390A04C18501D001B070470168CA683D
:1031300022F02002CA60CA6822F48072CA604A691A
:1031400022F001024A61202280F8422000224263DC
:10315000036B012B3ED1026351E8031F026821F08B
:10316000100142E803130168DBB151E8031F026854
:1031700021F0100142E80313016893B151E8031FE5
:10318000026821F0100142E8031301684BB151E8D5
:10319000031F026821F0100142E803130168002BAD
:1031A000DAD10A68D20606D5002200920A68009297
:1031B000496800910099818D01B0FEF7D3BB00BF33
:1031C0000168826A49686FF35F2122F8021B8262FC
:1031D000A5E700BF01B0FEF76BBF000010B50446C5
:1031E0000068D4E902C22369016921F44051114306
:1031F0000161626943EA0C01E3691143C268194342
:1032000049F20C639A431143C1604169A26921F4F8
:10321000407141F20043114340F48062C4F2010363
:103220009A42416102D1FEF781F901E0FEF76AF9A5
:10323000E16963681922B1F5004FA0FB02011FD1BB
:103240005A00DB0FFDF710F848F21F51C5F2EB11E1
:10325000A0FB01235A096FF0630302FB0300322332
:1032600003EBC000A0FB01014FF4F87000EA11105D
:1032700000EB0210C1F3421108442168886010BDC0
:103280009A009B0FFCF7F0FF48F21F51C5F2EB11BB
:10329000A0FB01235A096FF0630302FB03003223F2
:1032A00003EB0010A0FB0101F02000EA511000EB3D
:1032B0000210C1F3431108442168886010BD00006A
:1032C00040F2B430C2F20000FEF750BBFEE700004F
:1032D000FDF7BAFFFFF79CFEFFF7A2F8FFF74EF8E5
:1032E000FEF7A0FFFEF7E6FFFFF732F9FFF74EF912
:1032F000FFF7C0F900F016F8FFF774F800F026F8B1
:10330000FEE70000EFF3058100291CBF6FF0050008
:103310007047002804BF0020704780B500F0B8FF58
:10332000002080BDEFF3058000281CBF6FF0050072
:10333000704740F2A010C2F200000168002911BFDE
:103340004FF0FF30012101600020704710B5EFF30E
:10335000058000281CBF6FF0050010BD40F2A010D2
:10336000C2F20000016801291CBF4FF0FF3010BD00
:103370004EF61F51CEF2000100240C7002210160B4
:1033800001F050F8204610BDF0B585B08C46002302
:103390000493EFF3058140B139B94AB19469002C27
:1033A00008BF1824382C15D90023184605B0F0BDE5
:1033B00000218023182404AF9AB263460094019739
:1033C00001F096FC01280CBF049B0023184605B0B1
:1033D000F0BD00BF1179C90720D15669D2E9025763
:1033E0004FEA960E1168002E734608BF80238DB1F8
:1033F0005C2F13D312690023002A18BF002ED4D0EB
:10340000CDE9004272466346029501F0A1FC05B089
:10341000F0BD00BF17B91269002ACCD000231846AE
:1034200005B0F0BD2DE9F041044600F0EFFD40F29B
:103430009C06C2F20006F06840F234550130F0609C
:103440003068C2F2000558B13069002840F00781A9
:103450003068E16AC06A884298BF3460FFE000BF0C
:103460003460F068012840F0FA80284600F074FDCE
:1034700005F1140000F070FD05F1280000F06CFD6E
:1034800005F13C0000F068FD05F1500000F064FD1E
:1034900005F1640000F060FD05F1780000F05CFDCE
:1034A00005F18C0000F058FD05F1A00000F054FD7E
:1034B00005F1B40000F050FD05F1C80000F04CFD2E
:1034C00005F1DC0000F048FD05F1F00000F044FDDE
:1034D00005F5827000F040FD05F58C7000F03CFDB4
:1034E00005F5967000F038FD05F5A07000F034FD8C
:1034F00005F5AA7000F030FD05F5B47000F02CFD64
:1035000005F5BE7000F028FD05F5C87000F024FD3B
:1035100005F5D27000F020FD05F5DC7000F01CFD13
:1035200005F5E67000F018FD05F5F07000F014FDEB
:1035300005F5FA7000F010FD05F5027000F00CFDC5
:1035400005F5077000F008FD05F50C7000F004FDAE
:1035500005F5117000F000FD05F5167000F0FCFC9B
:1035600005F51B7000F0F8FC05F5207000F0F4FC88
:1035700005F5257000F0F0FC05F52A7000F0ECFC74
:1035800005F52F7000F0E8FC05F5347000F0E4FC60
:1035900005F5397000F0E0FC05F53E7000F0DCFC4C
:1035A00005F5437000F0D8FC05F5487000F0D4FC38
:1035B00005F54D7000F0D0FC05F5527000F0CCFC24
:1035C00005F5577000F0C8FC05F55C7000F0C4FC10
:1035D00005F5617000F0C0FC05F5667000F0BCFCFC
:1035E00005F56B7000F0B8FC05F5707000F0B4FCE8
:1035F00005F5757000F0B0FC05F57A7000F0ACFCD4
:1036000005F57F7000F0A8FC05F5826000F0A4FCD1
:1036100005F2244000F0A0FC05F5876000F09CFC5A
:1036200005F24C4000F098FC40F27818C2F2000815
:10363000404600F091FC08F11407384600F08CFC7D
:1036400006F1640000F088FC06F13C0000F084FC08
:1036500006F1500000F080FCC6F81C8037627068EC
:10366000716A421CE06A72608842626488BF70625C
:1036700000EB800005EB8000211D00F0AFFC00F0A6
:10368000E9FC306988B13068E16AC06A884228BFC5
:10369000BDE8F0814EF60450CEF200004FF08051AC
:1036A0000160BFF34F8FBFF36F8FBDE8F081000063
:1036B00040F29C0540F234564EF60458C2F2000522
:1036C000C2F20006CEF200084FF0805703E000BFC0
:1036D000204600F0D7FCA868D0B100F097FCA86C99
:1036E000C468201D00F00AFCE8680138E860A8689A
:1036F0000138A86000F0AEFC94F859000228EAD026
:103700000128E5D070B9206B00F0BCFCE0E700BFF9
:1037100030680228DFD3C8F80070BFF34F8FBFF3C3
:103720006F8FD8E74FF0500080F31188BFF36F8F91
:10373000BFF34F8FFEE700002DE9F0470A9C824659
:10374000206B16460F46DDE908599100A5229846E0
:10375000FCF747FE206B002F00EB8600A0F1040071
:1037600020F0070656D0387884F8340038780028DE
:103770004BD0787884F835007878002845D0B87830
:1037800084F83600B87800283FD0F87884F83700FD
:10379000F878D0B3387984F838003879A8B37879D4
:1037A00084F83900787980B3B87984F83A00B87928
:1037B00058B3F87984F83B00F87930B3387A84F854
:1037C0003C00387A08B3787A84F83D00787AE0B122
:1037D000B87A84F83E00B87AB8B1F87A84F83F0035
:1037E000F87A90B1387B84F84000387B68B1787BF8
:1037F00084F84100787B40B1B87B84F84200B87B04
:1038000000281CBFF87B84F84300002084F84300A4
:1038100003E000BF002084F834000027201D372D6E
:1038200028BF3725E562C4E9135700F0A1FB04F176
:10383000180000F09DFBC5F13800A06130465146EC
:10384000424624616462676584F8587000F042FB68
:10385000B9F1000F206018BFC9F80040BDE8F0873B
:1038600008480068006880F308884FF0000080F383
:10387000148862B661B6BFF34F8FBFF36F8F00DF5E
:1038800000BF000008ED00E081B00020009040F291
:103890000C00C2F2000000684FF0500181F3118863
:1038A000BFF36F8FBFF34F8F013007D0FEE700BF2C
:1038B000009830B9009820B9009810B900980028F5
:1038C000F6D001B07047000088B040F2141AC2F27E
:1038D000000A0DF11009EB46DAF8080005681DB181
:1038E000C068046801E000BF002400F013FE01F08E
:1038F0007BFADAF810100646884220D3002DCAF869
:10390000106051D0A6424FD301F076FBDAF80800E0
:10391000C068C7683D1D284600F0F0FA97F82800F7
:10392000410745D400F0FE0087F8280084E000BF7E
:103930006860DAF8080039462D6100F01DFBDAF8FE
:103940000800016831B3C068C56804682F1D384697
:1039500000F0D4FA296A2846884795F828004007DD
:10396000EDD5A8692044A042E2D8DAF8000000288A
:1039700000F04881002004A931C101F025FADAF8ED
:10398000000049460022002300F074FF0028D6D131
:1039900038E100BFDAF80C10CAF81060CAE902106A
:1039A00001F02AFB1AE100BF65B1002210E000BF60
:1039B000B8693F610119B14279601FD90AF1080065
:1039C00021E000BFDAF80C000068B0FA80F042098C
:1039D000DAF80000A11B00F031FC01F00DFB00281B
:1039E00040F0FC804EF60450CEF200004FF08051C3
:1039F0000160BFF34F8FBFF36F8FEFE0311B814248
:103A000006D20AF10C000068294600F0B5FA13E06E
:103A1000DAF80000002800F01381002004A991C109
:103A200001F0D2F9DAF8000049460022002300F044
:103A300021FF002800F00481396A38468847CDE02C
:103A40000098B0F1FF3F07DCDDE9012003999047C2
:103A50000098002800F1C280029E706910B1301DEC
:103A600000F04CFA01F0C0F9DAF81010074688426D
:103A70000DD30098CAF8107009283FD9AEE000BFF6
:103A80006860DAF8080021462D6100F075FADAF86E
:103A90000800016841B3C068C568D0F800802C1DDB
:103AA000204600F02BFA296A2846884795F8280016
:103AB0004007ECD5A86940444045E1D8DAF8000059
:103AC000002800F095800020CDE90408069501F05B
:103AD0007BF9DAF8000049460022002300F0CAFE14
:103AE0000028D4D184E000BFDAF80C10CAE9021033
:103AF0000098CAF81070092800F27080DFE800F022
:103B00000606064448620606444800BF96F82800A8
:103B1000019A40F00101B06986F8281083183146F7
:103B200041F8043FBB42366106D997420AF10800CA
:103B300007D293420AD204E0BA1A824206D20AF1AC
:103B40000C00006800F018FA48E000BF316A304607
:103B5000884796F82800400740D5DAF8000000288A
:103B60005AD00198B169069608440021CDE90410A5
:103B700001F02AF9DAF8000049460022002300F09B
:103B800079FE58BB48E000BF96F8280022E000BF4D
:103B900096F8280040F00101019886F828100028C6
:103BA000B06143D0384431460AF10C0241F8040FA9
:103BB0003661B84288BF0AF10802106800F0DCF9EB
:103BC0000CE000BF96F82800810703D4304600F0CF
:103BD00059FA03E000F0FE0086F82800DAF8000049
:103BE0005946002200F05CFF00287FF429AF73E6FD
:103BF0004FF0500080F31188BFF36F8FBFF34F8FEA
:103C0000FEE700BF4FF0500080F31188BFF36F8FC5
:103C1000BFF34F8FFEE700BF4FF0500080F31188D5
:103C2000BFF36F8FBFF34F8FFEE700BF4FF0500021
:103C300080F31188BFF36F8FBFF34F8FFEE700BF94
:103C40004FF0500080F31188BFF36F8FBFF34F8F99
:103C5000FEE70000F0B581B0044600F0D7F994F912
:103C60004560012E0FDB04F1240500BF286850B128
:103C7000284601F087F9002818BF00F053FBF0B286
:103C8000013E0128F2D8FF2684F8456000F0E2F9F1
:103C900000F0BCF994F94470012F0EDB04F110051B
:103CA000286850B1284601F06DF9002818BF00F0CF
:103CB00039FBF8B2013F0128F2D884F8446001B022
:103CC000BDE8F04000F0C6B970B5044600F022FC33
:103CD00040F2501CC2F2000CDCF8040050B19CF819
:103CE0000000002818BF4FF000404FF000057CBBDB
:103CF0008DE000BF40F6AE10C2F20000C21D22F0FF
:103D0000070210F00701A0EB020318BF10460022C3
:103D10004FF47055CCE90602002918BF03F5705521
:103D20004119083921F00701CCF80410C1E900223B
:103D3000DCF80420091AC0E9002101208CF80000F9
:103D40004FF00040CCE90211002C4FF000055ED08E
:103D500020405CD104F1100020F00702600708BF8A
:103D600004F10802002A4FF0000550D0DCF80800EA
:103D700082424CD8604650F818EFDEF80450954265
:103D80002BD2DEF80010B9B174464D68954217D2B7
:103D90000B68ABB15D68954216D21868A0B1456852
:103DA000954215D204689CB16568954214D2216889
:103DB000A6460029E9D110E00CF118000DE000BF83
:103DC0008E46204609E000BF9E46084605E000BF3B
:103DD0008646184601E000BFA646DCF804108E4572
:103DE00014D00168DEF80040AB1A112B04604DD3EB
:103DF0000EEB0205680719D04FF0500080F31188D0
:103E0000BFF36F8FBFF34F8FFEE700BF002501F0B8
:103E1000F3F868075BD04FF0500080F31188BFF3D0
:103E20006F8FBFF34F8F00BFFEE700BF0CF118008C
:103E30006B60CEF8042000BF0368AB420AD218685A
:103E4000A8420BD20368AB4204D218681A46A842B3
:103E5000F2D304E00246184601E000BF1A46536858
:103E60006C68D618AE4202D11C44154654602B191A
:103E7000834207D1DCF80430984203D0D0E9000334
:103E800023446B60AA42286018BF156001F1080541
:103E9000DEF80400DCE90212091A9142CCF808109D
:103EA00038BFCCF80C109CF80010002918BF40F067
:103EB0000040CEF80400DCF8100000210130CEF8FC
:103EC0000010CCF8100001F097F86807A3D128463D
:103ED00070BD0000034643F68900C0F600004FF0B5
:103EE000807C21F0010103E903106FF0020043F828
:103EF000240CA3F1440043F8202C7047D0E9013290
:103F000001699A60D1F804C082688445536008BF93
:103F10004A6000220261086801380860086870473A
:103F200044F2B473C2F20003036044F2B450C2F22C
:103F300000000860802010607047000044F61043C5
:103F4000C2F20003036044F61000C2F200000860F1
:103F50004FF48070106070474FF0FF31024642F816
:103F6000081F00214260C0E9032201607047000081
:103F7000002101617047000010B5D1F800E01EF18A
:103F8000010213D000F1080462681368734511D868
:103F900053681C68744511D85A68146874450FD862
:103FA00054682368A4467345EED90BE00269D2F841
:103FB00004C007E09446224604E000BF9C4601E0AE
:103FC00094461A46C1F804C0CCF808108A605160C3
:103FD000086101680131016010BD0000D0F800C027
:103FE000436808619A684B608A609A68996051607A
:103FF0000CF1010101607047DFF80C00016841F429
:10400000700101607047000088ED00E04FF0500043
:1040100080F31188BFF36F8FBFF34F8F40F20C0016
:10402000C2F2000001684A1C026009B1704700BF7B
:104030004EF60450CEF200000068000608BF70473C
:104040004FF0500080F31188BFF36F8FBFF34F8F95
:10405000FEE7000040F20C00C2F20000016839B136
:104060000139016018BF7047002080F31188704744
:104070004FF0500080F31188BFF36F8FBFF34F8F65
:10408000FEE7000070B5002808BF70BD40F2501573
:10409000C2F200050446287854F8041C002818BF12
:1040A0004FF0004008420DD0A4F1080632689AB1E2
:1040B0004FF0500080F31188BFF36F8FBFF34F8F25
:1040C000FEE700BF4FF0500080F31188BFF36F8F01
:1040D000BFF34F8FFEE700BF21EA000044F8040C55
:1040E00000F018FA54F8041CA8680844A86005F108
:1040F000180000BF0368B3420AD21868B04225D244
:104100000368B34204D218681A46B042F2D301E001
:10411000024618465368D418B44202D119441646D0
:1041200051607318834206D16B68984203D0D0E97E
:10413000000319447160B242306018BF16606869AC
:1041400001306861BDE8704000F056BF1A46536800
:10415000D418B442E5D1E1E74EF21000CEF20000EF
:1041600000210160816040F20801C2F2000109688B
:1041700044F6D352C1F26202A1FB02124FF0FF31AA
:1041800001EB9211416007210160704744F66C4CCD
:10419000C2F2000CDCF8002022B3634653F8082F6B
:1041A00042B3634653F8102F52B3634653F8182FA7
:1041B00062B3634653F8202F72B3634653F8282F37
:1041C00082B3634653F8302F92B3634653F8382FC7
:1041D000002A18BF7047072219600CEBC201486023
:1041E000704700BF0022634619600CEBC2014860B3
:1041F000704700BF012219600CEBC2014860704794
:10420000022219600CEBC20148607047032219605A
:104210000CEBC20148607047042219600CEBC2012C
:1042200048607047052219600CEBC2014860704776
:10423000062219600CEBC2014860704770B5154644
:104240000E460446FFF7E2FE94F84400FF2804BF40
:10425000002084F8440094F84500FF2804BF0020A3
:1042600084F84500FFF7F6FEA06B28B12046BDE8B4
:104270007040FFF7EFBC00BF04F1240031462A462E
:1042800000F092F82046BDE87040FFF7E3BC000064
:1042900070B588B340F29C05C2F200050446686917
:1042A00050B14FF0500080F31188BFF36F8FBFF310
:1042B0004F8F00BFFEE700BF686901306861AE69DB
:1042C00028680430FFF71AFE2868A419446005D353
:1042D000286A29680431FFF74FFE08E0E869296879
:1042E0000431FFF749FEE86A844238BFEC6200F00F
:1042F00083FE002818BF70BD4EF60450CEF20000B9
:104300004FF080510160BFF34F8FBFF36F8F70BDCF
:1043100040F29C01C2F200018A6B0260896941602F
:104320007047000040F29C00C2F2000001210163CE
:104330007047000070B5D8B140F29C04C2F200048E
:104340000D4621681831FFF717FEA6692068043072
:10435000FFF7D4FD681C15D02068AD19456019D34E
:10436000206A21680431BDE87040FFF705BE00BF38
:104370004FF0500080F31188BFF36F8FBFF34F8F62
:10438000FEE700BF54F8500B011D2046BDE8704009
:10439000FFF724BEE06921680431FFF7EDFDE06A14
:1043A000854238BFE56270BDF0B581B0C0B140F262
:1043B0009C04C2F200040D46216816461831FFF72E
:1043C0000DFEA76920680430FFF798FD96B154F8F8
:1043D000500B011D204601B0BDE8F040FFF7FEBDC7
:1043E0004FF0500080F31188BFF36F8FBFF34F8FF2
:1043F000FEE700BF2068ED19456007D3206A2168F9
:10440000043101B0BDE8F040FFF7B6BDE0692168B6
:104410000431FFF7B1FDE06A854238BFE56201B0C3
:10442000F0BD000010B588B00020CDE9050006A859
:1044300005A904AAFFF774FD059800283ED0069C44
:10444000002C45D05C21049A079107995C2949D139
:1044500007992063022084F8590007A80021CDE9BC
:10446000001043F2B160C0F6000028A100230294BE
:10447000FFF762F92046FEF7D5FF079840F29C044B
:10448000C2F20004A062B0B100F02EFE411C33D095
:10449000012810D14FF0500080F31188BFF36F8FC7
:1044A000BFF34F8F4FF0FF30E0620120206100200A
:1044B000A06100F095F808B010BD00BF4FF05000AB
:1044C00080F31188BFF36F8FBFF34F8FFEE700BFFC
:1044D0004FF0500080F31188BFF36F8FBFF34F8F01
:1044E000FEE700BF4FF0500080F31188BFF36F8FDD
:1044F000BFF34F8FFEE700BF4FF0500080F31188ED
:10450000BFF36F8FBFF34F8FFEE700BF49444C45A9
:104510000000000040F29C00C2F20000416901313D
:104520004161704780B540F29C0EC2F2000EDEF889
:10453000141019B10121CEF8301080BD0021CEF841
:104540003010DEF8241040F2345C01EB8103C2F23B
:10455000000C5CF823208AB101EB81020CEB820392
:1045600053F8042F5268181D82421A6020D0D06878
:10457000CEF80000CEF8241080BD00BF0CEB830203
:10458000A2F12803E1B15A6922BB012918D01A68A7
:1045900012BB022914D053F8142CFAB903290FD0F6
:1045A00053F8282C0439002AA3F15003EAD0D3E7AA
:1045B00052681A60D068CEF80000CEF8241080BD92
:1045C0004FF0500080F31188BFF36F8FBFF34F8F10
:1045D000FEE700BF0139BFE70239BDE70339BBE79A
:1045E000B0B584B04EF2004CCEF2000C4CF270210B
:1045F000C4F20F11DCF800294B1C9A420AD14FF08B
:10460000500080F31188BFF36F8FBFF34F8F00BF4F
:10461000FEE700BFDCF800298A4209D14FF05000C4
:1046200080F31188BFF36F8FBFF34F8FFEE700BF9A
:104630009CF800100291FF218CF800109CF80010EB
:104640008DF807109DF8071001F0500240F270112C
:10465000C2F200010A7007224A609DF90720B2F1F8
:10466000FF3F69DC032200BFD31C4B609DF80700AD
:1046700040008DF807009DF90700B0F1FF3F23DCF3
:10468000931C4B609DF8070040008DF807009DF9D2
:104690000700B0F1FF3F17DC531C4B609DF807008B
:1046A00040008DF807009DF90700B0F1FF3F0BDCDB
:1046B0004A609DF80700043A40008DF807009DF914
:1046C00007000028D0D4131D032B35D14FF44070C0
:1046D000486002988CF80000DCF8200940F4700073
:1046E000CCF82009DCF8200940F07040CCF8200913
:1046F000FFF732FD40F20C04C2F2000400252560F1
:10470000FFF77AFC4EF63470CEF20000016841F0FB
:1047100040410160FFF7A4F8FFF704FF039520680C
:104720004FF0500181F31188BFF36F8FBFF34F8FAC
:10473000013011D0FEE700BF4FF0500080F3118828
:10474000BFF36F8FBFF34F8FFEE700BF039830B901
:10475000039820B9039810B903980028F6D00020D8
:1047600004B0B0BD80B54FF0500080F31188BFF3A6
:104770006F8FBFF34F8F00F03DFB30B14EF604500A
:10478000CEF200004FF080510160002080F31188CC
:1047900080BD000070B582B070B11C46B3B1F9B9EC
:1047A000F2B14FF0500080F31188BFF36F8FBFF369
:1047B0004F8F00BFFEE700BF4FF0500080F311881D
:1047C000BFF36F8FBFF34F8FFEE700BF4FF0500076
:1047D00080F31188BFF36F8FBFF34F8FFEE700BFE9
:1047E00051B14AB94FF0500080F31188BFF36F8F79
:1047F000BFF34F8FFEE700BF50230193019B502B67
:104800002ED1019B069E0123002984F8463014BF57
:1048100022602460C4E90F01FFF7F8FB2068D4E9A7
:104820000F12002502FB0103013901FB0201A56300
:10483000C4E90103FF20E16084F8440084F84500E6
:1048400004F11000FFF788FB04F12400FFF784FB5C
:10485000FFF700FC204684F84C6002B070BD00BF3A
:104860004FF0500080F31188BFF36F8FBFF34F8F6D
:10487000FEE700002DE9F04F83B00292C0B11D4663
:1048800017460E460446E9B1022D03D1E06B01281C
:1048900040F0888000F098FA10BB0FB34FF0500042
:1048A00080F31188BFF36F8FBFF34F8FFEE700BF18
:1048B0004FF0500080F31188BFF36F8FBFF34F8F1D
:1048C000FEE700BF206C0028DED04FF0500080F3E0
:1048D0001188BFF36F8FBFF34F8F00BFFEE700BF9C
:1048E000FFF794FBA06B022D66D0E16B884263D387
:1048F00004F1100801206F460DF108090DE000BF1A
:104900002046FFF7A7F900F077FBFFF77FFBA06BCE
:10491000E16B88424FF000004ED30299002973D01A
:10492000C00702D03846FFF7F3FCFFF793FBFFF711
:10493000F1FDFFF76BFB94F84400FF2804BF002053
:1049400084F8440094F84500FF2804BF002084F850
:104950004500FFF77FFB3846494600F077F900280D
:1049600058D1FFF753FBD4F838A0D4F83CB0FFF788
:1049700071FBDA45C4D102994046FFF7DBFC2046C3
:10498000FFF768F900F038FB0028BED14EF604505E
:10499000CEF200004FF080510160BFF34F8FBFF3A4
:1049A0006F8FB2E74FF0500080F31188BFF36F8F25
:1049B000BFF34F8FFEE700BFA76B226CD2B19DB350
:1049C000E0683146FBF7C8FCE168206C2268091AF0
:1049D0009142E16003D2A16840420844E060A81E11
:1049E000B0FA80F040093946002F18BF0121084075
:1049F0003F1A26E02068002520BBA06800F07CFA62
:104A0000A56005461EE000BFFFF724FB002003B0B1
:104A1000BDE8F08F2046FFF71DF900F0EDFA002009
:104A200003B0BDE8F08F00BF60683146FBF794FC2F
:104A3000216CD4E9010208449042606001D32068EF
:104A400060600025781CA06354F8240FA0B12046B4
:104A500000F098FA50B14EF60450CEF200004FF03C
:104A600080510160BFF34F8FBFF36F8FFFF7F2FAF2
:104A7000012003B0BDE8F08F002DF7D04EF60450B2
:104A8000CEF200004FF080510160BFF34F8FBFF3B3
:104A90006F8FFFF7DFFA012003B0BDE8F08F000051
:104AA0002DE9F04F83B0029290B116460D460446B0
:104AB000002949D000F088F9A0B99EB14FF050000C
:104AC00080F31188BFF36F8FBFF34F8FFEE700BFF6
:104AD0004FF0500080F31188BFF36F8FBFF34F8FFB
:104AE000FEE700BFFFF792FAD4F838A0BAF1000F42
:104AF00038D0226C52B1D4E902308118E160994279
:104B000024BF2168E1602846FBF726FCAAF10100DA
:104B1000A06354F8100F80B1204600F033FA00284B
:104B200000F086804EF60450CEF200004FF0805127
:104B30000160BFF34F8FBFF36F8F0126FFF78AFA33
:104B4000304603B0BDE8F08F206C0028B2D04FF0A3
:104B5000500080F31188BFF36F8FBFF34F8F00BFFA
:104B6000FEE700BF002E4FF0000662D0EB4658462D
:104B700004F12408FFF7CCFB0DF10809FFF76AFAEE
:104B8000FFF7C8FCFFF742FA94F84400FF2808BF7B
:104B900084F8446094F84500FF2808BF84F8456015
:104BA000FFF758FA5846494600F050F860B12046E1
:104BB000FFF750F800F020FAFFF728FAA76BFFF78D
:104BC00049FA1FBB3CE000BFFFF720FAA76BFFF7D5
:104BD00041FA2FB12046FFF73DF800F00DFA15E03D
:104BE00002994046FFF7A6FB2046FFF733F800F096
:104BF00003FA58B94EF60450CEF200004FF080513F
:104C00000160BFF34F8FBFF36F8F00BFFFF7FEF957
:104C1000D4F838A0BAF1000F7FF46BAF02980028E7
:104C2000ACD10026FFF716FA304603B0BDE8F08F8E
:104C30000126FFF70FFA304603B0BDE8F08F00BF42
:104C40000026304603B0BDE8F08F0000B0B5D8B103
:104C50000D4619B30446FFF7D9F940F29C0CC2F295
:104C6000000CDCF8182029684B1C21D0D4E9000E78
:104C7000DCF83830834221D072451FD30124FFF77E
:104C8000E9F92046B0BD00BF4FF0500080F3118815
:104C9000BFF36F8FBFF34F8FFEE700BF4FF05000A1
:104CA00080F31188BFF36F8FBFF34F8FFEE700BF14
:104CB0000024FFF7CFF92046B0BD00BFA2EB0E02E3
:104CC00091420DD9881A2860DCF838002060DCF8A1
:104CD000180060600024FFF7BDF92046B0BD00BF9A
:104CE000002001242860FFF7B5F92046B0BD000080
:104CF0002DE9F04383B00746900098461546894653
:104D0000FEF7E2FFF8B106465C20FEF7DDFFB8B122
:104D10000446DDE90A100022266384F85920CDE913
:104D20000010384649462A4643460294FEF704FDE1
:104D30002046FEF777FB012003B0BDE8F08300BFFB
:104D40003046FFF79FF94FF0FF3003B0BDE8F08326
:104D500070B586B00B9CCCB10C9E0EB35C2504954F
:104D6000049D5C2D26D1049DDDF828C0022586F81F
:104D7000595005AD3463CDE900C50296FEF7DCFC61
:104D80003046FEF74FFB059806B070BD4FF050005F
:104D900080F31188BFF36F8FBFF34F8FFEE700BF23
:104DA0004FF0500080F31188BFF36F8FBFF34F8F28
:104DB000FEE700BF4FF0500080F31188BFF36F8F04
:104DC000BFF34F8FFEE7000040F29C00C2F20000EC
:104DD000016900290FBF01204069B0FA80F0400945
:104DE00018BF40007047000040F29C00C2F2000073
:104DF000806970472DE9F04381B040F29C06C2F211
:104E00000006706940B1706B002401307063204669
:104E100001B0BDE8F08300BFB06910F10109C6F828
:104E2000189020D3F069006850B14FF0500080F323
:104E30001188BFF36F8FBFF34F8F00BFFEE700BF36
:104E4000F069316AF1613062B06B0130B063F069D2
:104E5000006828B1F069C068C068406802E000BF1F
:104E60004FF0FF30F062F06A40F234588145C2F2F0
:104E7000000801D200242EE0F0690024006813E04D
:104E8000F86A716A884288BF706200EB800008EBA4
:104E900080002946FFF7A2F8F86A3168C96AF2690A
:104EA000884228BF0124106890B1F069C068C768C3
:104EB0003D4655F8040F81450CD32846FFF71EF8F0
:104EC000B86A0028DCD007F11800FFF717F8D7E719
:104ED0004FF0FF30F0623068C06A00EB800058F895
:104EE0002000012888BF0124306B002818BF01244E
:104EF000204601B0BDE8F08370B588B140F29C0651
:104F0000C2F2000604463068A0420BD04FF05000B9
:104F100080F31188BFF36F8FBFF34F8FFEE700BFA1
:104F2000002070BD206D18B3411EE06AE26C21655F
:104F300090424FF0000008BF70BDC1B9251D284642
:104F4000FEF7DCFFE06CC0F13801E062A161716A3C
:104F5000884240F2345188BF706200EB8000C2F298
:104F6000000101EB80002946FFF738F8012070BDF1
:104F70004FF0500080F31188BFF36F8FBFF34F8F56
:104F8000FEE7000070B5C068C5686DB105F1180492
:104F90002046FEF7B3FF40F29C06C2F2000670699D
:104FA00060B106F164001AE04FF0500080F3118800
:104FB000BFF36F8FBFF34F8FFEE700BF2C1D20465E
:104FC000FEF79CFFE86A716A884240F2345188BF5C
:104FD000706200EB8000C2F2000101EB800021460C
:104FE000FEF7FCFFE86A3168C96A884292BF002078
:104FF0000120306370BD00002DE9F04140F29C05B6
:10500000C2F20005686968B1FFF700F86869013805
:105010006861686980B10024FFF71CF82046BDE88C
:10502000F08100BF4FF0500080F31188BFF36F8F05
:10503000BFF34F8FFEE700BFE8680028EBD0686E33
:1050400088B340F23456C2F200064FF0010800BFA8
:10505000286FC76807F11800FEF750FF3C1D204677
:10506000FEF74CFFF86A696A884288BF686200EB05
:10507000800006EB80002146FEF7B0FFF86A296841
:10508000C96A884228BFC5F83080686E0028DFD121
:10509000E869006820B1E869C068C068406801E05C
:1050A0004FF0FF30E8626C6B4CB10126FFF7A2FEB7
:1050B000002818BF2E63013CF8D100206863286BDC
:1050C0000028A8D04EF60450CEF200004FF08051D8
:1050D0000160BFF34F8F0124BFF36F8FFEF7BAFF5C
:1050E0002046BDE8F081000070B586B0FEF78EFF67
:1050F00040F21416C2F20006306808BB06F1140430
:105100002046FEF729FF06F128052846FEF724FF72
:1051100040F2444240F2E443C6E902450025C2F2AF
:105120000002C2F200030A2010210095FFF732FBB3
:10513000306028B145F23521C0F60001FFF726F8AE
:10514000FEF788FF3068D8B10020CDE9040005A83B
:1051500004A903AAFEF7F2FEDDE903200221059D62
:10516000CDE9001043F6C900C0F6000009A10023F4
:105170000295FFF7EDFD706010B1012006B070BD23
:105180004FF0500080F31188BFF36F8FBFF34F8F44
:10519000FEE700BF546D722053766300F1EE100AF3
:1051A0004FF6FF71C0F2C03120EA010040F04070BC
:1051B000E1EE100A7047000000000000000001024C
:1051C00003040607080900000000010203040006AA
:1051D00010160006101600002B52000800000000F8
:1051E00000000000000000000000000000040000BB
:1051F0001000000000000000000000002052000825
:10520000000000000000000000000000000000009E
:10521000000400002000000000000000000000006A
:1052200072656D6F74655461736B00646562756758
:105230005461736B00546D7251000000605200089D
:105240000000002010000000C40100087052000897
:1052500010000020A0520000E00100080000000043
:1052600001000000100000000024F400AAAAAAAA6D
:040000050800018965
:00000001FF
