:020000040800F2
:10000000884101246D03000811A2000871850008D1
:1000100009A200080108000889E7000800000000A4
:10002000000000000000000000000000A1B800086F
:10003000D11800080000000021A2000879BE0008C5
:100040008B0300088B0300088B0300088B03000858
:100050008B0300088B0300088B0300088B03000848
:100060008B0300088B0300088B030008F1110008C4
:1000700001120008111200082112000831120008B4
:1000800041120008511200088B03000801260008E5
:10009000112600088B0300088B0300088B0300085F
:1000A0008B0300088B0300088B0300088B030008F8
:1000B0008B0300088B0300088B0300088B030008E8
:1000C0008B0300088B0300088B0300088B030008D8
:1000D0008B030008F9DD000809DE00088B03000827
:1000E0008B0300088B030008000000008B0300084E
:1000F0008B0300088B0300088B03000861120008C3
:100100008B0300088B0300088B0300088B03000897
:10011000C1C100088B03000839C000088B03000828
:10012000711200088112000891120008A112000843
:100130008B0300088B0300088B0300088B03000867
:1001400000000000000000000000000000000000AF
:100150008B0300088B0300088B0300088B03000847
:100160008B0300088B0300088B0300088B03000837
:100170008B0300088B0300088B03000800000000BD
:100180008B0300088B030008D1C10008E1C10008FF
:100190008B0300088B0300088B0300088B03000807
:1001A0008B0300088B0300088B030008000000008D
:1001B0008B0300088B0300088B0300088B030008E7
:1001C0008B0300088B030008000000000000000003
:1001D00000000000000000008B0300080000000089
:1001E000000000000000000000000000000000000F
:1001F00000000000000000008B0300088B030008D3
:100200008B0300088B030008000000008B0300082C
:100210008B0300088B0300088B0300088B03000886
:100220008B030008000000008B03000800000000A2
:100230008B0300088B030008000000008B030008FC
:100240008B0300088B0300088B0300088B03000856
:100250008B0300088B0300088B0300088B03000846
:100260008B0300088B0300088B0300088B03000836
:100270008B0300088B0300088B03000800000000BC
:100280008B0300088B0300088B0300088B03000816
:10029000000000008B0300088B0300080000000032
:1002A000000000008B0300088B030008F1C1000868
:1002B0008B0300088B0300088B030008212600082D
:1002C0008B0300088B0300088B03000800F002F882
:1002D00000F03CF80AA090E8000C82448344AAF1A4
:1002E0000107DA4501D100F031F8AFF2090EBAE8A2
:1002F0000F0013F0010F18BFFB1A43F0010318475A
:10030000A4140100C4140100103A24BF78C878C1B5
:10031000FAD8520724BF30C830C144BF04680C600B
:10032000704700000023002400250026103A28BF53
:1003300078C1FBD8520728BF30C148BF0B60704757
:100340001FB511F0D7F81FBD10B510BD00F0AFF903
:100350001146FFF7F5FF0EF00FFE00F0CDF903B4E4
:10036000FFF7F2FF03BC00F0D5F900000A48804710
:100370000A4880470A480047FEE7FEE7FEE7FEE737
:10038000FEE7FEE7FEE7FEE7FEE7FEE70548064973
:10039000064A074B70470000D125000861BF0008DE
:1003A000CD020008882F01248841012488310124CE
:1003B0008831012453EA020C00F069802DE9F04BEA
:1003C0004FF00006002B1FBFB3FA83F503FA05F4C4
:1003D00024FA05F65E4012BF1643B2FA82F502FA1D
:1003E00005F4C5F120051EBF22FA05FC44EA0C0401
:1003F000203556EA044C4FEA144418BF641C4FF0F1
:1004000000084FF00009904271EB030C39D300292A
:1004100019BFB1FA81F701FA07F6B0FA80F700FACE
:1004200007F6C7F120071EBF20FA07FC46EA0C06B4
:100430002037B6FBF4FCA7EB0507103F07F01F0BB6
:10044000CBF120062CFA06F60CFA0BFB44BFB346A0
:100450000026202FA4BF5E464FF0000B5BEA060C7F
:1004600008BF4FF0010B19EB0B0948EB0608ABFB7B
:10047000027C06FB02CC0BFB03CCC01B71EB0C0116
:10048000C1E70B46024641464846BDE8F08B13B52E
:10049000084318BF4FF0FF300146AFF30080BDE8BE
:1004A0001C40704753EA020C23D010B54C1084EA6C
:1004B000530404D54042C1F1000138BF491E1B421C
:1004C00004D55242C3F1000338BF5B1EFFF772FF31
:1004D00014F0804F04D04042C1F1000138BF491EE2
:1004E00014F0004F04D05242C3F1000338BF5B1E2A
:1004F00010BD13B540424FF0000070EB0104B8BFCF
:10050000012001F0004100281CBF6FF000414FF0B6
:10051000FF30AFF300801CBD032A40F2308010F0A2
:10052000030C00F0158011F8013BBCF1020F62448E
:1005300098BF11F801CB00F8013B38BF11F8013B1F
:10054000A2F1040298BF00F801CB38BF00F8013BCC
:1005500011F0030300F07980083AC0F0088051F8E8
:10056000043B083A51F804CBA0E80810F5E7121D47
:100570005CBF51F8043B40F8043BAFF30080D20766
:1005800024BF11F8013B11F801CB48BF11F8012B32
:1005900024BF00F8013B00F801CB48BF00F8012B55
:1005A000704702F0FF0343EA032242EA024200F0EE
:1005B00024B84FF000020429C0F0128010F0030CA0
:1005C00000F01B80CCF1040CBCF1020F18BF00F846
:1005D000012BA8BF20F8022BA1EB0C0100F00DB8F5
:1005E0005FEAC17C24BF00F8012B00F8012B48BF53
:1005F00000F8012B70474FF0000200B513469446F7
:100600009646203922BFA0E80C50A0E80C50B1F16A
:100610002001BFF4F7AF090728BFA0E80C5048BF7E
:100620000CC05DF804EB890028BF40F8042B08BF1C
:10063000704748BF20F8022B11F0804F18BF00F818
:10064000012B704770477047704710B5203AC0F0D3
:100650000B80B1E81850A0E81850B1E81850A0E895
:100660001850203ABFF4F5AF5FEA027C24BFB1E82E
:100670001850A0E8185044BF18C918C0BDE8104071
:100680005FEA827C24BF51F8043B40F8043B08BF7A
:100690007047D20728BF31F8023B48BF11F8012B41
:1006A00028BF20F8023B48BF00F8012B7047754671
:1006B00000F02CF8AE4605006946534620F00700CE
:1006C000854618B020B5FFF761FEBDE820404FF029
:1006D00000064FF000074FF000084FF0000BAC464B
:1006E000ACE8C009ACE8C009ACE8C009ACE8C00996
:1006F00021F007018D46704710B50446AFF3008026
:100700002046BDE81040FFF72ABE000000487047B1
:100710005800002401491820ABBEFEE72600020065
:100720007047000000000000082801D90120704730
:1007300040F21001C2F20041087000207047000032
:1007400080B540F21002EFF31081C2F2004272B69F
:1007500000294FF0FF011078117000D162B608280F
:100760003FD8DFE800F00509151B21272D313500A2
:100770009FED210A02E000BF9FED1E0AF0EE400A45
:10078000B0EE401AF0EE401A0DF052FF24E000BF28
:100790009FED170A0DF0C8FC1EE000BF9FED130A85
:1007A0000DF09EFF18E000BF9FED0F0A0DF098FFBF
:1007B00012E000BF9FED0B0A0DF092FF0CE000BFAE
:1007C0009FED0A0A06E000BF9FED070A02E000BFA6
:1007D0009FED040A0DF0D0FE40F20431C2F2004158
:1007E000087080BD000007440000E143000087431B
:1007F0000000B4430000344300000000000000008B
:10080000FEE7000000000000844600284FF00000D2
:100810001DD0A1F1090313F1080F18D34FF0000008
:10082000AAB15CF82110002908BF7047D1F82AC08E
:10083000D1E90E3013604B6BD060C2E9013C91F8F6
:1008400040001074B1F84100A2F811000120704777
:100850002DE9F04F81B0044600284FF0010012D07E
:100860008A4681B10A9DA5F1090010F1080F4FF0E9
:10087000010008D31F4633B19346002A1CBF9AF8E3
:100880001712002902D101B0BDE8F08F201D2C21E4
:10089000FFF7B1FE05EB05104FEA800858464146C8
:1008A000FFF7A9FE48F200094FF0000E07F1100211
:1008B0009FED520A9FED521AC4F23B599FED512A07
:1008C0004FF0010C0027C4F800A084F82C50C4E9B4
:1008D00009BE12F8103C581EC1B2072900F28A80E6
:1008E00012ED033A0120B4EE403AF1EE10FACADC00
:1008F000B4EE413AF1EE10FAC5DB12ED023A0120F6
:10090000B4EE403AF1EE10FABDDCB4EE413AF1EE4D
:1009100010FAB8DB12ED014A0120B4EE404AF1EEC4
:1009200010FAB0DCB4EE414AF1EE10FAABDB92ED16
:10093000005A0120B4EE405AF1EE10FAA3DCB4EEF6
:10094000415AF1EE10FA9EDBB5EE403AF1EE10FAA4
:10095000A4BFB5EE404AF1EE10FA94DBB5EE405A72
:100960000120F1EE10FA8EDBB4EE423AF1EE10FA0D
:100970003FF789AFB4EE424AF1EE10FADCBFB4EEB5
:10098000425AF1EE10FA3FF77EAF04EB810050F8C7
:10099000045F7DBB0BEB070504EB910185F820306C
:1009A00052E902364BF8073044371368B845C5E9B9
:1009B0000163C5E9059952F80C3C02F114022B635E
:1009C00085F842E0056081F82DC07FF482AF4EF6D5
:1009D000E9615046C0F6000122460BF03DF80028C0
:1009E0004FF001007FF44FAF84F82F00002001B0DA
:1009F000BDE8F08F012001B0BDE8F08FFFFF7F7FE1
:100A0000FFFF7FFF00401C462DE9F04182B0002827
:100A100000F02B81804690F82F00002800F02581FF
:100A2000D8F82800081A0228C0F01F8198F82C2056
:100A3000C8F82810002A00F0A38002EB0212D8F8B0
:100A40002400920000239FED8A0A4FF0010C9FEDD5
:100A5000891A00249FED8A2A9FED873A9FED894AE3
:100A60009FED865A1BE000BF85F84130EB60B0EE89
:100A7000427A2B612B7795ED066A4434F1EE460AF3
:100A8000B4EE467AF1EE10FAC7FE200A36FE206A6E
:100A9000A242BDEEC66A16EE107AAF8570D0051977
:100AA00095ED096AB5F92860B8EEC66A07EE106AD6
:100AB00095F8406026EE016A002EB8EEC77A86EE01
:100AC000006A87EE007A85ED0E6A85ED0D7ACBD04F
:100AD000EE6B00278E1B152E38BF0127142E85F8CC
:100AE0004170C3D895F84270002FBFD095ED0C7AB5
:100AF00037EE466AB4EE436AF1EE10FA04DDB4EE66
:100B0000456AF1EE10FAB1DB2F7F3FB195ED047A23
:100B100036EE477A87EE047A04E000BFB0EE427A00
:100B200085F81CC0D5ED010A85ED046A66EE200A41
:100B3000D5ED031AE0EE841AD5ED050AF1EE602A30
:100B4000C1FEA22AF4EE601AD5ED001AF1EE10FAF9
:100B500070FEA20AC5ED030AE1EE860AD5ED021A7F
:100B6000E1EE870A95ED067AF1EE471AC0FEA11A6A
:100B7000F4EE470AF1EE10FA37FE217A7BE700BF68
:100B800098F82D00B8B3D8F8040018B1808D010A88
:100B900002E000BF00200021D8F808208DF80010E6
:100BA0008DF8010012B1908D010A01E000200021B2
:100BB000D8F80C208DF802108DF8030012B1908D3A
:100BC000010A01E000200021D8F810208DF804105F
:100BD0008DF8050012B1908D010A01E0002000217E
:100BE0008DF806106A468DF80700D8F800004FF41B
:100BF00000710BF0F5F898F82E00B0B3D8F8140097
:100C000010B1808D010A01E000200021D8F81820E1
:100C10008DF800108DF8010012B1908D010A01E0ED
:100C200000200021D8F81C208DF802108DF8030058
:100C300012B1908D010A01E000200021D8F8202097
:100C40008DF804108DF8050012B1908D010A01E0B5
:100C5000002000218DF806106A468DF80700D8F8AC
:100C6000000040F2FF110BF0BBF802B0BDE8F081CC
:100C7000000010420000343DCDCC4CBECDCC4C3EEB
:100C8000000000006F12033B024600284FF00100F5
:100C90001DD0A1F1090313F1080F18D352F8211048
:100CA000B1B19FED0C1A0120B4EE410AF1EE10FA39
:100CB0000DDC9FED091AB4EE410AF1EE10FAB8BF4F
:100CC0007047012081F84200002081ED0C0A704736
:100CD00001207047FFFF7F7FFFFF7FFF00000000C4
:100CE0002DE9F04740F20C26C2F20046307818B1E8
:100CF0000020BDE8F08700BF06F10C0440F630315B
:100D0000C2F2004120460DF043FD00281CBF012027
:100D1000BDE8F08741F2AC4541F2C067C2F2004540
:100D2000C0F60107284621463A460DF085FED0B9A7
:100D300005F12C0A07F11002504621460DF07CFE09
:100D400088B905F1580807F12002404621460DF008
:100D500073FE40B905F1840907F130024846214687
:100D60000DF06AFE30B120460DF056FE0120BDE8C0
:100D7000F08700BF0120307004F02EFCB0602846E0
:100D80000DF0E2FE50460DF0DFFE40460DF0DCFEB9
:100D900048460DF0D9FE0020BDE8F08700000000B5
:100DA0002DE9F04F85B040F20C24C2F200442078C7
:100DB000012840F0948004F00FFC04F10C06054675
:100DC0003046A1460DF05CFD41F2AC4B4FF00008FF
:100DD000C2F2004B02AF0BF12C0A0BF184040BF1B1
:100DE0005800019005E000BFB8F11F0F08F101089D
:100DF00022D2304639460DF00FFD02281CD00028C3
:100E0000F2D1584639462A460DF04AFE0028EBD169
:100E1000504639462A460DF043FE0028E4D1019899
:100E200039462A460DF03CFE0028DDD120463946E1
:100E30002A460DF035FED7E7584629460DF0E0FE6C
:100E4000504629460DF0DCFE019829460DF0D8FEEB
:100E50002046294600940DF0D3FEB9F90260B9F995
:100E60000470B9F906204C463046394607F084FB39
:100E700000EE100A9FED1B1A07EB06085846B8EE65
:100E8000C00A20EE010ABDEEC00A10EE109AA8EBCF
:100E900009010DF08DFE88B9F61B5046A6EB09013D
:100EA0000DF086FE50B906EB090101980DF080FEA9
:100EB00020B908EB090100980DF07AFEA068281A05
:100EC0000A280CD35846A5600DF03EFE50460DF0A2
:100ED0003BFE01980DF038FE00980DF035FE05B090
:100EE000BDE8F08F9A99D9402DE9F04140F20C23EA
:100EF000C2F200431F78012F27D100EE102A9FED88
:100F0000191A41F2AC480F18C2F200480D46B8EE6B
:100F1000C00A064658804046998020EE010ADA80D1
:100F2000BDEEC00A10EE104A391B0DF041FE60B94B
:100F3000751B08F12C00291B0DF03AFE28B9291960
:100F400008F158000DF034FE10B10120BDE8F08129
:100F5000391908F184000DF02BFE002818BF01207C
:100F6000BDE8F0819A99D940F0B581B040F20C20EB
:100F7000C2F20040017801292CD141F2AC44002199
:100F8000C2F2004441808180C180002120460DF0E2
:100F90000FFE04F12C05002128460DF009FE04F196
:100FA0005806002130460DF003FE04F184070021AD
:100FB00038460DF0FDFD20460DF0C6FD28460DF02B
:100FC000C3FD30460DF0C0FD384601B0BDE8F0402D
:100FD0000DF0BABD01B0F0BD40F22021C2F20041D7
:100FE000CA681AB1824204BF0120487170470000EC
:100FF00070B518B340F220250024C2F20045FF214D
:1010000001220126E8602C70C5F81A40C5F81E4080
:1010100085F82240AC82EC822C83697029462C61D1
:10102000AC70EC702C716C71EC802C7207F094F940
:1010300000281CBF6E710446204670BD012070BDA3
:1010400070B540F22025C2F20045E868002849D07A
:10105000697989B100246C7106F06AFAE868EC805D
:101060002C7238B140F220210122C2F2004107F077
:1010700073F908B101206871EFF3108372B6A87894
:1010800090B3B5F814C00026B5F816E02A8BAE7000
:10109000EE7866B36C780021E97003B962B630B1BE
:1010A0000FFA8CF00FFA8EF112B2FFF71DFF16B196
:1010B0002046FFF739FBE86807F0CAFFE86800F050
:1010C000BBFB04F089FA2979002908BF70BD2969A2
:1010D000401AB0F5FA7F05D900202871BDE87040AC
:1010E000FFF742BF70BD00BFEE78002ED2D1FF24C3
:1010F000002BD4D1D2E70000F0B581B040F220241B
:10110000C2F20044E16800296DD081426BD1217A9E
:10111000227802290AD001293ED0002955D1A52ADA
:1011200056D1A521A176012151E000BFA17994F803
:1011300007C065180131CBB2A1716345AA7647D3C8
:10114000E17E5B293AD05A293FD194F81CC094F82B
:101150002270637F94F81EE0E17F83EA0C0282EA4A
:101160000E0594F8202085EA010694F82150564097
:101170006E40B74229D14CEA0320A0824EEA0120FA
:10118000E08242EA0520208304F026FA2061012053
:10119000A070211DE06816E002F0FE015A2909D175
:1011A0000323E27602215A2AA17108BF0923E371C1
:1011B0000DE000BFA52A08D10AE000BF217F082961
:1011C00003D86170E11C01220A700021E1802172C4
:1011D00038B140F220210122C2F2004107F0BCF8F0
:1011E00008B10120607101B0F0BD000000000000F6
:1011F00040F64020C2F2004001F0CABE00000000EC
:1012000040F6B820C2F2004001F0C2BE000000006B
:1012100040F65010C2F2004001F0BABE00000000DB
:1012200040F6C810C2F2004001F0B2BE000000005B
:1012300040F20860C2F2004001F0AABE00000000C7
:1012400040F29050C2F2004001F0A2BE0000000047
:1012500040F28060C2F2004001F09ABE000000003F
:1012600040F2F860C2F2004001F092BE00000000BF
:1012700040F66000C2F2004001F08ABE00000000AB
:1012800040F6D800C2F2004001F082BE000000002B
:1012900040F27070C2F2004001F07ABE000000001F
:1012A00040F2E870C2F2004001F072BE000000009F
:1012B00040F20F42D0F800C0C4F20202944511DCA3
:1012C0006F22C4F20202944522DC3F22C4F20202E1
:1012D000944539DC1022C4F2020294455AD02822E7
:1012E00054E000BF40F26F42C4F2020294451BDC9E
:1012F00040F23F42C4F2020294452DDC40F210421B
:10130000C4F20202944545D040F228423EE000BFBC
:101310009F22C4F20202944528DC7022C4F2020229
:10132000944537D0882231E040F29F42C4F2020255
:10133000944523DC40F27042C4F20202944529D065
:1013400040F2884222E000BF4022C4F202029445EB
:1013500020D058221AE000BF40F24042C4F20202FC
:10136000944517D040F2584210E000BFA022C4F2CA
:10137000020294450ED0B82208E000BF40F2B84205
:10138000C4F20202944505D040F2A042C4F2020227
:10139000944519D16FF00F024AF6AB2352FA8CF242
:1013A000CAF6AA23A2FB03310AA35F2AC1F30211E2
:1013B0005B5C40F2FF312CEA0101C36588BF043158
:1013C00081650846704700BF2CF0FF018165084623
:1013D000704700BF0006101600061016000000003F
:1013E00070B540F26F44D0F800C0C4F20204D0F8E7
:1013F00058E0A4451ADC9F25C4F20205AC4533DC55
:101400005725C4F20205AC455ADC1025C4F202058A
:10141000AC4500F098802825C4F20205AC4500F0E8
:1014200092804025C4F202058AE000BF45F22F45B4
:10143000C5F60205AC452DDC40F2B745C4F2020505
:10144000AC454BDC40F27045C4F20205AC457AD0A5
:1014500040F28845C4F20205AC4574D040F2A04584
:10146000C4F202056CE000BF40F22745C4F2020559
:10147000AC4543DCA025C4F20205AC4563D0B825D9
:10148000C4F20205AC455ED040F21045C4F202053C
:1014900056E000BF45F26B45C5F60205AC453FDCA2
:1014A00045F23045C5F60205AC454CD045F2444501
:1014B000C5F60205AC4546D045F258453EE000BFB2
:1014C0005825C4F20205AC453DD07025C4F2020592
:1014D000AC4538D08825C4F2020531E040F2B84569
:1014E000C4F20205AC452ED045F20845C5F602050A
:1014F000AC4528D045F21C4520E000BF40F228450D
:10150000C4F20205AC451ED040F24045C4F20205CB
:10151000AC4518D040F25845C4F2020510E000BFB7
:1015200045F26C45C5F60205AC450CD045F2944534
:10153000C5F60205AC4506D045F28045C5F6020564
:10154000AC4540F0CF80456EC66E002E866E6E6054
:101550001CBFD0E91C566E60A44515DC9F24C4F264
:101560000204A4452CDC5724C4F20204A44551DC37
:101570001024C4F20204A4457AD02824C4F2020440
:10158000A44575D040246FE045F22F44C5F602040F
:10159000A44529DC40F2B744C4F20204A44545DC6A
:1015A00040F27044C4F20204A44561D040F2884481
:1015B000C4F20204A4455BD040F2A04454E000BF52
:1015C00040F22744C4F20204A4453FDCA024C4F244
:1015D0000204A4454CD0B824C4F20204A44547D068
:1015E00040F2104440E000BF45F26B44C5F60204EF
:1015F000A44553DC45F23044C5F60204A4455FD04F
:1016000045F24444C5F60204A44559D045F2584475
:1016100052E000BF5824C4F20204A44528D070242C
:10162000C4F20204A44523D088241DE040F2B8444B
:10163000C4F20204A4451BD045F20844C5F60204D6
:10164000A4453DD045F21C4436E000BF40F228449A
:10165000C4F20204A4450BD040F24044C4F2020498
:10166000A44505D040F25844C4F20204A44539D13F
:101670008468C06D00F01F003F2505FA00F0CEF829
:101680000800DCF80000402C20F48020CCF800009A
:10169000CCF8043021D1CCF8082021E045F26C448C
:1016A000C5F60204A4450BD045F28044C5F60204F9
:1016B000A44505D045F29444C5F60204A44511D1D1
:1016C000C46D806804F01F040125402805FA04F465
:1016D000CEF80440CCF80430DDD0CCF80810114628
:1016E000CCF80C1070BD000040F24421C2F2004161
:1016F000CA681AB1824204BF012008717047000015
:1017000070B5D8B140F244250122C2F20045002450
:10171000691D0126E8602C816C812C706C70AC70A6
:10172000EC702C616C612C71AC7106F015FE002818
:101730001CBF2E710124204670BD00BF012070BD6A
:10174000B0B540F24424C2F20044E06808B3217905
:1017500051B100212171A171611D0122012506F005
:10176000FBFD002818BF257103F036FF217831B149
:101770002169411AB1F5FA7F01D900212170617800
:1017800039B16169401AB0F5FA7F98BFB0BD002049
:101790006070B0BD00000000F0B581B040F244249C
:1017A000C2F20044E168002944D0814242D1A279CA
:1017B0006179FAB1A3180132D6B2A271052E197659
:1017C00030D3637E03F0FE01402929D1267E257F98
:1017D000A17EE27E5E404E405640B54220D1402B75
:1017E0000ED0412B1CD1E51C04F11406631C04F13E
:1017F0000A000BE0AA2915D1AA212176012110E0C7
:10180000A51C04F1100604F10800234641EA022158
:10181000018001271F7003F0DFFE30602F70E06849
:101820000021A17120B1611D012206F095FD08B1D2
:101830000120207101B0F0BDF0B583B000283ED08A
:1018400040F24423EFF31082C2F2004372B6044622
:101850009F784FF00006D9781D8958899E70DE70F8
:1018600082B3A9B144F2AA11ADF807108DF80900AE
:10187000010A80EA10208DF80A1080F0EB008DF844
:101880000B000DF1070105221423204606F0CCFDC4
:10189000AFB144F2AA00ADF80700280A8DF80A009B
:1018A00085EA15200DF1070180F0EA008DF80B00A4
:1018B0000522142320468DF8095006F0B5FD03B02B
:1018C000F0BD00BF62B60029CCD1E1E70000000006
:1018D0007047000000000000B0B5002842D090F82A
:1018E0008432002B3ED0C3F1000C00F1A4034FF072
:1018F000030E33F8A04C8C421AD00CEB0E04022CD1
:1019000030D033F8505C8D4218D0012C2AD01D887D
:101910008D4221D034B3B3F850408C4210D00EF138
:10192000040E03F5A0730CEB0E04032CE1D119E0B7
:10193000AEF1030E90F8851229B913E0AEF1020E54
:1019400090F8851271B10EEB8E0100EB01110020B1
:1019500081F85020C864B0BDAEF1010E90F8851238
:101960000029F0D10120B0BD2DE9F04387B078B354
:101970001C4690464FF000025BB3814690F885020A
:1019800038B399F8840248B3434209F1A400002710
:10199000032630F8A02C8A4226D09A19022A1DD09C
:1019A00030F8505C8D4221D0012A17D005888D4235
:1019B00020D09AB1B0F850208A421DD0043600F5EC
:1019C000A0709A190437032A4FF00002E1D100E019
:1019D0000022104607B0BDE8F08300BF0022104689
:1019E00007B0BDE8F08300BFA03808E047F001076A
:1019F000503804E0771E02E047F00307503001A999
:101A00000026C4E90066C4E90266C4E90466C4E9C4
:101A1000066600F0CDFC6076D8B1DDE90201C4E9CC
:101A200001019DF810009DED010A2073BDF8110021
:101A30009FED101AA4F80D00DDE9050180EE010A02
:101A4000A8EB000284ED000A332A206138BF01268A
:101A5000616107EB8700A676012209EB0010B0F860
:101A60005010A4F81B1090F848002076104607B0DC
:101A7000BDE8F08335FA8E3C2DE9F04F81B0814608
:101A800000284FF0010000F09F808A46002900F0F6
:101A90009B80A3F109001F4610F1080F4FF00100D1
:101AA000C0F092809346002A00F08E809AF81712B8
:101AB000002900F089800BF1700400229FEDA90A33
:101AC0009FEDA91AC2EBC2000BEB8003012093ED3E
:101AD000022AB4EE402AF1EE10FA75DCB4EE412A87
:101AE000F1EE10FA70DB93ED032A0120B4EE402AE8
:101AF000F1EE10FA68DCB4EE412AF1EE10FA63DB85
:101B000093ED042A0120B4EE402AF1EE10FA5BDCDA
:101B1000B4EE412AF1EE10FA56DB93ED052A0120CE
:101B2000B4EE402AF1EE10FA4EDCB4EE412AF1EEAA
:101B300010FA49DB93ED062A0120B4EE402AF1EEBB
:101B400010FA41DCB4EE412AF1EE10FA3CDB2146FA
:101B50001046451CBD421DD21D8831F8546CB5425B
:101B600036D0861CBE4215D21E8831F8385CAE4293
:101B70002ED0C61CBE420DD21E8831F81C5CAE426F
:101B800026D00430B84205D21E880D887031AE428E
:101B9000DFD11DE001321C34BA427FF493AF09F16A
:101BA00004084FF421714046FEF725FDBBF80010F4
:101BB0009BF80430BBF802204046C9F800A089F821
:101BC000847200F05DFC38B101B0BDE8F08F00BF59
:101BD000012001B0BDE8F08F0BF1080609F1340CCB
:101BE000012F4FCE8CE80F00C9F844600ED14EF69D
:101BF00011615046C0F600014A4609F02DFF002849
:101C000000F0A880032001B0BDE8F08FBBF81C10E5
:101C10009BF82030BBF81E2009F1540000F030FC86
:101C20000028D1D10BF1240609F1840C022F4FCEEC
:101C30008CE80F00C9F89460D9D0BBF838109BF835
:101C40003C30BBF83A2009F1A40000F019FC002850
:101C5000BAD10BF1400609F1D40C032F4FCE8CE81A
:101C60000F00C9F8E460C2D0BBF854109BF858309C
:101C7000BBF8562009F1F40000F002FC0028A3D1C3
:101C80000BF15C0609F5927C042F4FCE8CE80F0017
:101C9000C9F83461ABD0BBF870109BF87430BBF856
:101CA000722009F5A27000F0EBFB00288CD10BF13B
:101CB000780609F5BA7C052F4FCE8CE80F00C9F8DD
:101CC000846194D0BBF88C109BF89030BBF88E20C8
:101CD00009F5CA7000F0D4FB00287FF475AF0BF152
:101CE000940609F5E27C062F4FCE8CE80F00C9F868
:101CF000D4613FF47CAFBBF8A8109BF8AC30BBF8C4
:101D0000AA2009F5F27000F0BBFB00287FF45CAF5D
:101D10000BF1B00609F5057C072F4FCE8CE80F00BC
:101D2000C9F824623FF463AFBBF8C4109BF8C83015
:101D3000BBF8C62009F50D7000F0A2FB00287FF467
:101D400043AF0BF1CC0709F5197C8FCF8CE88F00DE
:101D50004DE700BF012089F88502002001B0BDE8F1
:101D6000F08F00BFFFFF7F7FFFFF7FFF00000000BD
:101D700010B530B390F884221AB3C2F1000C00F110
:101D8000A4034FF0030E33F8A02C8A421CD00CEBB6
:101D90000E02022A15D033F8504C8C421ED0012A74
:101DA0000FD01C888C422BD05AB1B3F850208A42F5
:101DB00016D00EF1040E03F5A0730CEB0E02032AED
:101DC000E1D1012010BD00BFAEF1030E90F88512E5
:101DD00000294FF0010109D110E000BFAEF1020E61
:101DE00090F8851200294FF0010107D00EEB8E020A
:101DF00000EB0210A0F850100021C164084610BD8D
:101E0000AEF1010E90F8851200294FF00101EDD1DD
:101E1000F4E70000000000002DE9F04F81B02DED47
:101E2000028B8AB0002800F07F80044690F885027B
:101E3000002879D094F88402002875D002A80D46B5
:101E400000F1030B07A800F1030804F151069FED10
:101E5000398A02AF0DF11C094FF0000A481C0190AD
:101E60000DE000BF00F028F900284CD006F8090C5E
:101E700094F884020AF1010A5036824554D216F8C9
:101E8000010C3178814235D10029F1D056F8050C8A
:101E9000281AEDD4A6F11D0056F8151C049156F829
:101EA0000D1C90ED000A56F8190C20EE080A03905C
:101EB00056F8110C4A46CDE90501A6F14D00394608
:101EC0008DED020A00F038F90028CFD1BDF81C10C2
:101ED0002068424609F084FF0146022818BF03200B
:101EE0000029C3D1002006F8090C019846F8050C1A
:101EF000BEE700BF0028A6F14D003946B2D000F081
:101F0000FBF80028B2D1BDF8081020685A4609F045
:101F100067FF0146022818BF03200029A6D116F842
:101F2000010C30700020A1E70AB0BDEC028B01B0BB
:101F3000BDE8F08F35FA8E3CF0B589B0002879D035
:101F40001446002A4FF0010275D0054690F885022C
:101F5000002870D094ED000A9FED535AB4EE450A64
:101F60000122F1EE10FA66DC9FED506AB4EE460AEB
:101F7000F1EE10FA5FDB94ED011A0122B4EE451A7E
:101F8000F1EE10FA57DCB4EE461AF1EE10FA52DB1D
:101F900094ED022A0122B4EE452AF1EE10FA4ADC51
:101FA000B4EE462AF1EE10FA45DB94ED033A012235
:101FB000B4EE453AF1EE10FA3DDCB4EE463AF1EEFD
:101FC00010FA38DB94ED044A0122B4EE454AF1EEF2
:101FD00010FA30DCB4EE464AF1EE10FA2BDB95F83D
:101FE000840258B3C0F1000C05F1A40000270323BC
:101FF00030F8A02C8A4225D00CEB0302022A1DD017
:1020000030F8506C8E421FD0012A17D006888E42BD
:102010001ED09AB1B0F850208A421BD0043300F58C
:10202000A0700CEB03020437032A4FF00102DFD14A
:1020300001E000BF0122104609B0F0BD01221046A8
:1020400009B0F0BDA03808E047F00107503804E0BF
:102050005F1E02E047F0030750309FED155A01A9BB
:1020600020EE050A06AA8DED010A8DED021A8DED0E
:10207000032A8DED043A8DED054A00F05DF8024625
:102080000028D8D107EB8700266994E88E0005EB7D
:10209000001000F1340C46648CE88E000022C2640B
:1020A000104609B0F0BD00BFFFFF7F7FFFFF7FFF3D
:1020B00035FA8E3C00000000024600284FF0010077
:1020C00018BF002900D1704713880020B0EBD32F30
:1020D00002D00120704700BF886048600860128805
:1020E0000A8008228A704FF0FF32C1F80320C1F83D
:1020F0000620FD228A727047024600284FF0010038
:1021000018BF002900D1704713880020B0EBD32FEF
:1021100002D00120704700BF8860486008601288C4
:102120000A8008228A704FF0FF32C1F80320C1F8FC
:102130000620FC228A727047B0B5034600284FF093
:10214000010018BF002901D1B0BD00BF91ED000A08
:102150009FED901AB4EE410A0120F1EE10FAF3DC83
:102160009FED8D2AB4EE420AF1EE10FAECDB93ED0E
:10217000023AB1EE434AB4EE440AF1EE10FAE3DB60
:10218000B4EE430AF1EE10FADEDC91ED010A012013
:10219000B4EE410AF1EE10FAD6DCB4EE420AF1EEEA
:1021A00010FAD1DB93ED033AB1EE434AB4EE440AA0
:1021B000F1EE10FAC8DBB4EE430AF1EE10FAC3DC1C
:1021C00091ED020A0120B4EE410AF1EE10FABBDCF7
:1021D000B4EE420AF1EE10FAB6DB93ED043AB1EE3A
:1021E000434AB4EE440AF1EE10FAADDBB4EE430A12
:1021F000F1EE10FAA8DC91ED033A0120B4EE413A79
:10220000F1EE10FAA0DCB4EE423AF1EE10FAA4BFFF
:10221000B5EE403AF1EE10FA96DB9FED600AB4EEAF
:10222000403AF1EE10FAC8BFB0BD002A4FF00100ED
:102230003FF48AAF91ED043AB4EE413AF1EE10FA70
:102240003FF782AFB4EE423AF1EE10FAA4BFB5EE1A
:10225000403AF1EE10FAFFF677AFB1EE041AB4EEA1
:10226000413AF1EE10FA3FF76FAFB3F800C000202B
:10227000B0EBDC2F02D00120B0BD00BF90605060F9
:10228000106093ED022A91ED004AB1EE423A91EDD1
:10229000016A84FE425AD1ED020AB4EE443A93ED4B
:1022A000034AF1EE10FA86FE447A33FE053AB1EEA7
:1022B000445A32EE033AB4EE465A9FED396AF1EED3
:1022C00010FA23EE063A93ED046A35FE075A32EE11
:1022D000022AB1EE467A34EE055A83EE022A9FEDC9
:1022E000313A34EE044A25EE035AC0FEC61AB4EE63
:1022F000607AD1ED040AF1EE10FA85EE044A37FE59
:10230000215A91ED037A87FE407ADFED271AC0FE4D
:10231000C10A198836EE055A118087FE217A0821F4
:10232000C0FEA10A917025EE035A27EE037A36EE1D
:10233000066A20EE833A87EE000A85EE065A83EE9F
:10234000011ABCEEC22ABCEEC44ABCEEC00ABCEE06
:10235000C53A12EE101ABCEEC11A14EE103A10EE85
:1023600010EA117113EE10CA0D0A11EE104A190984
:102370005171190141EA1E21917121091172210146
:10238000D57082F807E041EA1C21517282F80AC038
:10239000B0BD00BFFFFF7F7FFFFF7FFF0000FA435C
:1023A00000FF7F4700F07F450000000000000000B4
:1023B000F0B50022002818BF002901D11046F0BD59
:1023C00000F11802D0F814C05FEACC7310D1D2F833
:1023D00000E057689668D568146953694B610C61D1
:1023E000CD608E604F60C1F800E043699C4541D0EC
:1023F000D0F814C05FEACC7310D1D2F800E0536873
:102400009468D568166957694F610E61CD608C601C
:102410004B60C1F800E043699C452BD04369DF075E
:1024200012D1D2F800C0D2F804E09568D4681769D8
:1024300056694E610F61CC608D60C1F804E0C1F84F
:1024400000C04769BB4215D04369DF07BAD1D2F853
:1024500000C0D2F804E09568D468176956694E61E7
:102460000F61CC608D60C1F804E0C1F800C047691D
:10247000BB42A7D14A69002A18BF01221046F0BD0D
:10248000F0B581B00F2B05464FF001001CD8DDB12F
:102490000F46114316460022B2EBD12F14D1281D4E
:1024A0002C211C46FEF7A7F800200021C4F248109A
:1024B000A8600020C4F2F011C4F220102F80C5E9FA
:1024C000031000206E802C7101B0F0BD00000000F0
:1024D000B0B54FF0000C002818BF002A02D16046AA
:1024E000B0BD00BF082BFAD143888B4264D111786C
:1024F000037901F00F0199425ED1B2F8011013790E
:10250000547909BA4FEA114ED178D0F814C000EED0
:1025100010EA09010CF1010541EA131103F00F0360
:10252000456104EE101A44EA032190ED021A07EE09
:10253000101AB8EE400A31EE012A90ED033AB8EED7
:10254000444A90ED046A33EE035AB8EE477A76EEC9
:10255000060A22EE000A25EE042A9FED185A20EE04
:10256000874A80EE050A9FED165A82EE052A84EE10
:10257000054A30EE410A80ED060A32EE430A80ED4C
:10258000070A34EE460A80ED080A1178090980F836
:102590002610917980F82410D17980F825100499BB
:1025A0008162C16A0131C1620CF102014FF0010C7C
:1025B00041616046B0BD00BF0020B0BD00FF7F4755
:1025C00000F07F450000000072B600BFFEE700008B
:1025D00044F60400C5F60200816841F00201816002
:1025E0000168890409D4016889045CBF01685FEA55
:1025F000814102D401688904F2D5704700000000CF
:1026000040F63030C2F2004002F092B80000000004
:1026100040F6D030C2F2004002F08AB8000000005C
:1026200040F67040C2F2004002F082B800000000A4
:1026300042F28420C2F20040017841F63860C2F2D2
:102640000040002908BF0846704700000000000055
:1026500042F28420C2F20040017842F24800C2F205
:102660000040002908BF0846704700000000000035
:1026700040F67042C2F20042904218BF704742F2E8
:102680004800C2F2004009F03BBA00000000000020
:1026900040F6D032C2F2004290420DD040F6704275
:1026A000C2F20042904218BF704742F24800C2F2A4
:1026B000004009F041BA00BF41F63860C2F2004064
:1026C00008F082BA00000000B0B542F28425C2F2E0
:1026D0000045297811B10020B0BD00BF044678B193
:1026E000606868B1207A58B1227841F6386040F6C7
:1026F000D031C2F20040C2F2004108F0B1FA08B194
:102700000120B0BD237A42F2480040F67041626871
:10271000C2F20040C2F2004109F06AFA40B141F64B
:102720003860C2F2004008F063FB0120B0BD00BF7A
:10273000012028700020B0BD80B542F28420C2F292
:1027400000400078012818BF80BD41F63860C2F211
:10275000004008F0D5FA42F24800C2F20040BDE85D
:10276000804009F0F5BA000010B542F28424C2F2AC
:1027700000442078012818BF10BD41F63860C2F22D
:10278000004008F035FB42F24800C2F2004009F078
:1027900063FB0020207010BD2DE9F041044602F0DB
:1027A0001BFF3CB3054694F83500022826D1276864
:1027B00040F20F46C4F2020640F26F483868B74252
:1027C00020F0010038606FF00E00C4F202081DDC3A
:1027D0006F21C4F202018F422ADC3F21C4F20201C0
:1027E0008F4241DC1021C4F202018F4263D02821C4
:1027F0005CE000BF0120BDE8F08100BF8020606583
:102800000120002184F83410BDE8F08147451BDC2D
:1028100040F23F41C4F202018F422DDC40F21041F0
:10282000C4F202018F4246D040F228413EE000BF90
:102830009F21C4F202018F4228DC7021C4F2020100
:102840008F4238D0882131E040F29F41C4F202012A
:102850008F4223DC40F27041C4F202018F422AD041
:1028600040F2884122E000BF4021C4F202018F42C1
:1028700021D058211AE000BF40F24041C4F20201C9
:102880008F4218D040F2584110E000BFA021C4F29E
:1028900002018F420FD0B82108E000BF40F2B841DA
:1028A000C4F202018F4206D040F2A041C4F20201FC
:1028B0008F42394607D13946386820F01E0041F86A
:1028C000140B6FF080000A68474500EA02000860B8
:1028D0001ADC9F20C4F20200874233DC5720C4F286
:1028E000020087425ADC1020C4F20200874200F046
:1028F00097802820C4F20200874200F09180402097
:10290000C4F202008AE000BF45F22F40C5F6020083
:1029100087422DDC40F2B740C4F2020087424BDC14
:1029200040F27040C4F20200874279D040F2884001
:10293000C4F20200874273D040F2A040C4F2020009
:102940006CE000BF40F22740C4F20200874243DC43
:10295000A020C4F20200874262D0B820C4F2020074
:1029600087425DD040F21040C4F2020056E000BF42
:1029700045F26B40C5F6020087423FDC45F230402D
:10298000C5F6020087424BD045F24440C5F602002E
:10299000874245D045F258403EE000BF5820C4F27F
:1029A000020087423CD07020C4F20200874237D038
:1029B0008820C4F2020031E040F2B840C4F20200C4
:1029C00087422DD045F20840C5F60200874227D045
:1029D00045F21C4020E000BF40F22840C4F2020053
:1029E00087421DD040F24040C4F20200874217D017
:1029F00040F25840C4F2020010E000BF45F26C40C3
:102A0000C5F6020087420BD045F29440C5F602009D
:102A1000874205D045F28040C5F60200874205D1C5
:102A2000206E016821F48071016000BF3868C00722
:102A300010D002F0D1FD401B0628F7D3202060659E
:102A4000032084F835000120002184F83410BDE80B
:102A5000F08100BF2068B04210DC6F21C4F2020197
:102A600088421DDC3F21C4F20201884234DC10217F
:102A7000C4F20201884255D028214FE040451BDCBA
:102A800040F23F41C4F2020188422DDC40F2104185
:102A9000C4F20201884245D040F228413EE000BF26
:102AA0009F21C4F20201884228DC7021C4F2020195
:102AB000884237D0882131E040F29F41C4F20201C0
:102AC000884223DC40F27041C4F20201884229D0DE
:102AD00040F2884122E000BF4021C4F20201884256
:102AE00020D058211AE000BF40F24041C4F2020158
:102AF000884217D040F2584110E000BFA021C4F234
:102B0000020188420ED0B82108E000BF40F2B8416F
:102B1000C4F20201884205D040F2A041C4F2020191
:102B200088425BD1D4E9161202F01F023F2303FA58
:102B300002F28A6040455BDC9F21C4F202018842B8
:102B400014DC5721C4F20201884227DC1021C4F2B0
:102B50000201884200F0A2802821C4F202018842CA
:102B600000F09C804021C4F2020195E040F2274130
:102B7000C4F2020188421FDCA021C4F20201884293
:102B800000F08C80B821C4F20201884200F08680F7
:102B900040F21041C4F202017EE000BF5821C4F2AD
:102BA000020188427AD07021C4F20201884275D0B5
:102BB0008821C4F202016FE040F22841C4F2020110
:102BC00088426BD040F24041C4F20201884265D095
:102BD00040F25841C4F202015EE000BFD4E916128F
:102BE00002F01F02012303FA02F24A604045A3DD0E
:102BF00045F22F41C5F60201884217DC40F2B74189
:102C0000C4F20201884227DC40F27041C4F20201A2
:102C1000884243D040F28841C4F2020188423DD04C
:102C200040F2A041C4F2020136E000BF45F26B4120
:102C3000C5F6020188421FDC45F23041C5F60201AB
:102C400088422BD045F24441C5F60201884225D086
:102C500045F258411EE000BF40F2B841C4F2020103
:102C600088421BD045F20841C5F60201884215D0C2
:102C700045F21C410EE000BF45F26C41C5F6020171
:102C800088420BD045F29441C5F60201884205D036
:102C900045F28041C5F6020188420BD1616EA26EF9
:102CA000E06E4A6030B1016821F480710160D4E9BE
:102CB0001C014160012084F835000020002184F8C7
:102CC0003410BDE8F081000080B5D8B190F835101F
:102CD000022919D140F20F420168C4F20202914266
:102CE00016DC6F23C4F20203994227DC3F23C4F2AF
:102CF000020399423EDC1023C4F2020399425FD0E2
:102D0000282359E0012080BD80214165012080BD3C
:102D100040F26F43C4F2020399421BDC40F23F438E
:102D2000C4F2020399422DDC40F21043C4F20203C4
:102D3000994245D040F228433EE000BF9F23C4F2B1
:102D40000203994228DC7023C4F20203994237D06F
:102D5000882331E040F29F43C4F20203994223DC0E
:102D600040F27043C4F20203994229D040F28843F2
:102D700022E000BF4023C4F20203994220D058232E
:102D80001AE000BF40F24043C4F20203994217D058
:102D900040F2584310E000BFA023C4F2020399425E
:102DA0000ED0B82308E000BF40F2B843C4F20203DB
:102DB000994205D040F2A043C4F20203994275D172
:102DC00091424FF0040280F8352011DC6F20C4F2EC
:102DD0000200814222DC3F20C4F20200814239DC41
:102DE0001020C4F20200814259D0282054E000BFD4
:102DF00040F26F40C4F2020081421BDC40F23F40CF
:102E0000C4F2020081422DDC40F21040C4F2020004
:102E1000814244D040F228403EE000BF9F20C4F2EF
:102E20000200814228DC7020C4F20200814236D0C8
:102E3000882031E040F29F40C4F20200814223DC4E
:102E400040F27040C4F20200814228D040F2884033
:102E500022E000BF4020C4F2020081421FD058206F
:102E60001AE000BF40F24040C4F20200814216D096
:102E700040F2584010E000BFA020C4F2020081429E
:102E80000DD0B82008E000BF40F2B840C4F2020004
:102E9000814204D040F2A040C4F20200814208689E
:102EA00020F001000860002080BD00BF0A6822F009
:102EB00001020A6045F25742C5F6020291420A68D1
:102EC00022F00E020A600FDC45F22F42C5F6020224
:102ED000914219DC45F20842C5F60202914229D01E
:102EE00045F21C4222E000BF45F27F42C5F60202D5
:102EF000914213DC45F25842C5F60202914219D0C4
:102F000045F26C4212E000BF45F23042C5F60202C3
:102F100091420FD045F2444208E000BF45F294428E
:102F2000C5F60202914205D045F28042C5F6020282
:102F300091421AD1D0E9181CD0E916E30A6822F4AC
:102F400080720A6003F01F01012202FA01F1CEF83B
:102F50000410816ECCF80410C16E31B10A6822F4FD
:102F600080720A60D0E91C124A60012180F8351095
:102F7000026D002180F834100AB190470021084604
:102F800080BD000000000000406D704700000000A0
:102F90002DE9F04782B00021019140F2080104467A
:102FA000C2F2004148F2B512C1F64E32A56D096871
:102FB00040F26F490068C4F20209A1FB02184845BB
:102FC0002E68296816DC9F21C4F2020188422DDC9C
:102FD0005721C4F20201884252DC1021C4F20201DE
:102FE00088427CD02821C4F20201884277D0402157
:102FF00070E000BF45F22F42C5F60202904229DC84
:1030000040F2B742C4F20202904245DC40F2704105
:10301000C4F20201884262D040F28841C4F2020147
:1030200088425CD040F2A04154E000BF40F227410A
:10303000C4F2020188423FDCA021C4F202018842AE
:103040004DD0B821C4F20201884248D040F210416C
:1030500040E000BF45F26B42C5F60202904275DCCB
:1030600045F23042C5F60202904200F0828045F2FD
:103070004442C5F6020290427BD045F2584273E0CA
:103080005821C4F20201884229D07021C4F2020101
:10309000884224D088211DE040F2B842C4F20202E6
:1030A00090421CD045F20842C5F60202904260D020
:1030B00045F21C4258E000BF40F22841C4F2020130
:1030C00088420CD040F24041C4F20201884206D04E
:1030D00040F25841C4F20201884240F05A83E16D47
:1030E000082201F01F0140F20F4A8A40C4F2020A8E
:1030F000324200F0E68050454FF0040312DC6F27A7
:10310000C4F20207B8426FDC3F27C4F20207B8429C
:1031100000F3A4801027C4F20207B84200F0C58073
:103120002827BDE048456BDC40F23F47C4F2020768
:10313000B84200F39B8040F21047C4F20207B84245
:1031400000F0B38040F22847AAE000BF45F26C428D
:10315000C5F6020290420CD045F28042C5F602024A
:10316000904206D045F29442C5F60202904240F0E9
:1031700010830268E36D03F01F0304279F400F4292
:1031800018BF12F0040621D102279F400F4218BF3A
:1031900012F002064CD1D940090740F1FA8212F030
:1031A000080100F0F682016821F00E0101600120A3
:1031B00000FA03F16960606584F835000020E16C75
:1031C00084F83400002940F0DC82E2E211046F60F0
:1031D00026D4910603D4016821F004010160216C1A
:1031E000002940F0CE82D4E29F27C4F20207B84201
:1031F00046DC7027C4F20207B84256D088274FE059
:1032000040F29F47C4F20207B84241DC40F27047E7
:10321000C4F20207B84248D040F2884740E000BFFD
:10322000D00300F1B382216C002940F0AA82B0E201
:1032300011046F6000F1B482910609D4016821F095
:103240000A010160012084F83500002084F8340070
:10325000E16B002940F095829BE200BF4027C4F259
:103260000207B84221D058271AE000BF40F2404779
:10327000C4F20207B84218D040F2584710E000BF2D
:10328000A027C4F20207B8420FD0B82708E000BF59
:1032900040F2A047C4F20207B84206D040F2B84755
:1032A000C4F20207B84218BF082307681F4208D0BB
:1032B000036823F004030360AA60626D42F0010218
:1032C000626501228A4032426FD0504510DC6F2384
:1032D000C4F2020398421DDC3F23C4F20203984269
:1032E00034DC1023C4F20203984256D028234FE066
:1032F00048451BDC40F23F43C4F2020398422DDCF8
:1033000040F21043C4F20203984246D040F22843F0
:103310003EE000BF9F23C4F20203984228DC7023E2
:10332000C4F20203984238D0882331E040F29F4330
:10333000C4F20203984223DC40F27043C4F2020359
:1033400098422AD040F2884322E000BF4023C4F2D2
:103350000203984221D058231AE000BF40F24043B4
:10336000C4F20203984218D040F2584310E000BF64
:10337000A023C4F2020398420FD0B82308E000BF94
:1033800040F2A043C4F20203984206D040F2B84390
:10339000C4F20203984240F0098243691B0604D537
:1033A000AA60626D42F00202626504228A403242E3
:1033B0006FD0504510DC6F23C4F2020398421DDC2D
:1033C0003F23C4F20203984234DC1023C4F2020308
:1033D000984256D028234FE048451BDC40F23F433B
:1033E000C4F2020398422DDC40F21043C4F20203FF
:1033F000984246D040F228433EE000BF9F23C4F2EB
:103400000203984228DC7023C4F20203984238D0A9
:10341000882331E040F29F43C4F20203984223DC48
:1034200040F27043C4F2020398422AD040F288432B
:1034300022E000BF4023C4F20203984221D0582367
:103440001AE000BF40F24043C4F20203984218D091
:1034500040F2584310E000BFA023C4F20203984298
:103460000FD0B82308E000BF40F2A043C4F202032B
:10347000984206D040F2B843C4F20203984240F0AA
:103480009D8103689B0704D5AA60626D42F0040227
:103490006265102202FA01F1314200F0818050454C
:1034A0004FF0080210DC6F23C4F2020398421DDCC7
:1034B0003F23C4F20203984234DC1023C4F2020317
:1034C000984256D028234FE048451BDC40F23F434A
:1034D000C4F2020398422DDC40F21043C4F202030E
:1034E000984246D040F228433EE000BF9F23C4F2FA
:1034F0000203984228DC7023C4F20203984238D0B9
:10350000882331E040F29F43C4F20203984223DC57
:1035100040F27043C4F2020398422AD040F288433A
:1035200022E000BF4023C4F20203984221D0582376
:103530001AE000BF40F24043C4F20203984218D0A0
:1035400040F2584310E000BFA023C4F202039842A7
:103550000FD0B82308E000BF40F2A043C4F202033A
:10356000984206D040F2B843C4F20203984218BF12
:1035700004220368134213D0A9600168490301685B
:1035800008D4C90508D4016821F008010160216C44
:1035900021B905E008034FD4216C09B120468847C2
:1035A000E06D00F01F01202000FA01F2324200F02D
:1035B000AB8020681023504510DC6F27C4F202074F
:1035C000B8421DDC3F27C4F20207B84238DC10279E
:1035D000C4F20207B8425AD0282753E048451BDC02
:1035E00040F23F47C4F20207B84231DC40F21047D4
:1035F000C4F20207B8424AD040F2284742E000BF76
:103600009F27C4F20207B8422CDC7027C4F20207DD
:10361000B8423CD0882735E040F29F47C4F2020709
:10362000B84227DC40F27047C4F20207B8422ED0FD
:1036300040F2884726E000BFA16C0029AED1AFE779
:103640004027C4F20207B84221D058271AE000BF31
:1036500040F24047C4F20207B84218D040F258473F
:1036600010E000BFA027C4F20207B8420FD0B8276D
:1036700008E000BF40F2A047C4F20207B84206D0FB
:1036800040F2B847C4F20207B84218BF02230768E5
:103690001F4239D0AA6094F83520042A02681BD151
:1036A00022F016020260426922F080024261226C1E
:1036B0000AB9A26C1AB1026822F0080202603F2027
:1036C0008840A860012084F83500216D0020002981
:1036D00084F8340055D15CE0510301680ED4C9056B
:1036E0000ED4016821F010010160012084F835003A
:1036F000002084F83400E16B21B905E008034BD4C5
:10370000E16B09B120468847606D002841D0606DAB
:10371000C00734D0042084F8350020684FEA98218F
:10372000026822F001020260019A013201928A428B
:103730001AD80268D20717D0019A013201928A4240
:1037400012D80268D2070FD0019A013201928A4240
:103750000AD80268D20707D0019A013201928A4240
:1037600002D80268D207DFD10068C0074FF003001B
:1037700008BF012084F83500002084F83400E16C93
:1037800039B1204602B0BDE8F0470847A16C0029D6
:10379000F7D102B0BDE8F087616C0029B2D1B3E780
:1037A000D0030DD4616C0029EBD1F2E7026804224A
:1037B0008A4032427FF4FDAD6BE600BF026868E6E6
:1037C000E16B0029DDD1E4E72DE9F041044601F089
:1037D00003FFFCB140F26F4805462068C4F20208BE
:1037E00040451BDC9F21C4F20201884232DC572194
:1037F000C4F20201884259DC1021C4F2020188425D
:1038000000F083802821C4F20201884200F07D800C
:10381000402175E00120BDE8F08100BF45F22F4155
:10382000C5F60201884229DC40F2B741C4F2020128
:10383000884247DC40F27041C4F20201884264D001
:1038400040F28841C4F2020188425ED040F2A041B9
:1038500056E000BF40F22741C4F20201884241DC39
:10386000A021C4F2020188424FD0B821C4F2020163
:1038700088424AD040F2104142E000BF45F26B411D
:10388000C5F60201884200F3BB8045F23041C5F61F
:103890000201884200F0C78045F24441C5F60201AA
:1038A000884200F0C08045F25841B7E05821C4F288
:1038B0000201884229D07021C4F20201884224D03A
:1038C00088211DE040F2B841C4F2020188421CD0B8
:1038D00045F20841C5F60201884200F0A48045F295
:1038E0001C419BE040F22841C4F2020188420CD006
:1038F00040F24041C4F20201884206D040F25841F1
:10390000C4F20201884240F06982022184F8351035
:10391000002184F83410016821F001010160016880
:10392000C90708D001F058FE401B052860D8206860
:103930000168C907F6D148F23F0204F108060168A0
:10394000CFF610621140D4F818C06CCE1143194361
:10395000E3692943256A0E43616A46EA0C06042995
:1039600043EA060343EA050303D1D4E90B65334375
:103970002B43666843F4801526F00302A6F1290E56
:10398000742AA6F14F0208BF2B46A6F13F07473E17
:10399000042A38BF2B46022E38BF2B46042F38BFCF
:1039A0002B46BEF1060F38BF2B460429036042693F
:1039B00022F0070241EA020140F0F280D4E90A5302
:1039C000002B41EA050100F0EB80BCF5005F00F040
:1039D000CD80BCF1000F40F0D580022D00F0D580E5
:1039E000012D00F0C980002D00F0CF80D8E000BF8D
:1039F00020206065032084F835000120BDE8F081B7
:103A000045F26C41C5F6020188420CD045F2804176
:103A1000C5F60201884206D045F29441C5F602017E
:103A2000884240F0DB81022184F83510002184F8BF
:103A300034100168A268A2F18003E768B3FA83F347
:103A4000402A4FEA53134FEA83336FF3101108BF34
:103A50001023226941EAD70167691943A36941EA42
:103A6000D201E26941EAD70141EAD3014CF6CD43E4
:103A700041EAD2014AF6F832CAF2FD72276A0244DC
:103A8000CCF6CC43A2FB032341EA171101606FF08F
:103A9000030000EA9300E0652046FDF709FCE16DB4
:103AA000012201F01F0102FA01F141602068404546
:103AB00040F3858045F22F41C5F60201884217DCAC
:103AC00040F2B741C4F20201884229DC40F2704161
:103AD000C4F20201884200F0BC8040F28841C4F286
:103AE0000201884200F0B58040F2A041ACE000BF86
:103AF00045F26B41C5F60201884223DC45F23041B4
:103B0000C5F60201884200F0A48045F24441C5F6A2
:103B10000201884200F09D8045F2584122E000BF3A
:103B200040F2B841C4F20201884200F0928045F2AE
:103B30000841C5F60201884200F08B8045F21C4125
:103B400010E000BF45F26C41C5F60201884200F06A
:103B5000808045F29441C5F60201884200F07980E8
:103B600045F28041C5F6020170E000BF032D17D871
:103B7000DFE805F00E0B0E02A3F1C072B2FA82F27A
:103B8000520904E0032D03D30AD1C3F300623AB112
:103B900040206065012084F83500BDE8F08100BF59
:103BA00041612046FDF784FBE16D3F2201F01F01DA
:103BB00002FA01F18160206840453FF77BAF9F2109
:103BC000C4F20201884211DC5721C4F2020188428A
:103BD00020DC1021C4F2020188423AD02821C4F22C
:103BE0000201884235D040212EE000BF40F227413B
:103BF000C4F20201884219DCA021C4F20201884209
:103C000027D0B821C4F20201884222D040F21041EC
:103C10001AE000BF5821C4F20201884219D0702175
:103C2000C4F20201884214D088210DE040F22841FC
:103C3000C4F2020188420CD040F24041C4F20201B9
:103C4000884206D040F25841C4F20201884240F056
:103C5000E98045F2574C45F6FC01C5F6020CC5F665
:103C60000201604512DC45F22F42C5F60202904285
:103C700020DC45F20842C5F60202904234D045F2FB
:103C80001C42C5F6020290422ED075E045F27F42FA
:103C9000C5F6020290421BDC45F25842C5F602020C
:103CA000904221D045F26C42C5F6020290421BD0F0
:103CB00062E000BF45F23042C5F60202904213D0E6
:103CC00045F24442C5F6020290420DD054E000BFD6
:103CD00045F29442C5F60202904205D045F2804278
:103CE000C5F60202904247D16FF007024CF6CD4371
:103CF00052FA80F2CCF6CC43A2FB0323A1F1FC05DF
:103D0000A1F17C061B0905EB830503F01F02A368E4
:103D10002566802B4FF0010303FA02F26666A26665
:103D200004D100206060286072601DE06768FBB20B
:103D3000013F072F2B60726016D85E1E082E19D225
:103D4000604501F1440239DC45F22F47C5F6020710
:103D5000B84245DC45F20847C5F60207B84255D0DF
:103D600045F21C474EE000BF00206067C4E91B001D
:103D700058E000BFE06E50E06FF00F024AF6AB2350
:103D800052FA80F2CAF6AA23A2FB032740F20F439D
:103D9000C4F2020308253A09984203F1AA06134621
:103DA00088BF05EB171340F60005B042C4F20205C8
:103DB00005F1800628BF1346A5E700BF45F27F47FF
:103DC000C5F60207B84215DC45F25847C5F60207AA
:103DD000B8421BD045F26C4714E000BF402008E613
:103DE00045F23047C5F60207B8420FD045F24447C6
:103DF00008E000BF45F28047C5F60207B84205D08B
:103E000045F29447C5F60207B84213D101EB83008F
:103E10000121E066B1402267616700210160D4E9B9
:103E20001C01416000206065012184F83510BDE867
:103E3000F08100BF40F60000C4F2020000F1FC0176
:103E400000F5A072E2E70000B0B500283CD00546BE
:103E500090F83400012801D10220B0BD012085F87E
:103E6000340095F83500012828D1022085F8350066
:103E7000002068652868046824F00104046028466E
:103E8000FDF7AEFA40F20F422868C4F2020240F297
:103E90006F419042C4F2020118DC6F23C4F20203A6
:103EA000984225DC3F23C4F2020398423CDC1023F5
:103EB000C4F2020398425ED0282357E04FF400601A
:103EC0006865002085F834000120B0BD88421BDC05
:103ED00040F23F43C4F2020398422DDC40F210430B
:103EE000C4F20203984246D040F228433EE000BFAD
:103EF0009F23C4F20203984228DC7023C4F2020319
:103F0000984238D0882331E040F29F43C4F2020344
:103F1000984223DC40F27043C4F2020398422AD054
:103F200040F2884322E000BF4023C4F202039842DB
:103F300021D058231AE000BF40F24043C4F20203EC
:103F4000984218D040F2584310E000BFA023C4F2BA
:103F5000020398420FD0B82308E000BF40F2B843F4
:103F6000C4F20203984206D040F2A043C4F2020316
:103F7000984240F02F8103680B2464F344030360EC
:103F80002B6C1BB10823046823430360884219DCAF
:103F90009F23C4F20203984232DC5723C4F2020387
:103FA000984259DC1023C4F20203984200F0968034
:103FB0002823C4F20203984200F090804023C4F208
:103FC000020389E045F22F43C5F6020398422DDC37
:103FD00040F2B743C4F2020398424BDC40F2704314
:103FE000C4F20203984279D040F28843C4F202033B
:103FF000984273D040F2A043C4F202036CE000BFC9
:1040000040F22743C4F20203984243DCA023C4F2E7
:104010000203984262D0B823C4F2020398425DD0F2
:1040200040F21043C4F2020356E000BF45F26B4376
:10403000C5F6020398423FDC45F23043C5F6020361
:1040400098424BD045F24443C5F60203984245D00E
:1040500045F258433EE000BF5823C4F202039842A1
:104060003CD07023C4F20203984237D08823C4F2B4
:10407000020331E040F2B843C4F2020398422DD06B
:1040800045F20843C5F60203984227D045F21C4387
:1040900020E000BF40F22843C4F2020398421DD042
:1040A00040F24043C4F20203984217D040F2584312
:1040B000C4F2020310E000BF45F26C43C5F60203F0
:1040C00098420BD045F29443C5F60203984205D0BE
:1040D00045F28043C5F60203984274D12B6E1C68EA
:1040E000E40303D51C6844F480741C60EB6E1BB1C0
:1040F0001D6845F480751D60904211DC6F21C4F28B
:10410000020188421EDC3F21C4F20201884235DCF4
:104110001021C4F20201884255D0282150E000BF8E
:1041200088421BDC40F23F41C4F2020188422DDC90
:1041300040F21041C4F20201884244D040F22841CA
:104140003EE000BF9F21C4F20201884228DC7021BA
:10415000C4F20201884236D0882131E040F29F410A
:10416000C4F20201884223DC40F27041C4F2020131
:10417000884228D040F2884122E000BF4021C4F2AA
:10418000020188421FD058211AE000BF40F240418E
:10419000C4F20201884216D040F2584110E000BF3C
:1041A000A021C4F2020188420DD0B82108E000BF6E
:1041B00040F2B841C4F20201884204D040F2A0416A
:1041C000C4F202018842016841F00101016000204F
:1041D000B0BD00BF0368052464F3430303602B6C88
:1041E000002B3FF4D3AE0423CDE600000000000016
:1041F00090F89830013B012B0ED80068836D0B427C
:1042000012D0836D0B408B4216D1C36D43F0020375
:10421000C3658B0514D418E000F19C010120022233
:104220000B681A430A607047C36D43F00103C3650E
:104230008B0505D409E000BF0323C3658B0504D5B6
:10424000D0F8E0301343C0F8E0304B0504D5D0F887
:10425000E4301A43C0F8E4204FF6FF72436DC3F612
:10426000CF720A401A4342658A0F4AF614010020B1
:10427000C4F200010B681A430A6070470000000096
:104280002DE9F04390F89830022B19D10668D6F842
:10429000C03013F07C5F1DD0D6F8C4309B0223D40D
:1042A000D6F8C4304D68002D0D69C3F3044C8B68FB
:1042B00024D00C682B43234343F0804E22E000BF00
:1042C000D0F89C1041F00801C0F89C100120BDE816
:1042D000F08300BFD0F89C1041F02001C0F89C1082
:1042E0000120BDE8F08300BFD0F89C1041F40071BC
:1042F000C0F89C100120BDE8F08300BF0C682B4380
:1043000043EA844E836ED0F88450D1E907970CFBC2
:1043100003F48B6949EA0767D1F81480D1F80C904F
:104320001F4305EB840347EA080745F824E047EA02
:1043300009475F60CF6887B141F2D855083303322F
:104340000024C0F6010500BF171957F8037C1F5160
:10435000CF680434EF5DBC42F6D3012101FA0CF1C1
:10436000C6F8D010C0F894100020BDE8F08300001B
:10437000704700000000000080B590F89820013AD6
:10438000012A0BD80A68002ACA680FD00B69072ACD
:1043900043EA427E18D18B691BE000BFD0F89C1025
:1043A00041F00201C0F89C10012080BD072A19D1FC
:1043B0000A69D1F81CC012048B6942EA0C221A4324
:1043C00042F0605218E000BFD1F808C04B6943EAE0
:1043D0008C73006F496800EBC10240F831E00020A7
:1043E000536080BD8B68D1F810C09B0743EAC2625E
:1043F0004B6942EA0C421A434968C06E40F82120DA
:10440000002080BD0000000090F898C0BCF1010FB2
:104410000ED19200006842EA0111DDF800C041EAC5
:10442000430141EA0C01C0F880100020704700BF32
:10443000D0F89C1041F00401C0F89C100120704796
:1044400090F89830012B0DD14029006812D1D0F896
:10445000A01021F0004141EAC271C0F8A010002074
:10446000704700BFD0F89C1041F00401C0F89C10C8
:1044700001207047D0F8B01021F0004141EAC2712C
:10448000C0F8B01000207047704700000000000026
:10449000FEF7EEB8000000000068426C02F0070072
:1044A0000860C2F302204860C2F3803302F01800B3
:1044B0008860C2F34010C860C2F380100861C2F384
:1044C000C0104861C2F3C0208861C2F30030C861E7
:1044D000C2F34030C1E90803C2F3064200208A62F9
:1044E0007047000000000000B422402908BFA42249
:1044F0000068805800F07F00704700000000000056
:104500002DE9F04390F89870022F27D140292FD140
:104510000668D6F8A07017F4FE0F00F0C780D6F832
:10452000A4707F0600F0D480D6F8A470D6F8A4500A
:10453000ED01C7F3052E0AD5D6F8A070B7F1FF3FFD
:1045400005DC0EF10107D6F8A06007EA164E00F16F
:10455000740400F14405F4463CE000BFD0F89C1020
:1045600041F00801C0F89C100120BDE8F08300BFB5
:10457000412925D10668D6F8B07017F4FE0F00F077
:104580009580D6F8B4707F0600F0A280D6F8B4709B
:10459000D6F8B450ED01C7F3052E0AD5D6F8B070A1
:1045A000B7F1FF3F05DC0EF10107D6F8B06007EA6E
:1045B000164E00F1780400F14C05F4460AE000BF05
:1045C000076D8F4272D900F17C0400F154054FF061
:1045D000000C8E462D6824680EFB05F504EB850E55
:1045E00054F8257017F08047576054F8257027F06D
:1045F000604608BFC7F38A46166054F8257007F076
:104600000057976054F8254004F000441461BEF848
:104610000440D461BEF8064014F00F04D460DEF804
:10462000044004F480145461DEF8044004F40014DF
:1046300094619EF8074004F07F041462DEF80440A1
:104640004FEAD474546228D041F2D8580024C0F6FE
:1046500001080EEB0406651C377A1F55D76818F859
:104660000770BD4219D21F19757A7D70D56818F888
:104670000590A51C4D453FBFB57ABD70D56818F8AB
:1046800005903CBFE51C4D4507D2F57A0434FD701A
:10469000D56818F80550AC42DBD3402910D100682A
:1046A000C0F8A8C00020BDE8F08300BFD0F89C107F
:1046B00041F02001C0F89C100120BDE8F08300BF4C
:1046C00041290FD10068C0F8B8C00020BDE8F083D0
:1046D000D0F89C1041F48071C0F89C100120BDE816
:1046E000F08300BF1F2909D80068012202FA01F1F6
:1046F000C0F898100020BDE8F08300BF006801F00A
:104700001F01012202FA01F1C0F89C100020BDE84F
:10471000F0830000000000000068D0F8C40000F042
:104720003F007047000000007047000000000000DC
:104730002DE9F04F89B004464AF61000C4F200009B
:1047400001684AF61400C4F200000268206802EA18
:104750000108056DD0F85490036D0293436D0193E9
:10476000036D0493436D0393036D0893436D0793A7
:10477000036D0693436D0593D0F854A0D0F850B064
:104780005FEACA530ED51BF480710BD04FF48071D1
:1047900001654AF610010020C4F2000108602046BD
:1047A000FFF7C2FF05EA09064AF610095FEA4A5018
:1047B000C4F200094FEA887711D51BF480600ED04F
:1047C0002068D0F8DC10D0F8E42011404FF480626B
:1047D00002650020C9F80000204600F0E9FDDDE98F
:1047E000011000EA010506F4704657B12068002167
:1047F000016508F00300C9F8000020463946FFF7BC
:10480000B7FDDDE9031000EA010705F00F0546B129
:104810002068314606650020C9F80000204600F0F7
:10482000CFFD07F0F00645B1206829460565002058
:10483000C9F80000204600F0BBFB46B120683146B5
:1048400006650020C9F80000204600F0B5FB5FEACD
:104850000A500CD51BF4006009D020684FF40061A9
:1048600001650020C9F80000204600F0ADFD5FEAB8
:104870008A5011D51BF400700ED02068D0F8D810E3
:10488000D0F8E02011404FF4007202650020C9F812
:104890000000204600F090FD5FEA0A300CD51BF4C2
:1048A000002009D020684FF4002101650020C9F8DC
:1048B0000000204600F078FB5FEACA300CD51BF4FC
:1048C000803009D020684FF4803101650020C9F89C
:1048D0000000204600F068FD5FEA4A30DDE905107F
:1048E00000EA01050CD51BF4802009D020684FF4A4
:1048F000802101650020C9F80000204600F050FD2D
:104900005FEA8A30DDE9071000EA010005F0607116
:104910000FD51BF400320CD022684FF4003313651E
:104920000022C9F80020D4F89C2042F08002C4F88C
:104930009C2000F0715539B1206801650020C9F84C
:1049400000002046FFF7A4FD206845B10565002161
:10495000C9F80010D4F89C102943C4F89C10A9F59C
:10496000016188420AD0D4F89C00002868D0204613
:1049700009B0BDE8F04FFFF787BD00BF60688168F0
:104980008907F0D0016A426A036A476A114003EA64
:10499000070202F03005D0F82080D0F82490D0F83B
:1049A00020B0D0F824A0026A089211F00F01426AE8
:1049B0000792466A026A069203D00162204600F01E
:1049C000E3FC08EA09072DB1606829460562204624
:1049D00000F0E2FC70060BEA0A0607F4C0750ED57B
:1049E000069810F040000AD060684023C16BC26B8B
:1049F000090C02F03F020362204600F0C9FCDDE929
:104A0000071000EA010706F4FC462DB1606829464C
:104A10000562204600F0B4FC07F4F02036B161686E
:104A20000E62D4F89C103143C4F89C1000289AD030
:104A300061680862D4F89C100843C4F89C0092E7AF
:104A400009B0BDE8F08F00002DE9F04F85B0A8B3A4
:104A50004AF200080446C4F200080068404531D01C
:104A600094F89810A9B3816921F01001816100F0D8
:104A7000B3FD054620688169090705D500F0ACFD46
:104A8000401B0B28F6D310E0816941F001018161E0
:104A900000F0A2FD054600BF20688169C90721D149
:104AA00000F09AFD401B0B28F6D30120D4F89C108F
:104AB0000843C4F89C00032084F89800012005B046
:104AC000BDE8F08F08F58071616094F898100029B6
:104AD000C9D1002084F89900204600F0B5F920687B
:104AE000C1E700BF816941F002018161217C8269D7
:104AF00022F04002012918BF40328261617C826944
:104B000022F48042012908BF02F580428261A17C23
:104B1000826922F48052012918BF02F58052826115
:104B2000816921F44073D4E902120B4383618369E4
:104B300023F0A4038361036923F0100303619AB196
:104B4000012A0DD0022A09D08369032A43F0800389
:104B50008361036943F01002026105D1202200E065
:104B6000042283691A438261D4E90572E369561EFF
:104B70006FF0FF02256A02EB0323B1F5407F43EAA1
:104B80004663A5F1010646EA030640F20003CFF6AC
:104B9000FF7303EB074746EA0701C16110D1D4E96F
:104BA0000B65D4E90917013F02EB06226FF00F06EF
:104BB0003A4306EB05173A4303EB01411143C16049
:104BC000236E2BB1616ED0F8C0201143C0F8C01025
:104BD000E16DCDE90313D94241F21051C0F6010154
:104BE00009D0D0F8C820A36E22F0070251F8233074
:104BF0001A43C0F8C820D4F840A0BAF1000F09D079
:104C0000D0F8BC20636C22F0070251F823301A431D
:104C1000C0F8BC20A76C57B1D0F8BC20E36C22F0E0
:104C2000700251F8233042EA0312C0F8BC20D4F8D5
:104C300050C0BCF1000F0AD0D0F8BC20636D22F444
:104C4000E06251F8231042EA0121C0F8BC1040454F
:104C500004D161688A6822F003028A600021C4F8E6
:104C60009410C4F89C10012184F898104FF6FC723F
:104C7000D0F88410D4F83C9021EA0203656CD4E9A2
:104C80000D120292019543EA8103C0F88430D0F8F6
:104C9000843023F47F0343EA0243C0F8843053187E
:104CA000D0F888606FF38F0646EA8306C0F8886004
:104CB000D0F8886003EB490326F4FE0646EA09466D
:104CC000C0F88860D0F8A0606FF38F0646EA8306CC
:104CD000C0F8A060D0F8A06005FB0A3326F4FE06F9
:104CE00046EA0A46C0F8A060D0F8B0606FF38F06BD
:104CF00046EA8306C0F8B060D0F8B06026F4FE063D
:104D000046EA0746C0F8B060E66CD0F8AC506FF3E6
:104D10008F0506FB07337E4345EA8305C0F8AC5098
:104D2000D4F8548008FB0C35D0F8F0306FF38F03C3
:104D300008FB0CFC43EA8503C0F8F030D0F8F0E043
:104D4000A36D2EF47C1242EA0342C0F8F02005EB7A
:104D50004302D0F8C0506FF38F0545EA8202C0F8D5
:104D6000C020D0F8C020DDF80CB022F47C1242EA5A
:104D70000B42C0F8C020019AD0F8C05025F07C55F5
:104D800002FB0AFE4AF20002C4F20002DDF810A0A3
:104D900002EB8101029A01F5406145EA0A6501EBE7
:104DA0008207C0F8C05007EBC902A56E02EB8E0067
:104DB000626700EB86060BFB05F2276706EB8C07A4
:104DC000C4E91E060AFB05F007EBC30303EB8202EE
:104DD000C4F884304DF2FC33E16602EB8000C4F28B
:104DE00000039842C4F88070C4F88820C4F890008A
:104DF00002D920205AE600BF814221D20A46002073
:104E000042F8040BD4F890309A4215D2486001F170
:104E10000802D4F890309A423FBF0020886001F128
:104E20000C02D4F8903038BF9A4205D2C8601031D5
:104E3000D4F890209142E1D305B0BDE8F08F00BFD7
:104E4000002005B0BDE8F08F10B586B04DF20042ED
:104E50000068C4F20002002190420591CDE90311DF
:104E6000CDE9011136D04AF20041C4F20001884276
:104E70005CD04AF20001C4F20001884240F0918007
:104E800040F2FC2144F2E040C2F20041C5F60200CB
:104E90000A68002A02F101020A6008D1C16841F4DF
:104EA0008071C160C16801F480710091009901684E
:104EB000132441F0010101600068092100F00100A4
:104EC000009000984FF4C05001900020C5F60200F9
:104ED00056E000BF40F2FC2144F2E040C2F2004143
:104EE000C5F602000A68002A02F101020A6008D130
:104EF000C16841F48071C160C16801F480710091A2
:104F0000009901689F2441F00801016000680021B8
:104F100000F008000090C5F6020100984FF44050E0
:104F2000019001F5406005212AE000BF40F2FC211C
:104F300044F2E040C2F20041C5F602000A68002ACD
:104F400002F101020A6008D1C16841F48071C160B8
:104F5000C16801F48071009100990168142441F046
:104F6000020101600068002100F002000090C5F617
:104F7000020100984FF44050019001F58060092132
:104F8000059101A9022202920022CDE9032200F03C
:104F90001FFA05210022204600F036FC204600F0D2
:104FA00023FC06B010BD00007047000000000000A8
:104FB000FDF76EBB0000000070470000000000001D
:104FC00090F8981001290DD1022180F898100168FD
:104FD0008A6922F001028A610021C0F89C1008460B
:104FE000704700BFD0F89C1041F00401C0F89C103D
:104FF000012070470000000090F8981002292BD182
:10500000016851F8182F42F001020A600A68D207BD
:1050100006D10A68D20704BF0A685FEAC27223D0C9
:105020000A6822F010020A600A68120707D50A68A7
:10503000120744BF0A685FEA027200F1CF800A6873
:1050400042F002020A600021C0F89410012280F8A8
:1050500098200846704700BFD0F89C1041F0080126
:10506000C0F89C10012070470A68D20704BF0A6884
:105070005FEAC272D4D10A68D20704BF0A685FEA45
:10508000C272CDD10A68D20704BF0A685FEAC27251
:10509000C6D10A68D20704BF0A685FEAC272BFD1EC
:1050A0000A68D20704BF0A685FEAC272B8D10A6808
:1050B000D20704BF0A685FEAC272B1D10A68D20798
:1050C00004BF0A685FEAC272AAD10A68D20704BFA5
:1050D0000A685FEAC272A3D10A68D20704BF0A68ED
:1050E0005FEAC2729CD10A68D20704BF0A685FEA0D
:1050F000C27295D10A68D20704BF0A685FEAC27219
:105100008ED10A68D20704BF0A685FEAC2727FF4D0
:1051100087AF0A68D20704BF0A685FEAC2727FF4E9
:105120007FAF0A68D20704BF0A685FEAC2727FF4E1
:1051300077AF0A68D20704BF0A685FEAC2727FF4D9
:105140006FAF0A68D20704BF0A685FEAC2727FF4D1
:1051500067AF0A68D20704BF0A685FEAC2727FF4C9
:105160005FAF0A68D20704BF0A685FEAC2727FF4C1
:1051700057AF0A68D20704BF0A685FEAC2727FF4B9
:105180004FAF0A68D20704BF0A685FEAC2727FF4B1
:1051900047AF0A68D20704BF0A685FEAC2727FF4A9
:1051A0003FAF0A68D20704BF0A685FEAC2727FF4A1
:1051B00037AF0A68D20704BF0A685FEAC2727FF499
:1051C0002FAF0A68D20704BF0A685FEAC2727FF491
:1051D00027AF0A68D20700F0C58021E70A681207E6
:1051E00044BF0A685FEA02727FF529AF0A681207B6
:1051F00044BF0A685FEA02727FF521AF0A681207AE
:1052000044BF0A685FEA02727FF519AF0A681207A5
:1052100044BF0A685FEA02727FF511AF0A6812079D
:1052200044BF0A685FEA02727FF509AF0A68120795
:1052300044BF0A685FEA02727FF501AF0A6812078D
:1052400044BF0A685FEA02727FF5F9AE0A68120786
:1052500044BF0A685FEA02727FF5F1AE0A6812077E
:1052600044BF0A685FEA02727FF5E9AE0A68120776
:1052700044BF0A685FEA02727FF5E1AE0A6812076E
:1052800044BF0A685FEA02727FF5D9AE0A68120766
:1052900044BF0A685FEA02727FF5D1AE0A6812075E
:1052A00044BF0A685FEA02727FF5C9AE0A68120756
:1052B00044BF0A685FEA02727FF5C1AE0A6812074E
:1052C00044BF0A685FEA02727FF5B9AE0A68120746
:1052D00044BF0A685FEA02727FF5B1AE0A6812073E
:1052E00044BF0A685FEA02727FF5A9AE0A68120736
:1052F00044BF0A685FEA02727FF5A1AE0A6812072E
:1053000044BF0A685FEA02727FF599AE0A68120725
:1053100044BF0A685FEA02727FF591AE0A6812071D
:1053200044BF0A685FEA02727FF589AE0A68120715
:1053300044BF0A685FEA02727FF581AE0A6812070D
:1053400044BF0A685FEA02727FF579AE0A68120705
:1053500044BF0A685FEA02727FF571AE0A681207FD
:105360007FF56DAED0F89C1041F00101C0F89C10A3
:10537000032180F898100120704700000000000011
:1053800070470000000000007047000000000000AF
:10539000704700000000000070470000000000009F
:1053A000704700000000000070470000000000008F
:1053B000704700000000000070470000000000007F
:1053C000704700000000000070470000000000006F
:1053D0002DE9F04F84B08E4642F20042C5F602023B
:1053E0000A219042DEF8005008BF0921002D0091EB
:1053F00000F0E68000F12642009902F1FF720024DD
:105400004FEAB2230126082B4FF0000738BF194698
:105410004FF00008CDF808E000910DE0DEF80050F4
:1054200008F1010835FA06F107F1020706F1010655
:1054300004F1040400F0C480A6F1010A012101FA7C
:105440000AF315EA0309E9D0DEF804B00BF003050E
:105450006A1E012A1AD80321D0F808C001FA07FEF3
:1054600002992CEA0E0CDDF808E0CA68BA4042EA5C
:105470000C028260CBF30012D0F804C02CEA0303C4
:1054800002FA0AF21A4342600CE000BF032D09D170
:10549000DEF80820012A05D10325BC4605FA07F2EB
:1054A000D1432FE00321C26801FA07F3022D6FEA0E
:1054B000030122EA0302DEF808304FEA480C03FA3F
:1054C00007F342EA0302C2601CD101916FF00301AD
:1054D00001EA5A0204F01C0502440F2101FA05F307
:1054E000D2F820B002992BEA0303D1F810E0019919
:1054F0000EFA05F5DDF808E02B431362DEF804B080
:105500000BF0030502681BF4403F01EA020105FAB3
:105510000CF241EA020101603FF480AF44F2F44230
:1055200040F2084CC5F60202C5F6000C0F251168C2
:1055300041F002011160116801F0020103912AF0AB
:105540000301039A04F00C0251F80C309540AB4370
:10555000009D05FA02F21A4341F80C204FF0B04CBE
:10556000DCF80010DEF8042041EA0903D50258BF38
:1055700021EA09039502CCF8003040F2040CC5F68C
:10558000000CDCF8001041EA090358BF21EA0903C6
:105590009503CCF80030DCF8801041EA090358BFCD
:1055A00021EA0903D203CCF88030DCF87C1041EA10
:1055B000090358BF21EA0903CCF87C302EE700BF6D
:1055C00004B0BDE8F08F0000002A08BF0904816123
:1055D000704700000000000042F28820C2F2014043
:1055E000006870470000000040F2000042F288218D
:1055F000C2F20040C2F2014100780A68104408601B
:10560000704700000000000080B5032000F02CF976
:1056100001F0E2F944F2184141F26853C5F6020183
:10562000C0F601030A68096801F00F01C2F3032202
:10563000595C9A5C01F01F0102F01F02D04040F259
:105640000C02C2F2004220FA01F1116040F208019E
:10565000C2F2004108600F2000F00AF800281CBFC9
:10566000012080BD00F0A8F8002080BD00000000EF
:10567000B0B58AB00F2842D8044636200022214611
:10568000002500F0C1F8362000F0AEF840F204002A
:10569000C2F20040046044F2E840C5F6020001682E
:1056A00041F010010160006801A900F010000290B3
:1056B000029802A801F0DCF8079C002C18BF012416
:1056C00001F02AF94DF68361A040C4F21B3141F28A
:1056D0000002A0FB010140F61050C2F200404FF062
:1056E000FF33C4F20002026003EB9141C0E90115EF
:1056F00040F2E731C0E9031501F092FC10B101203E
:105700000AB0B0BD40F61050C2F2004001F0BCFC3F
:105710000AB0B0BD0000000010B54EF6A05E4178A2
:10572000CEF2000E90F800C04EF8081CDEF8001013
:1057300021F00101CEF8001041684EF8041C017BF5
:10574000C37A827A447B1B0643EA0171837B41EA78
:10575000C241C27B41EA8441447A41EA4341007A32
:1057600041EA024141EA042141EA400040EA0C00DA
:10577000CEF8000010BD00004EF62450CEF200001E
:10578000BFF35F8F016821F4803101600021016760
:1057900070470000000000004EF6245140F0010068
:1057A000CEF200010867086840F480300860BFF35B
:1057B0004F8FBFF36F8F704781B044F2F4400022E7
:1057C000C5F60200016841F00201016000680F2186
:1057D00000F0020000906FF00100009B01B000F0AB
:1057E00013B8000000000000002848BF704700F018
:1057F0001F01012202FA01F14EF200124009CEF21D
:10580000000242F820107047B0B54EF60C5C00F074
:105810000F05CEF2000C043D6544DCF800304FF07B
:10582000FF3CC3F3022E8EF00703042B28BF042392
:10583000BEF1030438BF00240CFA03F3B0F1FF3FBC
:1058400021EA030105F10C0300F160450CFA04F0B4
:10585000C8BF05F56443A14022EA000008430001E7
:105860001870B0BD000000004EF60C514FF6FF035B
:10587000CEF200010A681A4060F30A2242F080600A
:1058800040F0FD7008607047B0B544F60C05C5F6F1
:10589000020529684907296806D401F00701081A9A
:1058A00018BF0120B0BD00BF21F0070108432860E8
:1058B000FFF792FE044600BF55F8080C800407D499
:1058C000FFF78AFE001BB0F57A7FF5D90120B0BD45
:1058D0000020B0BD0000000080B500F0F5FF44F2EC
:1058E000204141F26852C5F60201C0F60102096882
:1058F000C1F30211515C01F01F01C84080BD0000DE
:1059000080B544F2384EC5F6020E5EF8103C5EF8E3
:10591000101CC1F3053C5EF80C1CBCF1000FDEF856
:10592000042015D0C1F30011C2F3CC02514300EEA4
:10593000101A03F003010229B8EE400A0ED089B90B
:105940005EF8381C890611D49FED361A1CE000BFA2
:1059500000218160C0E9001180BD00BF9FED301AB9
:1059600012E000BF9FED2D1A0EE000BF5EF8381C5C
:1059700049F20002C0F2D032C1F3C10122FA01F1B2
:1059800001EE101AB8EE411ADEF800109FED263A2B
:105990006FF35F2102EE101ADEF80010C1F346210A
:1059A000B8EE422A00EE032A00EE10CAB7EE003A23
:1059B000B8EE400A81EE000A32EE031A02EE101A27
:1059C000B8EE422A20EE010A32EE031A80EE011AE6
:1059D000BCEEC11A80ED001ADEF80010C1F30641DA
:1059E00001EE101AB8EE411A31EE031A80EE011AD8
:1059F000BCEEC11A80ED011ADEF80010C1F3066199
:105A000001EE101AB8EE411A31EE031A80EE010AC7
:105A1000BCEEC00A10EE101A816080BD0024744AEA
:105A200020BCBE4B0024744C000000390000000074
:105A300080B544F2404EC5F6020E5EF8183C5EF8A2
:105A4000181CC1F3055C5EF8141CBCF1000FDEF8F5
:105A5000042015D0C1F30021C2F3CC02514300EE63
:105A6000101A03F003010229B8EE400A0ED089B9DA
:105A70005EF8401C890611D49FED361A1CE000BF69
:105A800000218160C0E9001180BD00BF9FED301A88
:105A900012E000BF9FED2D1A0EE000BF5EF8401C23
:105AA00049F20002C0F2D032C1F3C10122FA01F181
:105AB00001EE101AB8EE411ADEF800109FED263AFA
:105AC0006FF35F2102EE101ADEF80010C1F34621D9
:105AD000B8EE422A00EE032A00EE10CAB7EE003AF2
