:020000040800F2
:10000000C84601246D03000821B000084988000893
:1000100019B0000889110008590401080000000007
:10002000000000000000000000000000F1D1000806
:100030008924000800000000E1B5000861DD000827
:100040008B0300088B0300088B0300088B03000858
:100050008B0300088B0300088B0300088B03000848
:100060008B0300088B0300088B030008291C000881
:10007000391C0008491C0008591C0008691C0008AC
:10008000791C0008891C00088B030008C92400089B
:10009000D92400088B0300088B0300088B03000899
:1000A0008B0300088B0300088B0300088B030008F8
:1000B0008B0300088B0300088B0300088B030008E8
:1000C0008B0300088B0300088B0300088B030008D8
:1000D0008B030008A9FD00088B0300088B030008B0
:1000E0008B0300088B030008000000008B0300084E
:1000F0008B0300088B0300088B030008991C000881
:100100008B0300088B0300088B0300088B03000897
:10011000A9E000088B03000821DF00088B0300081A
:10012000A91C0008B91C0008C91C0008D91C00083B
:100130008B0300088B0300088B0300088B03000867
:1001400000000000000000000000000000000000AF
:100150008B0300088B0300088B030008B9FD00081F
:100160008B0300088B0300088B0300088B03000837
:100170008B0300088B0300088B03000800000000BD
:100180008B0300088B030008B9E00008C9E00008F1
:100190008B0300088B0300088B0300088B03000807
:1001A0008B0300088B0300088B030008000000008D
:1001B0008B0300088B0300088B0300088B030008E7
:1001C0008B0300088B030008000000000000000003
:1001D00000000000000000008B0300080000000089
:1001E000000000000000000000000000000000000F
:1001F00000000000000000008B0300088B030008D3
:100200008B0300088B030008000000008B0300082C
:100210008B0300088B0300088B0300088B03000886
:100220008B030008000000008B03000800000000A2
:100230008B0300088B030008000000008B030008FC
:100240008B0300088B0300088B0300088B03000856
:100250008B0300088B0300088B0300088B03000846
:100260008B0300088B0300088B0300088B03000836
:100270008B0300088B0300088B03000800000000BC
:100280008B0300088B0300088B0300088B03000816
:10029000000000008B0300088B0300080000000032
:1002A000000000008B0300088B030008D9E0000861
:1002B0008B0300088B0300088B0300088B030008E6
:1002C0008B0300088B0300088B03000800F002F882
:1002D00000F03CF80AA090E8000C82448344AAF1A4
:1002E0000107DA4501D100F031F8AFF2090EBAE8A2
:1002F0000F0013F0010F18BFFB1A43F0010318475A
:100300003C3B01005C3B0100103A24BF78C878C137
:10031000FAD8520724BF30C830C144BF04680C600B
:10032000704700000023002400250026103A28BF53
:1003300078C1FBD8520728BF30C148BF0B60704757
:100340001FB513F0D3FB1FBD10B510BD00F0C2F9EF
:100350001146FFF7F5FF10F01BFC00F0E0F903B4C5
:10036000FFF7F2FF03BC00F0E3F900000A48804702
:100370000A4880470A480047FEE7FEE7FEE7FEE737
:10038000FEE7FEE7FEE7FEE7FEE7FEE70548064973
:10039000064A074B704700009924000849DE000810
:1003A000CD020008C8340124C8460124C8360124FF
:1003B000C836012453EA020C00F069802DE9F04BA5
:1003C0004FF00006002B1FBFB3FA83F503FA05F4C4
:1003D00024FA05F65E4012BF1643B2FA82F502FA1D
:1003E00005F4C5F120051EBF22FA05FC44EA0C0401
:1003F000203556EA044C4FEA144418BF641C4FF0F1
:1004000000084FF00009904271EB030C39D300292A
:1004100019BFB1FA81F701FA07F6B0FA80F700FACE
:1004200007F6C7F120071EBF20FA07FC46EA0C06B4
:100430002037B6FBF4FCA7EB0507103F07F01F0BB6
:10044000CBF120062CFA06F60CFA0BFB44BFB346A0
:100450000026202FA4BF5E464FF0000B5BEA060C7F
:1004600008BF4FF0010B19EB0B0948EB0608ABFB7B
:10047000027C06FB02CC0BFB03CCC01B71EB0C0116
:10048000C1E70B46024641464846BDE8F08B13B52E
:10049000084318BF4FF0FF300146AFF30080BDE8BE
:1004A0001C40704753EA020C23D010B54C1084EA6C
:1004B000530404D54042C1F1000138BF491E1B421C
:1004C00004D55242C3F1000338BF5B1EFFF772FF31
:1004D00014F0804F04D04042C1F1000138BF491EE2
:1004E00014F0004F04D05242C3F1000338BF5B1E2A
:1004F00010BD13B540424FF0000070EB0104B8BFCF
:10050000012001F0004100281CBF6FF000414FF0B6
:10051000FF30AFF300801CBD032A40F2308010F0A2
:10052000030C00F0158011F8013BBCF1020F62448E
:1005300098BF11F801CB00F8013B38BF11F8013B1F
:10054000A2F1040298BF00F801CB38BF00F8013BCC
:1005500011F0030300F08480083AC0F0088051F8DD
:10056000043B083A51F804CBA0E80810F5E7121D47
:100570005CBF51F8043B40F8043BAFF30080D20766
:1005800024BF11F8013B11F801CB48BF11F8012B32
:1005900024BF00F8013B00F801CB48BF00F8012B55
:1005A000704702F0FF0343EA032242EA024200F0EE
:1005B00024B84FF000020429C0F0128010F0030CA0
:1005C00000F01B80CCF1040CBCF1020F18BF00F846
:1005D000012BA8BF20F8022BA1EB0C0100F00DB8F5
:1005E0005FEAC17C24BF00F8012B00F8012B48BF53
:1005F00000F8012B70474FF0000200B513469446F7
:100600009646203922BFA0E80C50A0E80C50B1F16A
:100610002001BFF4F7AF090728BFA0E80C5048BF7E
:100620000CC05DF804EB890028BF40F8042B08BF1C
:10063000704748BF20F8022B11F0804F18BF00F818
:10064000012B704770477047704710B500F03AF8BB
:10065000006810BD10B5044600F034F8046010BD09
:1006600010B5203AC0F00B80B1E81850A0E818503F
:10067000B1E81850A0E81850203ABFF4F5AF5FEA8F
:10068000027C24BFB1E81850A0E8185044BF18C934
:1006900018C0BDE810405FEA827C24BF51F8043BDB
:1006A00040F8043B08BF7047D20728BF31F8023B2F
:1006B00048BF11F8012B28BF20F8023B48BF00F8C3
:1006C000012B7047004870477000002400487047B5
:1006D000700000247546FFF7F9FFAE460500694635
:1006E000534620F00700854618B020B5FFF74EFEB0
:1006F000BDE820404FF000064FF000074FF0000823
:100700004FF0000BAC46ACE8C009ACE8C009ACE85F
:10071000C009ACE8C00921F007018D46704710B54B
:100720000446AFF300802046BDE81040FFF717BE37
:1007300001491820ABBEFEE726000200704700000A
:10074000082801D90120704708284FF0010114D86A
:1007500001FA00F212F01B0F09D108280DD140F266
:100760006441C2F20041CA7A82F00102CA7240F2C8
:100770001001C2F2004108700021084670470000D5
:1007800070B50FF075FB40F26445C2F2004548B108
:10079000297B41B90021697340F210010122C2F2A4
:1007A00000414A702873A87BD0B104F04DFEA97BAC
:1007B00004464A1E062A00F21E81DFE802F03D05CB
:1007C00047516705730000BF0FF0A2FB002800F03F
:1007D00011810120A5F80D000020287070BD00BF18
:1007E00040F21004EFF31080C2F2004472B6002809
:1007F0004FF0FF002678207000D162B6FF2E08BFB0
:1008000070BD0FF035FB68B1082E11D8DFE806F097
:10081000065C10708A1010109A0000BF687B0128D7
:1008200058D1C0E0082E55D1E87A80F00100E87276
:100830000120287070BD00BF0FF06AFB002800F097
:10084000D9800020A5F80D00287070BD0FF060FB66
:10085000002800F0CF800FF01FFB80B90420C2E019
:100860000FF0B2FA022800F0C58048B99FED7F0A68
:10087000F0EE400A0FF080FD002800F0B380012068
:1008800028700020A8730FF0CBFDB3E00FF040FB01
:10089000002800F0AF800220A5F80D00002028708D
:1008A00070BD00BF0FF034FB002800F0A38040F2C1
:1008B0001001E87BC2F2004180F001004870002086
:1008C0002870A87370BD00BF687B002804BFE87A59
:1008D000002865D0287A0128AAD1012EA8D8E87965
:1008E00080F00100E871002028720120287070BD9E
:1008F000687B01289CD140F2DC109FED612AC2F296
:10090000004090ED000A90ED011A30EE020A9FEDD2
:100910005D2A71EE020A0FF02FFD002840F0A4803E
:10092000032099E0687B02287FF482AF9FED520A92
:10093000DFED520A0FF020FD002840F095800620E0
:100940008AE000BF687B00287FF46EAFE87A002859
:1009500076D040F2DC11B8EE080AC2F2004191ED07
:10096000002AB4EE402AF1EE10FAFFF65DAFB0EEC9
:10097000081AB4EE412AF1EE10FA3FF755AF91EDA7
:10098000012AB4EE402AF1EE10FAFFF64DAFB4EEB4
:10099000412AF1EE10FA3FF747AF9FED360A51E0DA
:1009A0006078002896D0287A012801D1002028728A
:1009B000012E2DD0002E41D140F2DC109FED342AC3
:1009C000C2F2004090ED000A90ED011A30EE020AEA
:1009D0009FED302A71EE020A0FF0CEFC002843D1C1
:1009E000012039E00520A87304F02EFD41F2883182
:1009F00008442861A97BC1B32869201A35D4032093
:100A000028700020A873BDE870400FF009BD00BF3A
:100A100040F2DC109FED1C2AC2F2004090ED000A6B
:100A200090ED011A30EE020A9FED182A71EE020ACB
:100A30000FF0A2FCC0B902200EE000BF012013E0BD
:100A40009FED0B0AF0EE400AE87380F00100607041
:100A50000FF092FC40B90720A87304F0F5FC41F2B6
:100A60008831084428610020287070BD0000B4421D
:100A70000000000000003442000033430000314316
:100A800000003543000037430000064300000443E4
:100A9000000006C3000004C3002818BF0120A9B14C
:100AA00040F26441C2F20041CA78BAB10A79824286
:100AB00008BF7047CA7A087182F00100C87240F21C
:100AC00010000821C2F200400170704740F26440FB
:100AD0000021C2F20040C170704700BF08710120C0
:100AE000C87070470000000040F26442002818BF40
:100AF0000120C2F200420029507018BF01219170FC
:100B0000704700000000000091B140F2644100F025
:100B10003F00C2F200414A7A92B18A7A887220EA92
:100B20000202D30710D1900724D501200DE000BFA9
:100B300040F264400021C2F200404172704700BFA1
:100B4000887201204872704700200BA2105C0828B0
:100B500010D80122824012F01B0F06D1082818BFBE
:100B60007047CA7A82F00102CA7240F21001C2F2E2
:100B700000410870704700BF0304FFFFFFFF000043
:100B800010B50020002400F0F7FE002000F070FCFB
:100B900004F05AFC40F254210122C2F200414860A4
:100BA000EFF3108072B60A704C7028B1012000215A
:100BB000BDE810400CF048BF62B601200021BDE83E
:100BC00010400CF041BF000080B582B0B6EE002AA4
:100BD000B5EE400ABEEE003A0020F1EE10FAB0EE9B
:100BE000424AF5EE400AB8BFB0EE434AF1EE10FAC1
:100BF000B0EE425AB5EE401AB8BFB0EE435AF1EE2D
:100C000010FAB8BFB0EE432A34EE000A4FF0320CAF
:100C100035EE203ACDF800C032EE011ABDEEC00A22
:100C2000BDEEC32ABDEEC11A10EE101A12EE102A44
:100C300011EE103A00F034FCF0B100F0B1FB0128E5
:100C40001AD1002000F014FC40F25421EFF3108080
:100C5000C2F2004172B600284FF006020A704FF04F
:100C60000400487000D162B60620042102B0BDE83D
:100C700080400CF0E9BE00BF02B080BD0000000063
:100C8000F0B581B02DED0E8B8AB004F0DDFB40F2A3
:100C900054260446C2F200467168401A0A2805D25A
:100CA0000AB0BDEC0E8B01B0F0BD00BF746000F067
:100CB00077FB002800F0B2803778022F40F0CA801E
:100CC00068460CF0D9FA002800F0EA809DF80C0084
:100CD000002800F0E5800298201AFA2800F2E0804F
:100CE0009DED040A10EE100A00F0FF40B0F1FF4F36
:100CF00000F0D6809DED051A11EE100A00F0FF40BD
:100D0000B0F1FF4F00F0CC80079800F0FF40B0F149
:100D1000FF4F00F0C580B0EEC02A9FED8A0AB4EE06
:100D2000402AF1EE10FA00F3BB80B0EEC11AB4EE27
:100D3000401AF1EE10FA00F3B380EFF3108072B6B0
:100D400096ED029A96ED03BA96ED04AA00B962B642
:100D50009DED070A9FEDDCDA9FEDDC8A30EE0D0A8F
:100D6000F0EE480A12F082FC9DED051A30EE082ADA
:100D70003BEE41CA9DED041A39EE41BAB5EE400A88
:100D8000F1EE10FA2CEE0C1A9FEDD1EAB8BFB0EEDE
:100D9000420AABEE0B1A30EE0E0A8DED070AB1EEE9
:100DA000C19AB4EE499AF1EE10FA80F1A3819DED5B
:100DB000070AF0EE480A3AEE400A30EE0D0A12F049
:100DC00055FC30EE081AB5EE400AF1EE10FAB8BF45
:100DD000B0EE410A30EE0EAA9FEDD60AB4EE409A6C
:100DE000F1EE10FAB0EECADA00F304819FEDD20AF8
:100DF000B4EE40DAF1EE10FA00F3FC80002000249B
:100E000000F036FBEFF3108072B600284FF00501BA
:100E10003170747040F06B8162B668E1002000248C
:100E200000F026FB307801283FF43AAFEFF3108052
:100E300072B64FF001013170747000B962B60120D2
:100E400000210AB0BDEC0E8B01B0BDE8F0400CF003
:100E5000FBBD00BFF81E01283AD86D4628460CF0AD
:100E6000DBF918B10298201AFB283DD30324002097
:100E7000032F08BF022400F0FBFAEFF3108072B6D4
:100E80004FF006013170747000B962B60620214639
:100E90000CF0DAFD0AB0BDEC0E8B01B0F0BD00BF66
:100EA000002000F0E5FAEFF3108072B600284FF052
:100EB000060131704FF00100707000D162B606205B
:100EC00001210CF0C1FD0AB0BDEC0E8B01B0F0BDEC
:100ED000012F3FF4E5AE00200AB0BDEC0E8B01B04F
:100EE000BDE8F04000F0C4BA05F10D00032F08BFC3
:100EF00005F10C0005F11C01027805F1200004BF8A
:100F000005F1100105F1140042B191ED001A11EE46
:100F1000101A01F0FF41B1F1FF4F15D10324002059
:100F2000032F08BF022400F0A3FAEFF3108072B67B
:100F30004FF006013170747000B962B60620214688
:100F4000BFE700BF0000C84290ED000A10EE100A93
:100F500000F0FF40B0F1FF4FE0D0B0EEC12A9FEDAE
:100F60006F3AB4EE432AF1EE10FAD7DCB0EEC02AA5
:100F7000B4EE432AF1EE10FAD0DCEFF3108072B633
:100F800096ED053A00B962B631EE431A9FED643A28
:100F9000B0EEC14AB4EE434AF1EE10FA05DCB4EE0D
:100FA000432AF1EE10FA40F395809FED5F2A21EE7F
:100FB000028A9FED5C1A20EE019A28EE081AA9EE2B
:100FC000091AB1EEC10AB4EE400AF1EE10FA80F14E
:100FD00099809FED561AB7EE003A81EE002AB4EEE2
:100FE000410AF1EE10FA32FE031A29EE010A68EE08
:100FF000010A5FE09DED070A12F090FAB0EE408A18
:101000009DED070A12F08AFB2CEE009A9DED070A6F
:10101000A8EE0B9A12F082FBB0EE408A9DED070A13
:1010200012F07CFA20EE4C0AA8EE0B0A9FED43BAB0
:1010300029EE0B8A28EE081A20EE0B9AA9EE091A5F
:10104000B1EEC10AB4EE400AF1EE10FA60D68BEEB2
:10105000001AB7EE002AB4EE4B0AF1EE10FA31FE98
:10106000021A29EE010A68EE010A9FED331AB4EE66
:1010700041DAF1EE10FA1DDDB2EE001ABAEE042AE2
:101080002AEE011A81FE021AB2EE042A81FE421AE9
:10109000B1EE002AB0EEC13AB4EE423AF1EE10FAE7
:1010A0000ADAB9EE003AB5EE401AF1EE10FA22FE75
:1010B000031A01E09FED1E1AFFF786FD0AB0BDEC92
:1010C0000E8B01B0F0BD00BFDB0F4940DB0FC94004
:1010D000DB0F49C00020002400F0CAF9EFF31080B4
:1010E00072B64FF005013170747000B962B6052018
:1010F0000021E6E6B0EE410A12F0D8FBB0EE409ACD
:1011000055E600BFB0EE410A12F0D0FB61E700BF28
:10111000B0EE410A12F0CAFB99E700BF0000C842D6
:101120008FC2F53C000096C3000096430000964233
:1011300000000000CDCC4C3D0AD7A33D0000164373
:1011400010B50020002400F093F9002000F014FCFA
:1011500040F25421EFF31080C2F2004172B64FF01A
:1011600001020A704C7028B101200021BDE8104036
:101170000CF06ABC62B601200021BDE810400CF002
:1011800063BC000000000000FEE70000000000005B
:101190002DE9F04F81B000EE102A9FED7F1A0D1857
:1011A000401A9846B8EEC00A20EE010ABDEEC00A09
:1011B00010EE102A15EB020B00EB02065F46A0EBC7
:1011C000020A3046A5EB020948BFCBF10007002E0A
:1011D00048BF7042B84288BF07465046BAF1000F78
:1011E00048BFCAF10000B84288BF07464846B9F177
:1011F000000F48BFC9F10000B84288BF0746B7F5E5
:101200007A6F4AD900204FF47A62B0EB57054FF05D
:10121000000360F1000428462146BBF1FF3FC4BF34
:1012200078080021CBFB02013A464FF47A6BFFF7B6
:1012300039F92A462146B6F1FF3F4FF00003C4BFFB
:101240007A080021C6FB0B2183464FF47A661046CC
:101250003A46FFF727F92A462146BAF1FF3F4FF0F9
:101260000003C4BF7A080021CAFB062106464FF4DA
:101270007A6A10463A46FFF715F9B9F1FF3F4FF089
:101280000003C4BF00247D083A46C9FB0A548246C5
:1012900028462146FFF706F981464FEA98004A287A
:1012A0005AD84FEAEB70ABFB081200FB08226FF034
:1012B00095006FF09504B2F1FF3F4FEAE273C8BFAB
:1012C0009620401843EB02014FF496720023FFF77B
:1012D000E9F8F117A6FB082301FB08316FF095032D
:1012E0008346B1F1FF3F4FEAE176C8BF96239F18CE
:1012F0004FF49672714100233846FFF7D3F84FEA56
:10130000EA71AAFB082301FB08316FF0950306463A
:10131000B1F1FF3F4FEAE175C8BF96239F184FF424
:101320009672694100233846FFF7BCF84FEAE9712D
:10133000A9FB082301FB08318246B1F1FF3F4FEAC8
:10134000E173C8BF9624A7184FF496725941002341
:101350003846FFF7A7F8814640F2D0445946C2F21A
:10136000004420460FF08CFA58B904F12C003146A5
:101370000FF086FA28B904F1580051460FF080FAB0
:1013800010B101B0BDE8F08F04F18400494601B00E
:10139000BDE8F04F0FF074BA9A99D94000000000F0
:1013A00040F2EC10C2F2004080787047000000006C
:1013B0002DE9F04740F2EC16C2F20046707818B101
:1013C0000020BDE8F08700BF06F1140440F620318C
:1013D000C2F2004120460FF043F800281CBF012054
:1013E000BDE8F08740F2D04543F6C047C2F2004561
:1013F000C0F60107284621463A460FF085F9D0B9D4
:1014000005F12C0A07F11002504621460FF07CF935
:1014100088B905F1580807F12002404621460FF02F
:1014200073F940B905F1840907F1300248462146B5
:101430000FF06AF930B120460FF056F90120BDE8EF
:10144000F08700BF0024347003F0FEFFF06001203D
:10145000707028460FF0E0F950460FF0DDF9404675
:101460000FF0DAF948460FF0D7F92046BDE8F087CB
:10147000022812D800EB800040F2EC11C2F20041C9
:10148000EFF3108201EB800072B6002A4FF00001EA
:1014900080F83C1018BF704762B67047000000002B
:1014A0002DE9F047DDF820804FF0010CB8F1000F76
:1014B0003FD002283DD840F2EC19C2F2004999F819
:1014C0000160B6B3EFF3108A72B699F8024058B1D2
:1014D00064B1BAF1000F1CBF0220BDE8F08762B60C
:1014E0000220BDE8F08700BF012CF2D18FB200EBE3
:1014F000800095B29EB209EB8004A785E58526861B
:1015000003F0A2FF606345EA0700C4F83880304367
:101510004FF0010084F83C001CBF002089F8030054
:10152000BAF1000F1CBF0020BDE8F08762B64FF093
:10153000000C6046BDE8F0872DE9F04F87B040F21F
:10154000EC1BC2F2004B9BF80100012840F08A819D
:1015500003F07AFF0BF11406054630460EF0F8FF53
:1015600040F2D0494FF00008C2F2004903AF09F140
:101570002C0A09F1840409F15800029005E000BF2B
:10158000B8F11F0F08F1010822D2304639460EF09B
:10159000ABFF02281CD00028F2D1484639462A4623
:1015A0000FF0E6F80028EBD1504639462A460FF0F6
:1015B000DFF80028E4D1029839462A460FF0D8F81F
:1015C0000028DDD1204639462A460FF0D1F8D7E76A
:1015D000484629460FF07CF9504629460FF078F925
:1015E000029829460FF074F9204629460FF070F949
:1015F00040F2120CEFF3108EC2F2004C72B6FF20D4
:101600008CF800009BF8640068B1DBE91701281A28
:10161000884203D900208BF8640005E09CF90000A3
:10162000B0F1FF3F20DD0020002200219BF8506038
:101630003EB32746DBE91264AE1BA64204D93C4602
:1016400000268BF850601CE09CF900603C46B6F127
:10165000FF3F16DCBBF84010BBF84420BBF842004B
:1016600001268CF800600CE0BBF85410BBF8582041
:10167000BBF8560002268CF800609BF85060002EE4
:10168000D7D19BF83C60D6B12346DBE90D64AE1B95
:10169000A64205D91C4600278BF83C700FE000BF1E
:1016A0009CF900601C46B6F1FF3F08DCBBF82C102B
:1016B000BBF83020BBF82E0000268CF80060ABF899
:1016C0000410BEF1000FABF80600ABF808209BF841
:1016D000036000D162B641EA0003134318BF01233F
:1016E0009BF8007036B3042F00F0A98040F2D0467A
:1016F0000020C2F200460021CDE90500CDE903003B
:1017000030460FF0BDF880B906F12C0000210FF033
:10171000B7F850B906F1580000210FF0B1F820B920
:1017200006F1840000210FF0ABF804208BF80000D4
:101730008AE000BF042F13D8DFE807F00418323E18
:10174000580000BF002B52D100200021002207F0DA
:101750007FF80246002000214FF496733DE000BF61
:1017600001208BF80300042067E000BF002B43D06A
:101770000FB2DBF810300FFA80F8384612B241464B
:10178000EE1A07F065F8B6F5967F024604D34FF4DB
:10179000967602208BF800003846414633461CE01E
:1017A00053B30EB207B2304612B2394607F050F8C2
:1017B00002464FF496730EE093B30EB2CBF810507E
:1017C00007B2304612B2394601238BF8003007F0D9
:1017D0003FF80246002330463946FFF7D9FCDBF8D4
:1017E0000C00281A0A283DD32EE000BF23B3CBF803
:1017F0001050012021E000BFCBF81050D9F81400A0
:10180000CBF81C00D9F84000CBF82000D9F86C00C8
:10181000CBF82400D9F89800CBF8280003200CE07E
:10182000DBF81000281AC82820D3019407F01CFA0E
:1018300000268BF800601EE000208BF80000DBF82B
:101840000C00281A0A280DD34846CBF80C500EF08D
:10185000E3FF50460EF0E0FF02980EF0DDFF204659
:101860000EF0DAFF07B0BDE8F08F00BF00286BD0A4
:10187000C0F1C8060194DBF81C000027C117DBF893
:101880002040A6FB002306FB013107FB00116FF08F
:101890006300B1F1FF3FC8BF6420DBE90983009317
:1018A000CB1780184FF0C80259410023FEF7FAFD0C
:1018B000E117A6FB042306FB01316FF0630307FB6E
:1018C00004113C46B1F1FF3FC8BF642303909F1849
:1018D0004FEAE1725141C82200233846FEF7E2FD8B
:1018E0004FEAE871A6FB082306FB01316FF06303A2
:1018F00004FB0811B1F1FF3FC8BF642304909F1897
:101900004FEAE1725141C82200233846FEF7CAFD72
:10191000009FF917A6FB072306FB013104FB071103
:101920006FF06307B1F1FF3F4FEAE173C8BF64276F
:101930000590BF184FF0C802594100233846FEF702
:10194000B1FD019C06900BE0DBF828000690DBF867
:1019500024000590DBF820000490DBF81C000390C5
:1019600003A800F025F8DBF80C00281A0A28FFF479
:1019700079AF69E700000000012818D840F2EC12A6
:10198000EFF31081C2F2004272B6907030B10020C5
:1019900082F8500002F1640002E000BF02F13C0056
:1019A00000294FF00001017018BF704762B6704700
:1019B000B0B540F2D0450446C2F200450168284661
:1019C0000EF05EFF68B9616805F12C000EF058FF5B
:1019D000002818BFB0BDA16805F158000EF050FFF7
:1019E00000B1B0BDE16805F18400BDE8B0400EF083
:1019F00047BF00000000000040F2F421C2F20041A5
:101A0000CA681AB1824204BF012088717047000081
:101A100070B568B140F2F425C2F200452978012979
:101A200008D1E9680C1A18BF0124204670BD00BF18
:101A3000012070BDE8600024C5F81A40FF21C5F8F8
:101A40001E40012285F822400126AC82EC822C83C4
:101A5000A970691C2C61EC702C716C71AC71A5F8CB
:101A600007406C722E8006F063FD00281CBFAE712B
:101A70000446204670BD0000F0B581B040F2F42568
:101A8000C2F20045E86800284CD0A97979B1002459
:101A9000AC7105F085FCE868A5F807406C7220B1D0
:101AA000691C012206F044FD08B10120A871EFF382
:101AB000108072B6E978B9B3B5F814C00026B5F84D
:101AC00016E02B8BEE702E798EB3AF7800222A7140
:101AD00000B962B651B10FFA8CF101200FFA8EF203
:101AE0004FF4FA741BB20094FFF7DAFC16B13846D3
:101AF000FEF726FEE86807F00FFDE86800F008FC36
:101B000003F0A2FC697969B12969401AB0F5FA7F3E
:101B100008D901200021697101B0BDE8F040FFF74C
:101B2000A7BC00BF01B0F0BD2E79002ECDD1FF279C
:101B30000028CFD1CDE70000F0B581B040F2F42409
:101B4000C2F20044E16800296BD0814269D1617A18
:101B5000627802290AD001293ED0002955D1A52A50
:101B600057D1A521A176012152E000BFE17994F877
:101B700008C065180131CBB2E1716345AA7648D33C
:101B8000E17E5B293AD05A293FD194F81CC094F8E1
:101B90002270637F94F81EE0E17F83EA0C0282EA00
:101BA0000E0594F8202085EA010694F8215056404D
:101BB0006E40B74229D14CEA0320A0824EEA0120B0
:101BC000E08242EA0520208303F03EFC20610120F0
:101BD000E070611DE06816E002F0FE015A2909D1AB
:101BE0000323E27602215A2AE17108BF09232372F6
:101BF0000EE000BFA52A08D10BE000BF217F082915
:101C000003D8A170211D01220A700021A4F8071039
:101C1000617220B1611C012206F08AFC08B101202A
:101C2000A07101B0F0BD000040F63020C2F20040CB
:101C300001F006B90000000040F6A820C2F2004002
:101C400001F0FEB80000000040F64010C2F2004073
:101C500001F0F6B80000000040F6B810C2F20040F3
:101C600001F0EEB80000000040F2F850C2F200406F
:101C700001F0E6B80000000040F28050C2F20040DF
:101C800001F0DEB80000000040F27060C2F20040D7
:101C900001F0D6B80000000040F2E860C2F2004057
:101CA00001F0CEB80000000040F65000C2F2004043
:101CB00001F0C6B80000000040F6C800C2F20040C3
:101CC00001F0BEB80000000040F26070C2F20040B7
:101CD00001F0B6B80000000040F2D870C2F2004037
:101CE00001F0AEB80000000040F20F42D0F800C092
:101CF000C4F20202944511DC6F22C4F20202944540
:101D000022DC3F22C4F20202944539DC1022C4F2E4
:101D1000020294455AD0282254E000BF40F26F429C
:101D2000C4F2020294451BDC40F23F42C4F20202BC
:101D300094452DDC40F21042C4F20202944545D095
:101D400040F228423EE000BF9F22C4F202029445C6
:101D500028DC7022C4F20202944537D0882231E098
:101D600040F29F42C4F20202944523DC40F27042EA
:101D7000C4F20202944529D040F2884222E000BF1A
:101D80004022C4F20202944520D058221AE000BF3B
:101D900040F24042C4F20202944517D040F2584249
:101DA00010E000BFA022C4F2020294450ED0B82277
:101DB00008E000BF40F2B842C4F20202944505D0E8
:101DC00040F2A042C4F20202944519D16FF00F0212
:101DD0004AF6AB2352FA8CF2CAF6AA23A2FB0331CD
:101DE0000AA35F2AC1F302115B5C40F2FF312CEAC7
:101DF0000101C36588BF043181650846704700BF93
:101E00002CF0FF0181650846704700BF00061016E0
:101E1000000610160000000070B540F26F44D0F8C4
:101E200000C0C4F20204D0F858E0A4451ADC9F2593
:101E3000C4F20205AC4533DC5725C4F20205AC45BB
:101E40005ADC1025C4F20205AC4500F09880282524
:101E5000C4F20205AC4500F092804025C4F20205B0
:101E60008AE000BF45F22F45C5F60205AC452DDCE2
:101E700040F2B745C4F20205AC454BDC40F2704578
:101E8000C4F20205AC457AD040F28845C4F202059E
:101E9000AC4574D040F2A045C4F202056CE000BF2E
:101EA00040F22745C4F20205AC4543DCA025C4F24C
:101EB0000205AC4563D0B825C4F20205AC455ED03E
:101EC00040F21045C4F2020556E000BF45F26B45F2
:101ED000C5F60205AC453FDC45F23045C5F60205C6
:101EE000AC454CD045F24445C5F60205AC4546D05C
:101EF00045F258453EE000BF5825C4F20205AC4506
:101F00003DD07025C4F20205AC4538D08825C4F216
:101F1000020531E040F2B845C4F20205AC452ED0CE
:101F200045F20845C5F60205AC4528D045F21C45EA
:101F300020E000BF40F22845C4F20205AC451ED0A7
:101F400040F24045C4F20205AC4518D040F2584575
:101F5000C4F2020510E000BF45F26C45C5F602056B
:101F6000AC450CD045F29445C5F60205AC4506D00B
:101F700045F28045C5F60205AC4540F0CF80456E80
:101F8000C66E002E866E6E601CBFD0E91C566E6059
:101F9000A44515DC9F24C4F20204A4452CDC57247C
:101FA000C4F20204A44551DC1024C4F20204A44586
:101FB0007AD02824C4F20204A44575D040246FE0EE
:101FC00045F22F44C5F60204A44529DC40F2B7448B
:101FD000C4F20204A44545DC40F27044C4F2020499
:101FE000A44561D040F28844C4F20204A4455BD009
:101FF00040F2A04454E000BF40F22744C4F202047F
:10200000A4453FDCA024C4F20204A4454CD0B8246B
:10201000C4F20204A44547D040F2104440E000BF9F
:1020200045F26B44C5F60204A44553DC45F2304446
:10203000C5F60204A4455FD045F24444C5F6020447
:10204000A44559D045F2584452E000BF5824C4F288
:102050000204A44528D07024C4F20204A44523D06D
:1020600088241DE040F2B844C4F20204A4451BD009
:1020700045F20844C5F60204A4453DD045F21C448F
:1020800036E000BF40F22844C4F20204A4450BD05D
:1020900040F24044C4F20204A44505D040F2584442
:1020A000C4F20204A44539D18468C06D00F01F0059
:1020B0003F2505FA00F0CEF80800DCF80000402CBF
:1020C00020F48020CCF80000CCF8043021D1CCF8EA
:1020D000082021E045F26C44C5F60204A4450BD06B
:1020E00045F28044C5F60204A44505D045F2944467
:1020F000C5F60204A44511D1C46D806804F01F0424
:102100000125402805FA04F4CEF80440CCF8043048
:10211000DDD0CCF808101146CCF80C1070BD0000D2
:1021200040F21831C2F200414A681AB1824204BF3B
:102130000120C8737047000070B568B140F21835CF
:10214000C2F200452978012908D169680C1A18BF24
:102150000124204670BD00BF012070BD05F10801BB
:10216000012268600024EC730126AC73AC822C6100
:10217000AC75EC7585F824402C6285F8254085F80F
:102180002640AC83AC61AC77EC7785F82C40AC6230
:1021900085F82D4085F82E402E7006F0C9F90028EC
:1021A0001CBFEE730124204670BD0000000000003B
:1021B000B0B540F21834C2F200446068002842D042
:1021C000E17B59B10021E173A17304F108010122FF
:1021D000012506F0ADF9002818BFE57303F034F9C6
:1021E000A17D31B12169411AB1F5FA7F01D90021F0
:1021F000A17594F8251061B1216A411AB1F5FA7FF1
:1022000007D9002184F8251084F82410012184F8CE
:102210002610A17F31B1A169411AB1F5FA7F01D928
:102220000021A17794F82D1069B1A16A401AB0F588
:10223000FA7F98BFB0BD002084F82D0084F82C00F0
:10224000012084F82E00B0BDF0B581B040F2183402
:10225000C2F200446168002958D0814256D1A27B65
:10226000217A8AB322445172A17B0131A173CAB28F
:10227000052A42D3A67A06F0FE0040283AD1607AB9
:10228000277BE57A627B80EA0601694079408A42D1
:1022900030D1AA2805D0AB282CD145EA0720012847
:1022A00028D803F0D1F8617AAA2915D1B6F14001F6
:1022B00045EA072218BF012104EBC1018A820861A7
:1022C00001208875C87515E001F0FE02AA2A14D114
:1022D000617201200FE000BFB6F1400118BF01217B
:1022E00004EBC10181F824500862012081F8250027
:1022F00081F826000020A073606828B104F108016D
:10230000012206F015F908B10120E07301B0F0BD1B
:1023100070B58EB0002800F0B18040F21832EFF3B3
:10232000108CC2F2004272B60646002410690B906F
:10233000908ABCF1000FADF82800907D8DF8260042
:10234000D07D8DF82500116A059192F824108DF842
:10235000101092F825108DF80F1092F826108DF8B5
:102360000E1092F827108DF80910D47582F82640C7
:1023700091690891938BADF81C30917F8DF81A10FC
:10238000D17F8DF81910956ACDF80A5092F82C502B
:102390008DF8085092F82D508DF8075092F82E5075
:1023A0008DF8065092F82F508DF80550D47782F8AA
:1023B0002E4065D0B9B144F2AA10ADF83300180A26
:1023C0008DF8360083EA13208DF8353080F0EB006D
:1023D0008DF837000DF1330105221423304606F045
:1023E0000FF99DF82500B8B1BDF8280044F2AA0104
:1023F000ADF8331005228DF83500010A80EA10206F
:102400008DF8361080F0EA008DF837000DF13301B9
:102410001423304606F0F4F89DF80600A8B19DF8A4
:10242000080044F2AB11ADF8331000218DF83500EF
:1024300080F0EA008DF836100DF133018DF8370089
:1024400005221423304606F0DBF89DF80E00A8B1F3
:102450009DF8100044F2AB01ADF8331000218DF867
:10246000350080F0EB008DF836100DF133018DF85A
:10247000370005221423304606F0C2F80EB070BDB6
:1024800062B6002997D1AEE7704700000000000057
:1024900072B600BFFEE7000044F60400C5F6020075
:1024A000816841F0020181600168890409D40168F2
:1024B00089045CBF01685FEA814102D40168890434
:1024C000F2D570470000000040F62030C2F2004014
:1024D00002F09AB80000000040F6C030C2F200409E
:1024E00002F092B80000000040F2EC20C2F200407E
:1024F0000078012806D142F2B840C2F2004009F04B
:1025000087BE00BF0020704740F2EC20C2F20040BE
:10251000017842F2B840C2F20040002908BF0846E4
:10252000704700000000000040F6C032C2F20042D6
:10253000904218BF704740F2EC20C2F20040007891
:10254000012805D142F2B840C2F2004009F06CBE49
:10255000704700000000000040F6C032C2F20042A6
:10256000904218BF704740F2EC20C2F20040007861
:10257000012805D142F2B840C2F2004009F064BE21
:10258000704700000000000010B540F2EC24C2F2D9
:102590000044217811B1002010BD00BFA0B1027825
:1025A00042F2B84040F6C031C2F20040C2F20041EF
:1025B00009F096FE00284FF0010018BF10BD2070F2
:1025C00000200021616010BD012010BD000000004E
:1025D000B0B540F2EC25C2F200452878012818BFBA
:1025E000B0BD02F031FF044642F2B840C2F20040F2
:1025F00009F00EFE58B16868201A08D404F164008E
:10260000686042F2B840C2F2004009F0EDFE42F2CA
:10261000B840C2F20040BDE8B04009F0B1BE0000D1
:1026200010B540F2EC24C2F200442078012818BF13
:1026300010BD42F2B840C2F2004009F04DFF002048
:10264000207010BD000000002DE9F041044602F0AA
:10265000FBFE3CB3054694F83500022826D12768D6
:1026600040F20F46C4F2020640F26F483868B742A3
:1026700020F0010038606FF00E00C4F202081DDC8B
:102680006F21C4F202018F422ADC3F21C4F2020111
:102690008F4241DC1021C4F202018F4263D0282115
:1026A0005CE000BF0120BDE8F08100BF80206065D4
:1026B0000120002184F83410BDE8F08147451BDC7F
:1026C00040F23F41C4F202018F422DDC40F2104142
:1026D000C4F202018F4246D040F228413EE000BFE2
:1026E0009F21C4F202018F4228DC7021C4F2020152
:1026F0008F4238D0882131E040F29F41C4F202017C
:102700008F4223DC40F27041C4F202018F422AD092
:1027100040F2884122E000BF4021C4F202018F4212
:1027200021D058211AE000BF40F24041C4F202011A
:102730008F4218D040F2584110E000BFA021C4F2EF
:1027400002018F420FD0B82108E000BF40F2B8412B
:10275000C4F202018F4206D040F2A041C4F202014D
:102760008F42394607D13946386820F01E0041F8BB
:10277000140B6FF080000A68474500EA0200086009
:102780001ADC9F20C4F20200874233DC5720C4F2D7
:10279000020087425ADC1020C4F20200874200F097
:1027A00097802820C4F20200874200F091804020E8
:1027B000C4F202008AE000BF45F22F40C5F60200D5
:1027C00087422DDC40F2B740C4F2020087424BDC66
:1027D00040F27040C4F20200874279D040F2884053
:1027E000C4F20200874273D040F2A040C4F202005B
:1027F0006CE000BF40F22740C4F20200874243DC95
:10280000A020C4F20200874262D0B820C4F20200C5
:1028100087425DD040F21040C4F2020056E000BF93
:1028200045F26B40C5F6020087423FDC45F230407E
:10283000C5F6020087424BD045F24440C5F602007F
:10284000874245D045F258403EE000BF5820C4F2D0
:10285000020087423CD07020C4F20200874237D089
:102860008820C4F2020031E040F2B840C4F2020015
:1028700087422DD045F20840C5F60200874227D096
:1028800045F21C4020E000BF40F22840C4F20200A4
:1028900087421DD040F24040C4F20200874217D068
:1028A00040F25840C4F2020010E000BF45F26C4014
:1028B000C5F6020087420BD045F29440C5F60200EF
:1028C000874205D045F28040C5F60200874205D117
:1028D000206E016821F48071016000BF3868C00774
:1028E00010D002F0B1FD401B0628F7D32020606510
:1028F000032084F835000120002184F83410BDE85D
:10290000F08100BF2068B04210DC6F21C4F20201E8
:1029100088421DDC3F21C4F20201884234DC1021D0
:10292000C4F20201884255D028214FE040451BDC0B
:1029300040F23F41C4F2020188422DDC40F21041D6
:10294000C4F20201884245D040F228413EE000BF77
:102950009F21C4F20201884228DC7021C4F20201E6
:10296000884237D0882131E040F29F41C4F2020111
:10297000884223DC40F27041C4F20201884229D02F
:1029800040F2884122E000BF4021C4F202018842A7
:1029900020D058211AE000BF40F24041C4F20201A9
:1029A000884217D040F2584110E000BFA021C4F285
:1029B000020188420ED0B82108E000BF40F2B841C1
:1029C000C4F20201884205D040F2A041C4F20201E3
:1029D00088425BD1D4E9161202F01F023F2303FAAA
:1029E00002F28A6040455BDC9F21C4F2020188420A
:1029F00014DC5721C4F20201884227DC1021C4F202
:102A00000201884200F0A2802821C4F2020188421B
:102A100000F09C804021C4F2020195E040F2274181
:102A2000C4F2020188421FDCA021C4F202018842E4
:102A300000F08C80B821C4F20201884200F0868048
:102A400040F21041C4F202017EE000BF5821C4F2FE
:102A5000020188427AD07021C4F20201884275D006
:102A60008821C4F202016FE040F22841C4F2020161
:102A700088426BD040F24041C4F20201884265D0E6
:102A800040F25841C4F202015EE000BFD4E91612E0
:102A900002F01F02012303FA02F24A604045A3DD5F
:102AA00045F22F41C5F60201884217DC40F2B741DA
:102AB000C4F20201884227DC40F27041C4F20201F4
:102AC000884243D040F28841C4F2020188423DD09E
:102AD00040F2A041C4F2020136E000BF45F26B4172
:102AE000C5F6020188421FDC45F23041C5F60201FD
:102AF00088422BD045F24441C5F60201884225D0D8
:102B000045F258411EE000BF40F2B841C4F2020154
:102B100088421BD045F20841C5F60201884215D013
:102B200045F21C410EE000BF45F26C41C5F60201C2
:102B300088420BD045F29441C5F60201884205D087
:102B400045F28041C5F6020188420BD1616EA26E4A
:102B5000E06E4A6030B1016821F480710160D4E90F
:102B60001C014160012084F835000020002184F818
:102B70003410BDE8F081000080B5D8B190F8351070
:102B8000022919D140F20F420168C4F202029142B7
:102B900016DC6F23C4F20203994227DC3F23C4F200
:102BA000020399423EDC1023C4F2020399425FD033
:102BB000282359E0012080BD80214165012080BD8E
:102BC00040F26F43C4F2020399421BDC40F23F43E0
:102BD000C4F2020399422DDC40F21043C4F2020316
:102BE000994245D040F228433EE000BF9F23C4F203
:102BF0000203994228DC7023C4F20203994237D0C1
:102C0000882331E040F29F43C4F20203994223DC5F
:102C100040F27043C4F20203994229D040F2884343
:102C200022E000BF4023C4F20203994220D058237F
:102C30001AE000BF40F24043C4F20203994217D0A9
:102C400040F2584310E000BFA023C4F202039942AF
:102C50000ED0B82308E000BF40F2B843C4F202032C
:102C6000994205D040F2A043C4F20203994275D1C3
:102C700091424FF0040280F8352011DC6F20C4F23D
:102C80000200814222DC3F20C4F20200814239DC92
:102C90001020C4F20200814259D0282054E000BF25
:102CA00040F26F40C4F2020081421BDC40F23F4020
:102CB000C4F2020081422DDC40F21040C4F2020056
:102CC000814244D040F228403EE000BF9F20C4F241
:102CD0000200814228DC7020C4F20200814236D01A
:102CE000882031E040F29F40C4F20200814223DCA0
:102CF00040F27040C4F20200814228D040F2884085
:102D000022E000BF4020C4F2020081421FD05820C0
:102D10001AE000BF40F24040C4F20200814216D0E7
:102D200040F2584010E000BFA020C4F202008142EF
:102D30000DD0B82008E000BF40F2B840C4F2020055
:102D4000814204D040F2A040C4F2020081420868EF
:102D500020F001000860002080BD00BF0A6822F05A
:102D600001020A6045F25742C5F6020291420A6822
:102D700022F00E020A600FDC45F22F42C5F6020275
:102D8000914219DC45F20842C5F60202914229D06F
:102D900045F21C4222E000BF45F27F42C5F6020226
:102DA000914213DC45F25842C5F60202914219D015
:102DB00045F26C4212E000BF45F23042C5F6020215
:102DC00091420FD045F2444208E000BF45F29442E0
:102DD000C5F60202914205D045F28042C5F60202D4
:102DE00091421AD1D0E9181CD0E916E30A6822F4FE
:102DF00080720A6003F01F01012202FA01F1CEF88D
:102E00000410816ECCF80410C16E31B10A6822F44E
:102E100080720A60D0E91C124A60012180F83510E6
:102E2000026D002180F834100AB190470021084655
:102E300080BD000000000000406D704700000000F1
:102E40002DE9F04782B00021019140F208010446CB
:102E5000C2F2004148F2B512C1F64E32A56D0968C2
:102E600040F26F490068C4F20209A1FB021848450C
:102E70002E68296816DC9F21C4F2020188422DDCED
:102E80005721C4F20201884252DC1021C4F202012F
:102E900088427CD02821C4F20201884277D04021A8
:102EA00070E000BF45F22F42C5F60202904229DCD5
:102EB00040F2B742C4F20202904245DC40F2704157
:102EC000C4F20201884262D040F28841C4F2020199
:102ED00088425CD040F2A04154E000BF40F227415C
:102EE000C4F2020188423FDCA021C4F20201884200
:102EF0004DD0B821C4F20201884248D040F21041BE
:102F000040E000BF45F26B42C5F60202904275DC1C
:102F100045F23042C5F60202904200F0828045F24E
:102F20004442C5F6020290427BD045F2584273E01B
:102F30005821C4F20201884229D07021C4F2020152
:102F4000884224D088211DE040F2B842C4F2020237
:102F500090421CD045F20842C5F60202904260D071
:102F600045F21C4258E000BF40F22841C4F2020181
:102F700088420CD040F24041C4F20201884206D09F
:102F800040F25841C4F20201884240F05A83E16D98
:102F9000082201F01F0140F20F4A8A40C4F2020ADF
:102FA000324200F0E68050454FF0040312DC6F27F8
:102FB000C4F20207B8426FDC3F27C4F20207B842EE
:102FC00000F3A4801027C4F20207B84200F0C580C5
:102FD0002827BDE048456BDC40F23F47C4F20207BA
:102FE000B84200F39B8040F21047C4F20207B84297
:102FF00000F0B38040F22847AAE000BF45F26C42DF
:10300000C5F6020290420CD045F28042C5F602029B
:10301000904206D045F29442C5F60202904240F03A
:1030200010830268E36D03F01F0304279F400F42E3
:1030300018BF12F0040621D102279F400F4218BF8B
:1030400012F002064CD1D940090740F1FA8212F081
:10305000080100F0F682016821F00E0101600120F4
:1030600000FA03F16960606584F835000020E16CC6
:1030700084F83400002940F0DC82E2E211046F6041
:1030800026D4910603D4016821F004010160216C6B
:10309000002940F0CE82D4E29F27C4F20207B84252
:1030A00046DC7027C4F20207B84256D088274FE0AA
:1030B00040F29F47C4F20207B84241DC40F2704739
:1030C000C4F20207B84248D040F2884740E000BF4F
:1030D000D00300F1B382216C002940F0AA82B0E253
:1030E00011046F6000F1B482910609D4016821F0E7
:1030F0000A010160012084F83500002084F83400C2
:10310000E16B002940F095829BE200BF4027C4F2AA
:103110000207B84221D058271AE000BF40F24047CA
:10312000C4F20207B84218D040F2584710E000BF7E
:10313000A027C4F20207B8420FD0B82708E000BFAA
:1031400040F2A047C4F20207B84206D040F2B847A6
:10315000C4F20207B84218BF082307681F4208D00C
:10316000036823F004030360AA60626D42F0010269
:10317000626501228A4032426FD0504510DC6F23D5
:10318000C4F2020398421DDC3F23C4F202039842BA
:1031900034DC1023C4F20203984256D028234FE0B7
:1031A00048451BDC40F23F43C4F2020398422DDC49
:1031B00040F21043C4F20203984246D040F2284342
:1031C0003EE000BF9F23C4F20203984228DC702334
:1031D000C4F20203984238D0882331E040F29F4382
:1031E000C4F20203984223DC40F27043C4F20203AB
:1031F00098422AD040F2884322E000BF4023C4F224
:103200000203984221D058231AE000BF40F2404305
:10321000C4F20203984218D040F2584310E000BFB5
:10322000A023C4F2020398420FD0B82308E000BFE5
:1032300040F2A043C4F20203984206D040F2B843E1
:10324000C4F20203984240F0098243691B0604D588
:10325000AA60626D42F00202626504228A40324234
:103260006FD0504510DC6F23C4F2020398421DDC7E
:103270003F23C4F20203984234DC1023C4F2020359
:10328000984256D028234FE048451BDC40F23F438C
:10329000C4F2020398422DDC40F21043C4F2020350
:1032A000984246D040F228433EE000BF9F23C4F23C
:1032B0000203984228DC7023C4F20203984238D0FB
:1032C000882331E040F29F43C4F20203984223DC9A
:1032D00040F27043C4F2020398422AD040F288437D
:1032E00022E000BF4023C4F20203984221D05823B9
:1032F0001AE000BF40F24043C4F20203984218D0E3
:1033000040F2584310E000BFA023C4F202039842E9
:103310000FD0B82308E000BF40F2A043C4F202037C
:10332000984206D040F2B843C4F20203984240F0FB
:103330009D8103689B0704D5AA60626D42F0040278
:103340006265102202FA01F1314200F0818050459D
:103350004FF0080210DC6F23C4F2020398421DDC18
:103360003F23C4F20203984234DC1023C4F2020368
:10337000984256D028234FE048451BDC40F23F439B
:10338000C4F2020398422DDC40F21043C4F202035F
:10339000984246D040F228433EE000BF9F23C4F24B
:1033A0000203984228DC7023C4F20203984238D00A
:1033B000882331E040F29F43C4F20203984223DCA9
:1033C00040F27043C4F2020398422AD040F288438C
:1033D00022E000BF4023C4F20203984221D05823C8
:1033E0001AE000BF40F24043C4F20203984218D0F2
:1033F00040F2584310E000BFA023C4F202039842F9
:103400000FD0B82308E000BF40F2A043C4F202038B
:10341000984206D040F2B843C4F20203984218BF63
:1034200004220368134213D0A960016849030168AC
:1034300008D4C90508D4016821F008010160216C95
:1034400021B905E008034FD4216C09B12046884713
:10345000E06D00F01F01202000FA01F2324200F07E
:10346000AB8020681023504510DC6F27C4F20207A0
:10347000B8421DDC3F27C4F20207B84238DC1027EF
:10348000C4F20207B8425AD0282753E048451BDC53
:1034900040F23F47C4F20207B84231DC40F2104725
:1034A000C4F20207B8424AD040F2284742E000BFC7
:1034B0009F27C4F20207B8422CDC7027C4F202072F
:1034C000B8423CD0882735E040F29F47C4F202075B
:1034D000B84227DC40F27047C4F20207B8422ED04F
:1034E00040F2884726E000BFA16C0029AED1AFE7CB
:1034F0004027C4F20207B84221D058271AE000BF83
:1035000040F24047C4F20207B84218D040F2584790
:1035100010E000BFA027C4F20207B8420FD0B827BE
:1035200008E000BF40F2A047C4F20207B84206D04C
:1035300040F2B847C4F20207B84218BF0223076836
:103540001F4239D0AA6094F83520042A02681BD1A2
:1035500022F016020260426922F080024261226C6F
:103560000AB9A26C1AB1026822F0080202603F2078
:103570008840A860012084F83500216D00200029D2
:1035800084F8340055D15CE0510301680ED4C905BC
:103590000ED4016821F010010160012084F835008B
:1035A000002084F83400E16B21B905E008034BD416
:1035B000E16B09B120468847606D002841D0606DFD
:1035C000C00734D0042084F8350020684FEA9821E1
:1035D000026822F001020260019A013201928A42DD
:1035E0001AD80268D20717D0019A013201928A4292
:1035F00012D80268D2070FD0019A013201928A4292
:103600000AD80268D20707D0019A013201928A4291
:1036100002D80268D207DFD10068C0074FF003006C
:1036200008BF012084F83500002084F83400E16CE4
:1036300039B1204602B0BDE8F0470847A16C002927
:10364000F7D102B0BDE8F087616C0029B2D1B3E7D1
:10365000D0030DD4616C0029EBD1F2E7026804229B
:103660008A4032427FF4FDAD6BE600BF026868E637
:10367000E16B0029DDD1E4E72DE9F041044601F0DA
:10368000E3FEFCB140F26F4805462068C4F2020830
:1036900040451BDC9F21C4F20201884232DC5721E5
:1036A000C4F20201884259DC1021C4F202018842AE
:1036B00000F083802821C4F20201884200F07D805E
:1036C000402175E00120BDE8F08100BF45F22F41A7
:1036D000C5F60201884229DC40F2B741C4F202017A
:1036E000884247DC40F27041C4F20201884264D053
:1036F00040F28841C4F2020188425ED040F2A0410B
:1037000056E000BF40F22741C4F20201884241DC8A
:10371000A021C4F2020188424FD0B821C4F20201B4
:1037200088424AD040F2104142E000BF45F26B416E
:10373000C5F60201884200F3BB8045F23041C5F670
:103740000201884200F0C78045F24441C5F60201FB
:10375000884200F0C08045F25841B7E05821C4F2D9
:103760000201884229D07021C4F20201884224D08B
:1037700088211DE040F2B841C4F2020188421CD009
:1037800045F20841C5F60201884200F0A48045F2E6
:103790001C419BE040F22841C4F2020188420CD057
:1037A00040F24041C4F20201884206D040F2584142
:1037B000C4F20201884240F06982022184F8351087
:1037C000002184F83410016821F0010101600168D2
:1037D000C90708D001F038FE401B052860D82068D2
:1037E0000168C907F6D148F23F0204F108060168F2
:1037F000CFF610621140D4F818C06CCE11431943B3
:10380000E3692943256A0E43616A46EA0C060429E6
:1038100043EA060343EA050303D1D4E90B653343C6
:103820002B43666843F4801526F00302A6F1290EA7
:10383000742AA6F14F0208BF2B46A6F13F07473E68
:10384000042A38BF2B46022E38BF2B46042F38BF20
:103850002B46BEF1060F38BF2B4604290360426990
:1038600022F0070241EA020140F0F280D4E90A5353
:10387000002B41EA050100F0EB80BCF5005F00F091
:10388000CD80BCF1000F40F0D580022D00F0D58036
:10389000012D00F0C980002D00F0CF80D8E000BFDE
:1038A00020206065032084F835000120BDE8F08108
:1038B00045F26C41C5F6020188420CD045F28041C8
:1038C000C5F60201884206D045F29441C5F60201D0
:1038D000884240F0DB81022184F83510002184F811
:1038E00034100168A268A2F18003E768B3FA83F399
:1038F000402A4FEA53134FEA83336FF3101108BF86
:103900001023226941EAD70167691943A36941EA93
:10391000D201E26941EAD70141EAD3014CF6CD4335
:1039200041EAD2014AF6F832CAF2FD72276A02442D
:10393000CCF6CC43A2FB032341EA171101606FF0E0
:10394000030000EA9300E0652046FEF7CDF9E16D43
:10395000012201F01F0102FA01F141602068404597
:1039600040F3858045F22F41C5F60201884217DCFD
:1039700040F2B741C4F20201884229DC40F27041B2
:10398000C4F20201884200F0BC8040F28841C4F2D7
:103990000201884200F0B58040F2A041ACE000BFD7
:1039A00045F26B41C5F60201884223DC45F2304105
:1039B000C5F60201884200F0A48045F24441C5F6F4
:1039C0000201884200F09D8045F2584122E000BF8C
:1039D00040F2B841C4F20201884200F0928045F200
:1039E0000841C5F60201884200F08B8045F21C4177
:1039F00010E000BF45F26C41C5F60201884200F0BC
:103A0000808045F29441C5F60201884200F0798039
:103A100045F28041C5F6020170E000BF032D17D8C2
:103A2000DFE805F00E0B0E02A3F1C072B2FA82F2CB
:103A3000520904E0032D03D30AD1C3F300623AB163
:103A400040206065012084F83500BDE8F08100BFAA
:103A500041612046FEF748F9E16D3F2201F01F0168
:103A600002FA01F18160206840453FF77BAF9F215A
:103A7000C4F20201884211DC5721C4F202018842DB
:103A800020DC1021C4F2020188423AD02821C4F27D
:103A90000201884235D040212EE000BF40F227418C
:103AA000C4F20201884219DCA021C4F2020188425A
:103AB00027D0B821C4F20201884222D040F210413E
:103AC0001AE000BF5821C4F20201884219D07021C7
:103AD000C4F20201884214D088210DE040F228414E
:103AE000C4F2020188420CD040F24041C4F202010B
:103AF000884206D040F25841C4F20201884240F0A8
:103B0000E98045F2574C45F6FC01C5F6020CC5F6B6
:103B10000201604512DC45F22F42C5F602029042D6
:103B200020DC45F20842C5F60202904234D045F24C
:103B30001C42C5F6020290422ED075E045F27F424B
:103B4000C5F6020290421BDC45F25842C5F602025D
:103B5000904221D045F26C42C5F6020290421BD041
:103B600062E000BF45F23042C5F60202904213D037
:103B700045F24442C5F6020290420DD054E000BF27
:103B800045F29442C5F60202904205D045F28042C9
:103B9000C5F60202904247D16FF007024CF6CD43C2
:103BA00052FA80F2CCF6CC43A2FB0323A1F1FC0530
:103BB000A1F17C061B0905EB830503F01F02A36836
:103BC0002566802B4FF0010303FA02F26666A266B7
:103BD00004D100206060286072601DE06768FBB25D
:103BE000013F072F2B60726016D85E1E082E19D277
:103BF000604501F1440239DC45F22F47C5F6020762
:103C0000B84245DC45F20847C5F60207B84255D030
:103C100045F21C474EE000BF00206067C4E91B006E
:103C200058E000BFE06E50E06FF00F024AF6AB23A1
:103C300052FA80F2CAF6AA23A2FB032740F20F43EE
:103C4000C4F2020308253A09984203F1AA06134672
:103C500088BF05EB171340F60005B042C4F2020519
:103C600005F1800628BF1346A5E700BF45F27F4750
:103C7000C5F60207B84215DC45F25847C5F60207FB
:103C8000B8421BD045F26C4714E000BF402008E664
:103C900045F23047C5F60207B8420FD045F2444717
:103CA00008E000BF45F28047C5F60207B84205D0DC
:103CB00045F29447C5F60207B84213D101EB8300E1
:103CC0000121E066B1402267616700210160D4E90B
:103CD0001C01416000206065012184F83510BDE8B9
:103CE000F08100BF40F60000C4F2020000F1FC01C8
:103CF00000F5A072E2E70000B0B500283CD0054610
:103D000090F83400012801D10220B0BD012085F8CF
:103D1000340095F83500012828D1022085F83500B7
:103D2000002068652868046824F0010404602846BF
:103D3000FEF772F840F20F422868C4F2020240F225
:103D40006F419042C4F2020118DC6F23C4F20203F7
:103D5000984225DC3F23C4F2020398423CDC102346
:103D6000C4F2020398425ED0282357E04FF400606B
:103D70006865002085F834000120B0BD88421BDC56
:103D800040F23F43C4F2020398422DDC40F210435C
:103D9000C4F20203984246D040F228433EE000BFFE
:103DA0009F23C4F20203984228DC7023C4F202036A
:103DB000984238D0882331E040F29F43C4F2020396
:103DC000984223DC40F27043C4F2020398422AD0A6
:103DD00040F2884322E000BF4023C4F2020398422D
:103DE00021D058231AE000BF40F24043C4F202033E
:103DF000984218D040F2584310E000BFA023C4F20C
:103E0000020398420FD0B82308E000BF40F2B84345
:103E1000C4F20203984206D040F2A043C4F2020367
:103E2000984240F02F8103680B2464F3440303603D
:103E30002B6C1BB10823046823430360884219DC00
:103E40009F23C4F20203984232DC5723C4F20203D8
:103E5000984259DC1023C4F20203984200F0968085
:103E60002823C4F20203984200F090804023C4F259
:103E7000020389E045F22F43C5F6020398422DDC88
:103E800040F2B743C4F2020398424BDC40F2704365
:103E9000C4F20203984279D040F28843C4F202038C
:103EA000984273D040F2A043C4F202036CE000BF1A
:103EB00040F22743C4F20203984243DCA023C4F239
:103EC0000203984262D0B823C4F2020398425DD044
:103ED00040F21043C4F2020356E000BF45F26B43C8
:103EE000C5F6020398423FDC45F23043C5F60203B3
:103EF00098424BD045F24443C5F60203984245D060
:103F000045F258433EE000BF5823C4F202039842F2
:103F10003CD07023C4F20203984237D08823C4F205
:103F2000020331E040F2B843C4F2020398422DD0BC
:103F300045F20843C5F60203984227D045F21C43D8
:103F400020E000BF40F22843C4F2020398421DD093
:103F500040F24043C4F20203984217D040F2584363
:103F6000C4F2020310E000BF45F26C43C5F6020341
:103F700098420BD045F29443C5F60203984205D00F
:103F800045F28043C5F60203984274D12B6E1C683B
:103F9000E40303D51C6844F480741C60EB6E1BB111
:103FA0001D6845F480751D60904211DC6F21C4F2DC
:103FB000020188421EDC3F21C4F20201884235DC46
:103FC0001021C4F20201884255D0282150E000BFE0
:103FD00088421BDC40F23F41C4F2020188422DDCE2
:103FE00040F21041C4F20201884244D040F228411C
:103FF0003EE000BF9F21C4F20201884228DC70210C
:10400000C4F20201884236D0882131E040F29F415B
:10401000C4F20201884223DC40F27041C4F2020182
:10402000884228D040F2884122E000BF4021C4F2FB
:10403000020188421FD058211AE000BF40F24041DF
:10404000C4F20201884216D040F2584110E000BF8D
:10405000A021C4F2020188420DD0B82108E000BFBF
:1040600040F2B841C4F20201884204D040F2A041BB
:10407000C4F202018842016841F0010101600020A0
:10408000B0BD00BF0368052464F3430303602B6CD9
:10409000002B3FF4D3AE0423CDE600000000000067
:1040A000B0B5044601F0D0F940F200010546C2F275
:1040B0000041621C097818BF0C4400BF01F0C4F92C
:1040C000401BA042FAD3B0BD90F89830013B012BC1
:1040D0000ED80068836D0B4212D0836D0B408B426B
:1040E00016D1C36D43F00203C3658B0514D418E0E9
:1040F00000F19C01012002220B681A430A607047FC
:10410000C36D43F00103C3658B0505D409E000BF0F
:104110000323C3658B0504D5D0F8E0301343C0F802
:10412000E0304B0504D5D0F8E4301A43C0F8E42061
:104130004FF6FF72436DC3F6CF720A401A434265D1
:104140008A0F4AF614010020C4F200010B681A43DA
:104150000A607047000000002DE9F04390F89830A5
:10416000022B19D10668D6F8C03013F07C5F1DD041
:10417000D6F8C4309B0223D4D6F8C4304D68002D45
:104180000D69C3F3044C8B6824D00C682B43234384
:1041900043F0804E22E000BFD0F89C1041F00801AF
:1041A000C0F89C100120BDE8F08300BFD0F89C103F
:1041B00041F02001C0F89C100120BDE8F08300BF51
:1041C000D0F89C1041F40071C0F89C100120BDE8AB
:1041D000F08300BF0C682B4343EA844E836ED0F813
:1041E0008450D1E907970CFB03F48B6949EA076710
:1041F000D1F81480D1F80C901F4305EB840347EAF3
:10420000080745F824E047EA09475F60CF6887B1AF
:1042100043F62455083303320024C0F6010500BFDD
:10422000171957F8037C1F51CF680434EF5DBC4267
:10423000F6D3012101FA0CF1C6F8D010C0F89410A1
:104240000020BDE8F083000070470000000000007F
:1042500080B590F89820013A012A0BD80A68002A04
:10426000CA680FD00B69072A43EA427E18D18B69CE
:104270001BE000BFD0F89C1041F00201C0F89C1078
:10428000012080BD072A19D10A69D1F81CC0120487
:104290008B6942EA0C221A4342F0605218E000BFD8
:1042A000D1F808C04B6943EA8C73006F496800EB92
:1042B000C10240F831E00020536080BD8B68D1F826
:1042C00010C09B0743EAC2624B6942EA0C421A43A0
:1042D0004968C06E40F82120002080BD0000000029
:1042E00090F898C0BCF1010F0ED19200006842EA2C
:1042F0000111DDF800C041EA430141EA0C01C0F8B8
:1043000080100020704700BFD0F89C1041F00401DD
:10431000C0F89C100120704790F89830012B0DD107
:104320004029006812D1D0F8A01021F0004141EAE4
:10433000C271C0F8A0100020704700BFD0F89C10D8
:1043400041F00401C0F89C1001207047D0F8B01073
:1043500021F0004141EAC271C0F8B010002070475E
:104360007047000000000000FEF7DEB8000000000B
:104370000068426C02F007000860C2F30220486047
:10438000C2F3803302F018008860C2F34010C860A6
:10439000C2F380100861C2F3C0104861C2F3C020AC
:1043A0008861C2F30030C861C2F34030C1E908033C
:1043B000C2F3064200208A6270470000000000003D
:1043C000B422402908BFA4220068805800F07F0072
:1043D00070470000000000002DE9F04390F898704D
:1043E000022F27D140292FD10668D6F8A07017F4E4
:1043F000FE0F00F0C780D6F8A4707F0600F0D480CE
:10440000D6F8A470D6F8A450ED01C7F3052E0AD54E
:10441000D6F8A070B7F1FF3F05DC0EF10107D6F822
:10442000A06007EA164E00F1740400F14405F4465A
:104430003CE000BFD0F89C1041F00801C0F89C108F
:104440000120BDE8F08300BF412925D10668D6F8D8
:10445000B07017F4FE0F00F09580D6F8B4707F06A8
:1044600000F0A280D6F8B470D6F8B450ED01C7F3CE
:10447000052E0AD5D6F8B070B7F1FF3F05DC0EF176
:104480000107D6F8B06007EA164E00F1780400F193
:104490004C05F4460AE000BF076D8F4272D900F167
:1044A0007C0400F154054FF0000C8E462D68246802
:1044B0000EFB05F504EB850E54F8257017F08047C8
:1044C000576054F8257027F0604608BFC7F38A4646
:1044D000166054F8257007F00057976054F825408F
:1044E00004F000441461BEF80440D461BEF80640F4
:1044F00014F00F04D460DEF8044004F48014546116
:10450000DEF8044004F4001494619EF8074004F0BF
:104510007F041462DEF804404FEAD474546228D059
:1045200043F624580024C0F601080EEB0406651C6F
:10453000377A1F55D76818F80770BD4219D21F196E
:10454000757A7D70D56818F80590A51C4D453FBF5C
:10455000B57ABD70D56818F805903CBFE51C4D458F
:1045600007D2F57A0434FD70D56818F80550AC42CE
:10457000DBD3402910D10068C0F8A8C00020BDE8F6
:10458000F08300BFD0F89C1041F02001C0F89C10CF
:104590000120BDE8F08300BF41290FD10068C0F8B9
:1045A000B8C00020BDE8F083D0F89C1041F48071C1
:1045B000C0F89C100120BDE8F08300BF1F2909D876
:1045C0000068012202FA01F1C0F898100020BDE84D
:1045D000F08300BF006801F01F01012202FA01F11F
:1045E000C0F89C100020BDE8F0830000000000002F
:1045F0000068D0F8C40000F03F00704700000000E1
:1046000070470000000000002DE9F04F89B004461B
:104610004AF61000C4F2000001684AF61400C4F221
:1046200000000268206802EA0108056DD0F8549085
:10463000036D0293436D0193036D0493436D0393E4
:10464000036D0893436D0793036D0693436D0593C4
:10465000D0F854A0D0F850B05FEACA530ED51BF47E
:1046600080710BD04FF4807101654AF61001002073
:10467000C4F2000108602046FFF7C2FF05EA090600
:104680004AF610095FEA4A50C4F200094FEA8877F7
:1046900011D51BF480600ED02068D0F8DC10D0F863
:1046A000E42011404FF4806202650020C9F8000048
:1046B000204600F0B5FDDDE9011000EA010506F431
:1046C000704657B120680021016508F00300C9F861
:1046D000000020463946FFF7B7FDDDE9031000EA88
:1046E000010705F00F0546B1206831460665002038
:1046F000C9F80000204600F09BFD07F0F00645B128
:104700002068294605650020C9F80000204600F011
:1047100087FB46B12068314606650020C9F80000D5
:10472000204600F081FB5FEA0A500CD51BF40060C4
:1047300009D020684FF4006101650020C9F800002D
:10474000204600F079FD5FEA8A5011D51BF4007015
:104750000ED02068D0F8D810D0F8E02011404FF4E7
:10476000007202650020C9F80000204600F05CFDE0
:104770005FEA0A300CD51BF4002009D020684FF402
:10478000002101650020C9F80000204600F044FB2C
:104790005FEACA300CD51BF4803009D020684FF492
:1047A000803101650020C9F80000204600F034FD8A
:1047B0005FEA4A30DDE9051000EA01050CD51BF47B
:1047C000802009D020684FF4802101650020C9F8BD
:1047D0000000204600F01CFD5FEA8A30DDE907108A
:1047E00000EA010005F060710FD51BF400320CD017
:1047F00022684FF4003313650022C9F80020D4F872
:104800009C2042F08002C4F89C2000F0715539B120
:10481000206801650020C9F800002046FFF7A4FDCC
:10482000206845B105650021C9F80010D4F89C1036
:104830002943C4F89C10A9F5016188420AD0D4F834
:104840009C00002868D0204609B0BDE8F04FFFF773
:1048500087BD00BF606881688907F0D0016A426A3D
:10486000036A476A114003EA070202F03005D0F8F4
:104870002080D0F82490D0F820B0D0F824A0026A8C
:10488000089211F00F01426A0792466A026A069284
:1048900003D00162204600F0AFFC08EA09072DB101
:1048A000606829460562204600F0AEFC70060BEAFF
:1048B0000A0607F4C0750ED5069810F040000AD01D
:1048C00060684023C16BC26B090C02F03F020362B7
:1048D000204600F095FCDDE9071000EA010706F428
:1048E000FC462DB1606829460562204600F080FC38
:1048F00007F4F02036B161680E62D4F89C103143A1
:10490000C4F89C1000289AD061680862D4F89C1002
:104910000843C4F89C0092E709B0BDE8F08F00009E
:104920002DE9F04F85B0A8B34AF200080446C4F25E
:1049300000080068404531D094F89810A9B3816907
:1049400021F01001816100F07FFD0546206881693A
:10495000090705D500F078FD401B0B28F6D310E0C1
:10496000816941F00101816100F06EFD054600BFE3
:1049700020688169C90721D100F066FD401B0B2822
:10498000F6D30120D4F89C100843C4F89C000320FF
:1049900084F89800012005B0BDE8F08F08F580711B
:1049A000616094F898100029C9D1002084F899001A
:1049B000204600F0B5F92068C1E700BF816941F0E9
:1049C00002018161217C826922F04002012918BF25
:1049D00040328261617C826922F48042012908BFF1
:1049E00002F580428261A17C826922F48052012911
:1049F00018BF02F580528261816921F44073D4E9C5
:104A000002120B438361836923F0A403836103696A
:104A100023F0100303619AB1012A0DD0022A09D0B4
:104A20008369032A43F080038361036943F0100222
:104A3000026105D1202200E0042283691A438261C9
:104A4000D4E90572E369561E6FF0FF02256A02EB96
:104A50000323B1F5407F43EA4663A5F1010646EA28
:104A6000030640F20003CFF6FF7303EB074746EA65
:104A70000701C16110D1D4E90B65D4E90917013FE1
:104A800002EB06226FF00F063A4306EB05173A4396
:104A900003EB01411143C160236E2BB1616ED0F86D
:104AA000C0201143C0F8C010E16DCDE90313D94215
:104AB00043F61C41C0F6010109D0D0F8C820A36E0E
:104AC00022F0070251F823301A43C0F8C820D4F866
:104AD00040A0BAF1000F09D0D0F8BC20636C22F0DE
:104AE000070251F823301A43C0F8BC20A76C57B115
:104AF000D0F8BC20E36C22F0700251F8233042EA77
:104B00000312C0F8BC20D4F850C0BCF1000F0AD08A
:104B1000D0F8BC20636D22F4E06251F8231042EA21
:104B20000121C0F8BC10404504D161688A6822F0B8
:104B300003028A600021C4F89410C4F89C1001217B
:104B400084F898104FF6FC72D0F88410D4F83C909A
:104B500021EA0203656CD4E90D120292019543EA41
:104B60008103C0F88430D0F8843023F47F0343EA13
:104B70000243C0F884305318D0F888606FF38F0672
:104B800046EA8306C0F88860D0F8886003EB4903E2
:104B900026F4FE0646EA0946C0F88860D0F8A06010
:104BA0006FF38F0646EA8306C0F8A060D0F8A060D5
:104BB00005FB0A3326F4FE0646EA0A46C0F8A06062
:104BC000D0F8B0606FF38F0646EA8306C0F8B06095
:104BD000D0F8B06026F4FE0646EA0746C0F8B0609A
:104BE000E66CD0F8AC506FF38F0506FB07337E43BD
:104BF00045EA8305C0F8AC50D4F8548008FB0C3566
:104C0000D0F8F0306FF38F0308FB0CFC43EA850308
:104C1000C0F8F030D0F8F0E0A36D2EF47C1242EA38
:104C20000342C0F8F02005EB4302D0F8C0506FF308
:104C30008F0545EA8202C0F8C020D0F8C020DDF818
:104C40000CB022F47C1242EA0B42C0F8C020019A58
:104C5000D0F8C05025F07C5502FB0AFE4AF2000253
:104C6000C4F20002DDF810A002EB8101029A01F506
:104C7000406145EA0A6501EB8207C0F8C05007EBC6
:104C8000C902A56E02EB8E00626700EB86060BFB85
:104C900005F2276706EB8C07C4E91E060AFB05F040
:104CA00007EBC30303EB8202C4F884304DF2FC33FC
:104CB000E16602EB8000C4F200039842C4F8807001
:104CC000C4F88820C4F8900002D920205AE600BF1A
:104CD000814221D20A46002042F8040BD4F89030D9
:104CE0009A4215D2486001F10802D4F890309A42F5
:104CF0003FBF0020886001F10C02D4F8903038BF2B
:104D00009A4205D2C8601031D4F890209142E1D384
:104D100005B0BDE8F08F00BF002005B0BDE8F08F02
:104D200010B586B04AF200420068C4F200020021C9
:104D300090420591CDE90311CDE901112ED04AF23F
:104D40000001C4F20001884263D140F2C84144F23C
:104D5000E040C2F20041C5F602000A68002A02F1F2
:104D600001020A6008D1C16841F48071C160C16864
:104D700001F48071009100990168132441F0010150
:104D80000160006800F00100009000984FF4C050EE
:104D900001900020C5F6020029E000BF40F2C841A2
:104DA00044F2E040C2F20041C5F602000A68002A5F
:104DB00002F101020A6008D1C16841F48071C1604A
:104DC000C16801F48071009100990168142441F0D8
:104DD00002010160006800F00200009000984FF4AA
:104DE000405001900020C5F6020000F580600221CD
:104DF00002910021CDE903110921059101A900F0DB
:104E00001FFA05210022204600F036FC204600F063
:104E100023FC06B010BD0000704700000000000039
:104E2000FDF79ABB00000000704700000000000082
:104E300090F8981001290DD1022180F8981001688E
:104E40008A6922F001028A610021C0F89C1008469C
:104E5000704700BFD0F89C1041F00401C0F89C10CE
:104E6000012070470000000090F8981002292BD113
:104E7000016851F8182F42F001020A600A68D2074F
:104E800006D10A68D20704BF0A685FEAC27223D05B
:104E90000A6822F010020A600A68120707D50A6839
:104EA000120744BF0A685FEA027200F1CF800A6805
:104EB00042F002020A600021C0F89410012280F83A
:104EC00098200846704700BFD0F89C1041F00801B8
:104ED000C0F89C10012070470A68D20704BF0A6816
:104EE0005FEAC272D4D10A68D20704BF0A685FEAD7
:104EF000C272CDD10A68D20704BF0A685FEAC272E3
:104F0000C6D10A68D20704BF0A685FEAC272BFD17D
:104F10000A68D20704BF0A685FEAC272B8D10A6899
:104F2000D20704BF0A685FEAC272B1D10A68D20729
:104F300004BF0A685FEAC272AAD10A68D20704BF36
:104F40000A685FEAC272A3D10A68D20704BF0A687E
:104F50005FEAC2729CD10A68D20704BF0A685FEA9E
:104F6000C27295D10A68D20704BF0A685FEAC272AA
:104F70008ED10A68D20704BF0A685FEAC2727FF462
:104F800087AF0A68D20704BF0A685FEAC2727FF47B
:104F90007FAF0A68D20704BF0A685FEAC2727FF473
:104FA00077AF0A68D20704BF0A685FEAC2727FF46B
:104FB0006FAF0A68D20704BF0A685FEAC2727FF463
:104FC00067AF0A68D20704BF0A685FEAC2727FF45B
:104FD0005FAF0A68D20704BF0A685FEAC2727FF453
:104FE00057AF0A68D20704BF0A685FEAC2727FF44B
:104FF0004FAF0A68D20704BF0A685FEAC2727FF443
:1050000047AF0A68D20704BF0A685FEAC2727FF43A
:105010003FAF0A68D20704BF0A685FEAC2727FF432
:1050200037AF0A68D20704BF0A685FEAC2727FF42A
:105030002FAF0A68D20704BF0A685FEAC2727FF422
:1050400027AF0A68D20700F0C58021E70A68120777
:1050500044BF0A685FEA02727FF529AF0A68120747
:1050600044BF0A685FEA02727FF521AF0A6812073F
:1050700044BF0A685FEA02727FF519AF0A68120737
:1050800044BF0A685FEA02727FF511AF0A6812072F
:1050900044BF0A685FEA02727FF509AF0A68120727
:1050A00044BF0A685FEA02727FF501AF0A6812071F
:1050B00044BF0A685FEA02727FF5F9AE0A68120718
:1050C00044BF0A685FEA02727FF5F1AE0A68120710
:1050D00044BF0A685FEA02727FF5E9AE0A68120708
:1050E00044BF0A685FEA02727FF5E1AE0A68120700
:1050F00044BF0A685FEA02727FF5D9AE0A681207F8
:1051000044BF0A685FEA02727FF5D1AE0A681207EF
:1051100044BF0A685FEA02727FF5C9AE0A681207E7
:1051200044BF0A685FEA02727FF5C1AE0A681207DF
:1051300044BF0A685FEA02727FF5B9AE0A681207D7
:1051400044BF0A685FEA02727FF5B1AE0A681207CF
:1051500044BF0A685FEA02727FF5A9AE0A681207C7
:1051600044BF0A685FEA02727FF5A1AE0A681207BF
:1051700044BF0A685FEA02727FF599AE0A681207B7
:1051800044BF0A685FEA02727FF591AE0A681207AF
:1051900044BF0A685FEA02727FF589AE0A681207A7
:1051A00044BF0A685FEA02727FF581AE0A6812079F
:1051B00044BF0A685FEA02727FF579AE0A68120797
:1051C00044BF0A685FEA02727FF571AE0A6812078F
:1051D0007FF56DAED0F89C1041F00101C0F89C1035
:1051E000032180F8981001207047000000000000A3
:1051F0007047000000000000704700000000000041
:105200007047000000000000704700000000000030
:105210007047000000000000704700000000000020
:105220007047000000000000704700000000000010
:105230007047000000000000704700000000000000
:105240002DE9F04F84B08E4642F20042C5F60202CC
:105250000A219042DEF8005008BF0921002D00917C
:1052600000F0E68000F12642009902F1FF7200246E
:105270004FEAB2230126082B4FF0000738BF19462A
:105280004FF00008CDF808E000910DE0DEF8005086
:1052900008F1010835FA06F107F1020706F10106E7
:1052A00004F1040400F0C480A6F1010A012101FA0E
:1052B0000AF315EA0309E9D0DEF804B00BF00305A0
:1052C0006A1E012A1AD80321D0F808C001FA07FE85
:1052D00002992CEA0E0CDDF808E0CA68BA4042EAEE
:1052E0000C028260CBF30012D0F804C02CEA030356
:1052F00002FA0AF21A4342600CE000BF032D09D102
:10530000DEF80820012A05D10325BC4605FA07F27C
:10531000D1432FE00321C26801FA07F3022D6FEA9F
:10532000030122EA0302DEF808304FEA480C03FAD0
:1053300007F342EA0302C2601CD101916FF003013E
:1053400001EA5A0204F01C0502440F2101FA05F398
:10535000D2F820B002992BEA0303D1F810E00199AA
:105360000EFA05F5DDF808E02B431362DEF804B011
:105370000BF0030502681BF4403F01EA020105FA45
:105380000CF241EA020101603FF480AF44F2F442C2
:1053900040F2084CC5F60202C5F6000C0F25116854
:1053A00041F002011160116801F0020103912AF03D
:1053B0000301039A04F00C0251F80C309540AB4302
:1053C000009D05FA02F21A4341F80C204FF0B04C50
:1053D000DCF80010DEF8042041EA0903D50258BFCA
:1053E00021EA09039502CCF8003040F2040CC5F61E
:1053F000000CDCF8001041EA090358BF21EA090358
:105400009503CCF80030DCF8801041EA090358BF5E
:1054100021EA0903D203CCF88030DCF87C1041EAA1
:10542000090358BF21EA0903CCF87C302EE700BFFE
:1054300004B0BDE8F08F0000002A08BF09048161B4
:10544000704700000000000042F2CC70C2F2014040
:10545000006870470000000040F2000042F2CC718A
:10546000C2F20040C2F2014100780A6810440860AC
:10547000704700000000000080B5032000F02CF908
:1054800001F0E2F944F2184143F67443C5F6020113
:10549000C0F601030A68096801F00F01C2F3032294
:1054A000595C9A5C01F01F0102F01F02D04040F2EB
:1054B0000C02C2F2004220FA01F1116040F2080130
:1054C000C2F2004108600F2000F00AF800281CBF5B
:1054D000012080BD00F0A8F8002080BD0000000081
:1054E000B0B58AB00F2842D80446362000222146A3
:1054F000002500F0C1F8362000F0AEF840F20400BC
:10550000C2F20040046044F2E840C5F602000168BF
:1055100041F010010160006801A900F01000029044
:10552000029802A801F0DCF8079C002C18BF0124A7
:1055300001F02AF94DF68361A040C4F21B3141F21B
:105540000002A0FB010140F66040C2F200404FF0B3
:10555000FF33C4F20002026003EB9141C0E9011580
:1055600040F2E731C0E9031501F092FC10B10120CF
:105570000AB0B0BD40F66040C2F2004001F0BCFC91
:105580000AB0B0BD0000000010B54EF6A05E417834
:10559000CEF2000E90F800C04EF8081CDEF80010A5
:1055A00021F00101CEF8001041684EF8041C017B87
:1055B000C37A827A447B1B0643EA0171837B41EA0A
:1055C000C241C27B41EA8441447A41EA4341007AC4
:1055D00041EA024141EA042141EA400040EA0C006C
:1055E000CEF8000010BD00004EF62450CEF20000B0
:1055F000BFF35F8F016821F48031016000210167F2
:1056000070470000000000004EF6245140F00100F9
:10561000CEF200010867086840F480300860BFF3EC
:105620004F8FBFF36F8F704781B044F2F440002278
:10563000C5F60200016841F00201016000680F2117
:1056400000F0020000906FF00100009B01B000F03C
:1056500013B8000000000000002848BF704700F0A9
:105660001F01012202FA01F14EF200124009CEF2AE
:10567000000242F820107047B0B54EF60C5C00F006
:105680000F05CEF2000C043D6544DCF800304FF00D
:10569000FF3CC3F3022E8EF00703042B28BF042324
:1056A000BEF1030438BF00240CFA03F3B0F1FF3F4E
:1056B00021EA030105F10C0300F160450CFA04F046
:1056C000C8BF05F56443A14022EA00000843000179
:1056D0001870B0BD000000004EF60C514FF6FF03ED
:1056E000CEF200010A681A4060F30A2242F080609C
:1056F00040F0FD7008607047B0B544F60C05C5F683
:10570000020529684907296806D401F00701081A2B
:1057100018BF0120B0BD00BF21F007010843286079
:10572000FFF792FE044600BF55F8080C800407D42A
:10573000FFF78AFE001BB0F57A7FF5D90120B0BDD6
:105740000020B0BD0000000080B500F0F5FF44F27D
:10575000204143F67442C5F60201C0F60102096811
:10576000C1F30211515C01F01F01C84080BD00006F
:1057700080B544F2384EC5F6020E5EF8103C5EF875
:10578000101CC1F3053C5EF80C1CBCF1000FDEF8E8
:10579000042015D0C1F30011C2F3CC02514300EE36
:1057A000101A03F003010229B8EE400A0ED089B99D
:1057B0005EF8381C890611D49FED361A1CE000BF34
:1057C00000218160C0E9001180BD00BF9FED301A4B
:1057D00012E000BF9FED2D1A0EE000BF5EF8381CEE
:1057E00049F20002C0F2D032C1F3C10122FA01F144
:1057F00001EE101AB8EE411ADEF800109FED263ABD
:105800006FF35F2102EE101ADEF80010C1F346219B
:10581000B8EE422A00EE032A00EE10CAB7EE003AB4
:10582000B8EE400A81EE000A32EE031A02EE101AB8
:10583000B8EE422A20EE010A32EE031A80EE011A77
:10584000BCEEC11A80ED001ADEF80010C1F306416B
:1058500001EE101AB8EE411A31EE031A80EE011A69
:10586000BCEEC11A80ED011ADEF80010C1F306612A
:1058700001EE101AB8EE411A31EE031A80EE010A59
:10588000BCEEC00A10EE101A816080BD0024744A7C
:1058900020BCBE4B0024744C000000390000000006
:1058A00080B544F2404EC5F6020E5EF8183C5EF834
:1058B000181CC1F3055C5EF8141CBCF1000FDEF887
:1058C000042015D0C1F30021C2F3CC02514300EEF5
:1058D000101A03F003010229B8EE400A0ED089B96C
:1058E0005EF8401C890611D49FED361A1CE000BFFB
:1058F00000218160C0E9001180BD00BF9FED301A1A
:1059000012E000BF9FED2D1A0EE000BF5EF8401CB4
:1059100049F20002C0F2D032C1F3C10122FA01F112
:1059200001EE101AB8EE411ADEF800109FED263A8B
:105930006FF35F2102EE101ADEF80010C1F346216A
:10594000B8EE422A00EE032A00EE10CAB7EE003A83
:10595000B8EE400A81EE000A32EE031A02EE101A87
:10596000B8EE422A20EE010A32EE031A80EE011A46
:10597000BCEEC11A80ED001ADEF80010C1F306413A
:1059800001EE101AB8EE411A31EE031A80EE011A38
:10599000BCEEC11A80ED011ADEF80010C1F30661F9
:1059A00001EE101AB8EE411A31EE031A80EE010A28
:1059B000BCEEC00A10EE101A816080BD0024744A4B
:1059C00020BCBE4B0024744C0000003900000000D5
:1059D0002DE9F0470446C07844F22C480007C5F68C
:1059E000020833D5606E4FEA305103290CD8DFE846
:1059F00001F003111D2600BFD8F8001041F400315A
:105A0000C8F800101BE000BF01266078C0070BD06B
:105A100020E000BF04F10800022105F015FE064653
:105A200060B16078C00715D1354646E004F1280022
:105A3000022105F09DFE06460028F2D1606ED8F8DE
:105A4000241021F440110843C8F82400002660788F
:105A5000C007E9D0A06D04280ED83546DFE800F075
:105A60000412181E1E0000BFD8F80000354640F48E
:105A70000030C8F8000011E00125012760784007D8
:105A80001FD453E004F10800002105F0DDFD04E01F
:105A900004F12800002105F06BFE05462F461DB1DC
:105AA000607840070DD441E0D8F82400A16D20F0C3
:105AB000070000250843C8F82400374660784007EF
:105AC00034D5D4F8A4004FEA705005280CD8DFE88C
:105AD00000F00311171D1D1DD8F8000040F4003020
